S021000073657269616C2D756172742D6F74612D626F6F746C6F616465722E733337A1
S31508000000000400206F00000885000008850000082D
S31508000010A70B090100000000030101530040000876
S31508000020040A0300C70F00087D120008000700082D
S3150800003000000000000000000000000000000000B2
S315080000400000000000000000000000008101000020
S31508000050FFFFFFFF09480068202100EA010028B1D8
S315080000600748016842685FEA010D10477047FFF7C5
S31508000070F1FF00F013F800F045F800002C000040EE
S315080000800040000806E000005FEA000D704744489B
S31508000090008870474FF4017000F09CB838B54FF2ED
S315080000A00F04404D00F0C2F828B140F20520288020
S315080000B06C80012032BD3C480068C00613D56888AC
S315080000C0A0421CD1288840F2022188421CBF40F277
S315080000D00621884213D040F2011188421CBF40F223
S315080000E0111188420BD0314C208A40F6A72188424C
S315080000F005D12068FFF7C8FF6068804700BF002069
S3150800010032BD000038B5044672B629480168490868
S315080001104900016000F0DAF8234800680009C107C1
S3150800012054BF2449244902E0CD2201F8012B234A71
S315080001309142F9D32249234A234B03E011F8015B84
S3150800014002F8015B9A42F9D32049214A002301E0CB
S3150800015001F8013B9142FBD340F20521114A53882D
S315080001604FF20F05AB420BD113888B4206D0C0075E
S3150800017006D5180A012818BF022801D1194601E038
S3150800018004B90021064801804CF23C30508000F04A
S3150800019091F94FF40170BDE8324000F01BB8000039
S315080001A0600F0020000000202C00004000400008DE
S315080001B0FCED00E00000002098000020000400206C
S315080001C0B41F00080004002038040020380400206A
S315080001D06D0F00200D4930220A600D490A600D494D
S315080001E00A600D4910220A60010A08BF00020B497D
S315080001F008804FF20F004880BFF35F8F0848002140
S315080002000160416007480849016070473020004096
S3150800021030C8004030C0004010E000400000002018
S315080002201C4000400CED00E00400FA050020704771
S3150800023080B500F069FA00F0BBFA38B1092115203B
S3150800024000F06DFA0921162000F069FA012106204E
S3150800025000F065FA062000F094FC0121072000F062
S315080002605EFA072000F080FC1648016821F01001AC
S31508000270016001BD052800D9704710B5DFE800F018
S315080002801721030F1C17104C2088411E2180C0B966
S31508000290072000F083FC42F21070208010BD072072
S315080002A000F06FFC0620BDE8104000F077BC062081
S315080002B0BDE8104000F058BC0620BDE8104000F02C
S315080002C060BC10BD00BC0040620F00205F48512191
S315080002D00160704738B55E498978042934BF42F60B
S315080002E0E06145F6C051FA22B1FBF2F44FF4F07121
S315080002F0B1FBF4F1451A2DB21E2DBCBF4FF40170A7
S31508000300FFF768FF534807210160002141608160BB
S3150800031051494FF000720A6005FB04F1C91C8908AF
S31508000320491E416031BDF8B540F2DC544B4D4FF6DD
S31508000330FF77474EB088B8421BD102237F22484830
S315080003400188301D00F040FCB088B84204BF022086
S31508000350B080A869800703D4A86940F00200A861A4
S3150800036001207070B08828602046FFF7B3FF20464A
S31508000370F2BDA8698007EFD536480068C00348BFB4
S3150800038000F051F870780028F1D1A86810F0010043
S31508000390A968B28803D10F2A08D2521C06E0890739
S315080003A004D5F17811B1032A28BF521EF07092B213
S315080003B0022A38BF0222B2802868B1888842CFD183
S315080003C0A86900F00300032808D0A86940F00100D6
S315080003D0A8610120E8611D48512101600020F2BD95
S315080003E010B504461F48017869B9C078072818BFB0
S315080003F0092810D0032818BF11280CD013281CBFB1
S3150800040015280B2807D01848016841F48071016047
S3150800041001E000F039FC2046FFF785FF0028F8D1F7
S3150800042010BD0220DCE70B480021416081600168AD
S3150800043021F00201016008484FF00071016004488C
S31508000440417809B1002141707047000000800040E2
S315080004500404002010E000E004ED00E00440004041
S31508000460AE1F000896070808384000400078704715
S3150800047030B5DBB00446214636A800F01BFC002048
S3150800048000904FF402638A4A36A901A800F09BFD42
S315080004900FF2602201A90FF2682000F0EFFE054670
S315080004A000F039F91DB12146284600F055FC2846CA
S315080004B05BB030BD80B5FFF7B4FF00F013FF00F066
S315080004C0EDFFFFF7B5FE01F00DF801F097F840F2E1
S315080004D00120FFF77FFE002002BDF8B504460F464F
S315080004E01546744E1D220FF2E411304601F0CAF982
S315080004F00A227149301D01F0C5F908237F226F4889
S31508000500018806F10E0000F05FFBB476522C1BD171
S315080005103520307006220FF2D41106F12E0001F0B4
S31508000520B1F90120F07602237F226548018806F199
S315080005301C0000F049FB10237F226248018806F15F
S315080005401E0000F041FB02E01D203070F776012DF9
S3150800055004D12046BDE8F24000F0DBBF3046BDE8D6
S31508000560F24000F03DBFF8B5574C601C00F09FFF05
S31508000570112807D10A25082601F0C2F9400800F01B
S3150800058083FB03E015281BD10E2504264A4F0822B3
S315080005902919B81C01F076F902223119384601F0FA
S315080005A071F97878397801EB002080B200F0B1FE55
S315080005B00120B873022200215220BDE8F8408CE7DA
S315080005C0F1BD2DE9F04180463B4C002060733E4E5C
S315080005D0304600F0BCFEC0073AD5701C00F067FF35
S315080005E0070035D0781CC5B204220FF2F601A81907
S315080005F001F061F960BB281D2073C0B2805D012837
S315080006000DD003281CBF0428182811D0512808BF6C
S31508000610B8F1000F1CD1FFF7A6FF002019E045200E
S315080006206073A07B90B1112F07D106F20A0008E08B
S31508000630B8F1000F0CD00120F2E7152F06D106F20B
S315080006400E000822A11C01F036F910B100206073D3
S315080006500120BDE8F08138B50546174C607B10B916
S315080006600120FFF7AEFF607B50B1207B1649415C45
S315080006702970401C2073607B401E6073002032BDC9
S31508000680012032BD0C480021417381730020704758
S3150800069080B50020FFF795FF38B90748007B0A495F
S315080006A0405C012801D1002002BD012002BD0000E6
S315080006B008050020D4040020C4040020B21F000846
S315080006C0AA1F0008A81F0008380400200063CC00F1
S315080006D0FFFF0000000000000000FFFFFFFFFFFF14
S315080006E0FFFF7C656D0100000000000000040A039E
S315080006F053010000191F0008551F00086D04000863
S31508000700130F00084B0F00080E48012181604EF6B2
S31508000710BE21416000E00C4801210160704710B518
S3150800072082080FF2280353F82220136800F003000A
S3150800073080000F248440A34301FA00F01843106098
S3150800074010BD0000006000400860004000B0004096
S3150800075004B0004000B2004004B2004000B40040BB
S3150800076004B40040DFF84833986001201860002080
S31508000770186058680028FCD118691040C8407047AE
S31508000780DFF82C339860012018600020186058683C
S315080007900028FCD1186990431140084380B2D860FC
S315080007A0022018600020186058680028FCD170479D
S315080007B0DFF8000380787047DFF8FC02DFF8F412F0
S315080007C08A780AB149780FE089566FF00802914293
S315080007D0B8BF302108DBC16D39B140F24A31C26D6C
S315080007E0B1FBF2F189B2C91E01607047F8B505463A
S315080007F0B04CB5F5004F18D102237F22AF4800F060
S3150800080046F8BDF80000000AFF2814BF0028182083
S315080008106070BDF800000006C00E10281CBF001D41
S3150800082000F0D2F8BDF80000C543E07808B1002012
S3150800083005E0A089ADB26840C00701D50120E07087
S31508000840A58105F00106C5F340079D48016841F4F6
S31508000850004101604FF440520FF2083000EB4600A9
S315080008604078010389B22020FFF78AFF304601F05D
S3150800087057F84022B90100F03FF92D06A80E00F0FE
S3150800088001003843A070FFF797FF0020F2BD0188EA
S3150800089000A800F099B92DE9F04F87B0894C207867
S315080008A00B38C0B20090884D287801280CBF002666
S315080008B0012601F095F88548007848B914237F2267
S315080008C08348018801A800F07FF9BDF8069002E088
S315080008D0804890F80890804F386800F0020ADFF8E0
S315080008E0FCB1DBF8000000F4E0687D484FF4E061F5
S315080008F00160002001F03CF93EB13868400840002C
S3150800090038600120287000F0BFF92878012808D13E
S31508000910386840F00100386000202870642000F034
S31508000920B3F9704D286820F480502860286840F490
S315080009300050286001F090F9064660880121009A67
S31508000940914088436080CBF8008001F0DDF950467D
S3150800095001F00EF901F089FA48F260702860642007
S3150800096000F092F9F0B201F04FF95FFA89F001F060
S3150800097089FA07B0BDE8F08F01F043BA38B50546E5
S31508000980A5F10B0401F0DAF8A5F10B00C0B21028A6
S3150800099001D38A2032BD54488168090702D4006809
S315080009A0C00701D58C2032BD464805704F480168FE
S315080009B00C2907D0A4B20FF2441131F82410C161F2
S315080009C0FFF769FF002032BD2DE9F04186B00646E3
S315080009D06FF02A00864246DB14237F223C48FFF745
S315080009E056FFBDF810004FF6FF71884203D0400449
S315080009F048BF012506D43F220021F020FFF7B2FEAA
S31508000A00044600252B483A4906F12B02D2B22F2A72
S31508000A101AD213220FF2241300E0521ED2B213F98F
S31508000A201270BE42F9DB03EB420676780E6013F8C5
S31508000A30121001700020002680460327ADB14FF63C
S31508000A40BF72BDF8101029E0092E0CDA325C0A6074
S31508000A50067014237F222748FFF719FF0320012673
S31508000A60B0462827EAE78B201DE04FF46052C10202
S31508000A7000F042F84FF4E062310200F03DF88022BF
S31508000A804FEAC81100F038F884F020003C18A4B2E8
S31508000A90402C28BF3F243F2284F0200100F02CF888
S31508000AA0FFF78AFE002006B0BDE8F08100000000CE
S31508000AB0E81000401004002064100040AC1F000835
S31508000AC01C1000400A04002029040020640F00209E
S31508000AD0A01F0008000000208020004000E100E080
S31508000AE080E100E0D010004060200040AC100040DB
S31508000AF0C0100040A21F0008A02041E6AA21290034
S31508000B005523290000252800AA262700552827004E
S31508000B10002A2600AA2B2600552D2500002F240082
S31508000B20AA3024005532230000342200AA352200B8
S31508000B305537210000392000AA3A2000D500E601E1
S31508000B40EC02EF03F204F405F506F707F808F909CD
S31508000B50FA0AFB0BFC0DFD0FFE11FF130016011917
S31508000B60021C031F00000103C108032908D2C11093
S31508000B704902124A012300F0070003FA00F0505018
S31508000B807047C108032908D2C11049020C4A01233B
S31508000B9000F0070003FA00F050507047C108032917
S31508000BA00BD2C110074A02EB41210A68012300F063
S31508000BB0070003FA00F050400860704714B0004080
S31508000BC010B000400CB0004030B583B00446104663
S31508000BD07F2808BF0020B1F5004F1AD108237F22CD
S31508000BE040F6120100A8FFF7EFFF08220FF23801BE
S31508000BF000A800F060FE30B908237F2240F2A271F7
S31508000C0000A8FFF7E1FF082200A9204600F03AFEF7
S31508000C1037BD1A46034D294300FB0311204600F051
S31508000C2031FE37BD00000808FFFFFFFFFFFFFFFF8B
S31508000C3010B582B0044600F022F800A8FFF7C4FFFA
S31508000C409DF801009DF80010FF2902BFFF28042027
S31508000C50002104B1801CC0B2082828BF0720082933
S31508000C6028BF0721104A136823F4607343EAC010AB
S31508000C7010601068C00851EAC000106013BD022356
S31508000C807F220A480188704709490A68032809D358
S31508000C904B6D43F001034B650B689B1A1B031B0B3B
S31508000CA08342F9D37047000018000040A61F0008C9
S31508000CB038200040017001224270827001290CBF61
S31508000CC08021402181800021C18001812048016066
S31508000CD00E218162016821F0100101600021416343
S31508000CE041627047F8B504460D46164619484FF056
S31508000CF0FF310160164FFE6200207862386840F0C6
S31508000D0001003860FFF707FD012C19D16DB900F015
S31508000D104FFC78B9786AB042F4D3002EF2D038681E
S31508000D204008400038601620F2BD284600F047FC0F
S31508000D300028EFD138684008400038600020F2BD2E
S31508000D40022C03D12846FFF786FCF1E70120F2BD05
S31508000D5000F0004000A8004038B504460D4600F0F3
S31508000D6009F800F007F82A4621461820BDE8384059
S31508000D70FFF7B3BB2A4621461820FFF7AEBB30B5AE
S31508000D8083B00446002020814AF6B43200A92078B0
S31508000D90FFF7A8FF08B11C203EBD9DF800000328F8
S31508000DA018BF182801D118203EBD042801D11720E4
S31508000DB03EBD012801D021203EBD002500E06D1C66
S31508000DC0EDB2A188091D8D420BDA40F2DD22281901
S31508000DD000F10A012078FFF785FF0028EFD02620CA
S31508000DE03EBD0025002006E00146EDB22819007B2D
S31508000DF001F04EF86D1CA188EAB28A42F4D3A27AB1
S31508000E00E37A9B18FF2B01D022203EBD0B191D7BD0
S31508000E10B5EB102F01D023203EBD5B7BC0B28342C9
S31508000E2001D024203EBDA078824207D0401EC0B221
S31508000E30824201D127203EBD25203EBD881C208147
S31508000E400220E08000203EBD38B5044660780128BF
S31508000E5004D023D3032855D018D31FE020780128BF
S31508000E6011D13B25432000F054FB40F2DD2200213E
S31508000E702078FFF737FF30B12846451EC0B2002854
S31508000E80F0D11B2032BD0220607010E000F0AAFBF2
S31508000E9000F03AF8A078401CA07008E0182032BD8F
S31508000EA02278A078411EC9B20620FFF716FB204615
S31508000EB0FFF765FF050018BF00F094FB272DEFD05C
S31508000EC0A8060BD52278A1781520FFF706FB002D7A
S31508000ED0EDD10320FFF7CEF9002032BD680603D412
S31508000EE0182D18BF1C2D07D121782846FFF734FF87
S31508000EF004206070284632BD172DE8D100F004F8AA
S31508000F0003206070172032BD2278A1780620FFF7EB
S31508000F10E4BAF8B504460D461646002706E0E0880A
S31508000F20411CE1800019807A78557F1CBFB2B74210
S31508000F3009D2E08821898842F1D32046FFF784FF49
S31508000F400028ECD0F2BD0020F2BD10B504462046BC
S31508000F50FFF77AFF0028FAD010BD0000F8B504465E
S31508000F600D4616461F4607E03046A047294600F0BC
S31508000F70A1FF05467F1E761CBFB2002FF4D1284676
S31508000F80F2BD38B50C46154605E0014614F8010BC6
S31508000F9000F090FF6D1EADB2002DF6D132BDF8B54A
S31508000FA004460D4616461F463A46314628682368C3
S31508000FB09847040005D13A463146E868FFF7E1FF4D
S31508000FC0E8602046F2BD10B5029C84720381426037
S31508000FD001604FF0FF31C1600021017410BD2DE999
S31508000FE0F84F04468B461E469BF81B70802F28BF79
S31508000FF08027D0689D49884250D1002E4CD0B068D1
S3150800100000904FF0FF384FF000090BEB490A9AF8A9
S3150800101048500FE0FF2D16D0FFF77DFB4FF4006315
S31508001020E80240F0006241460098FFF797FF8046C5
S31508001030681CC5B29AF84900A842EBDA09F1010919
S31508001040B9F1060FE1DBDBF844006FEA08018842D4
S3150800105024D1A06800BA7A08594673689847C8B96F
S31508001060E06805BAA06802BA3B464FF0FF31B0689F
S31508001070FFF774FFC04385420CD140F6A720ABF8B2
S315080010801000A06800BA01220BF110011030736835
S31508001090984708B1422002E0172000E04320BDE847
S315080010A0F28F2DE9F84F80460D469146D5F804A0F3
S315080010B02889ADF8000005F1140606F11007042387
S315080010C052464046FFF76BFF002870D1BAF8000079
S315080010D040BA1FFA80FBBAF8020040BA84B2E007A9
S315080010E048BF462063D4B4F5026FC8BF4E205EDC05
S315080010F0002C5BD05FEA0B000AD04FF60441BBEB2D
S31508001100010000F09B80FF3853D0FE3851D0ABE089
S31508001110287C08B151204AE08D2C28BF4F2046D2A2
S315080011202346321D00F0A7F8002840D1FA7E802A0F
S3150800113028BF802202F10C00844201BFB08840BA61
S3150800114000F47F40B0F5007F2CD1F08840BA4EF20B
S315080011505031884202BF388A40F6A721884202BF2A
S31508001160788A00F47F40B0F5807F1BD1B06800BA5A
S315080011703F49C969884215D14FF6FF70388206F192
S3150800118010014FF0FF30FFF7FCFEF16809BAC943BA
S31508001190884204BF387E042804D1787E0A2818BFFE
S315080011A0062801D0452002E0012028740020BDE869
S315080011B0F28F287C002843D0042300F05BF800282F
S315080011C0F5D1DAF8000006BA201F84B22848C069AB
S315080011D0864238BF4820EAD3A019796D884228BFCD
S315080011E04920E4D24FF6035083450DD1B9F1000FDB
S315080011F00AD031460220D9F80020904720B14A206B
S31508001200D5E7E01B84B2BE19002CCFD0BDF800008C
S315080012108442B4BF274607463B4600F02BF8002811
S31508001220C5D1B9F1000FECD07A0851463046D9F845
S31508001230043098470028E4D04B20B8E7287C08B942
S315080012404120B4E7042C18BF4C20B0D104236A68A7
S3150800125000F011F80028AAD14B462A4639463046EE
S3150800126001B0BDE8F04FBAE64420A0E7E320BBDEB4
S315080012700000000852462946404690E670B50446E6
S315080012800D4616462889C10701D4802803DA4F205F
S3150800129070BDA87A78B9324629462046FFF701FF7D
S315080012A00028F6D0172807D12868616888471728C4
S315080012B002D1002070BD502070BD000070B50446F4
S315080012C00D46687800260146305D00F0E1FD06F01F
S315080012D0070120FA01F1725D51403155761C102E36
S315080012E0F1DB70BD80B5FEF7D2FE40F206218842DA
S315080012F00CBF0120002060490870604882888A80F7
S3150800130082794A70C07988700020BDE8024000F0F2
S3150800131083BB5B49086070475A485B494860086068
S315080013204A6889324A608C30C8608860C8688930E3
S31508001330C86056484FF6FF7202605548026842F088
S3150800134001020260102008630320086370472DE934
S31508001350F84F80464FF0000A4C4E376817F4105F76
S3150800136002D0FFF7D9FF38E0474C17F0600F28D0B6
S31508001370B80647BF256AD4F80090656AD4F808907D
S31508001380A8B209EB4000A0F1080B414800688007A5
S3150800139004D509F1010000F08AF890B19BF8000025
S315080013A09BF8011001EB002000F4B940B0F5804F1E
S315080013B007D16A0092B24946404600F063FA4FF0F8
S315080013C0010AB80603D501202063202004E0780628
S315080013D003D502202063402030605046BDE8F28FD6
S315080013E02DE9F04104462B4D286DC00748BF8C20D7
S315080013F040D429480178E170491C017020202862F0
S31508001400224E4FF4807070606C602C6068687F3084
S3150800141068600920A86700274FF6FF78042028622D
S31508001420C6F8048000F06CFA00F00F00C01CA8642F
S315080014300D202865706810F0110FFBD07068C00782
S31508001440ECD5607880060FD5706810F0820F04D14D
S3150800145030688004F8D5FFF75FFF7068800703D40B
S315080014607F1CBFB2042FD9D3C6F80480042F80414D
S31508001470C043C00FBDE8F081640F002000000020C3
S3150800148090200040280D00200020004000A00040C9
S3150800149084200040102000406A0F002080B50221F9
S315080014A000A800F080FC009800F016FA01BD41780B
S315080014B0007800EB01204CF2070101404CF20302D0
S315080014C091420DD100F44461B1F5006F01D11120AC
S315080014D0704700F44460B0F5446F01D11520704799
S315080014E00020704780B53C4868214161022181602F
S315080014F00121016009210920FFF711F904210A20B9
S31508001500BDE80440FFF70BB9344800684006FBD530
S3150800151070473349CA685207FCD50860704710B54A
S31508001520044603E014F8010BFFF7F3FF20780028C0
S31508001530F8D110BD7CB500A90FF2B80218CA18C1B7
S31508001540052104220A230CE080B290FBF3F403FB86
S315080015501405EDB2204600AC05F130060E5505B16E
S315080015600A46491E49B20029EED5D2B200A810187B
S31508001570FFF7D5FF73BD10B5044620090A282CBF0E
S3150800158037303030C0B2FFF7C4FF04F00F000A2826
S315080015902CBF37303030C0B2BDE81040B9E710B5BF
S315080015A00446200AFFF7E7FFE0B2BDE81040E2E78D
S315080015B00A48006810F0020018BF0120704710B5ED
S315080015C00446FFF7F5FF20B10548006820700020A3
S315080015D010BD012010BD000054C8004048C8004096
S315080015E03CC8004080B500A8FFF7E9FF0028FAD0FC
S315080015F001BD000030303030300000002DE9F84FD2
S31508001600FFF789F8FFF7EEFFFFF73CF85E4C00207E
S31508001610FEF730FE5D4D5E4E0FF2641B0FF2F018BA
S315080016200FF2E0190FF2CC1A1EE00FF26810FFF75E
S3150800163076FF0C27708B384100F00F00FFF77AFF12
S31508001640012FA4BF2E20FFF764FF3F1FF2D54DA040
S31508001650FFF765FFB6F84C00FFF76CFF0FF258105E
S31508001660FFF75DFFFFF7BEFFFFF755F80220FEF70D
S3150800167001FEFFF70DF810BB5046FFF750FF02209A
S31508001680FEF7F6FE074660B90520FEF7F3FD484665
S31508001690FFF745FFFFF738FF0120FEF7EBFDBDE832
S315080016A0F18F0420FEF7E6FD4046FFF738FF38467F
S315080016B0FFF775FF5846FFF732FFFEF7E3FF2046B0
S315080016C0441E18B9FEF7E3FCFEF784FD00A8FFF7F1
S315080016D076FF0028C8D19DF80000FFF71AFF9DF88D
S315080016E000000A2818BF0D289FD0312804D03228B8
S315080016F0D2D033282CD0B5E70FF22010FFF70FFF12
S315080017000120FEF7B5FE07460FF22410FFF707FF84
S31508001710380004D10520FEF7ADFD4846A0E70420B1
S31508001720FEF7A8FD0FF21C10FFF7F9FEB80648BF32
S315080017300FF21C1005D478064CBF0FF22C100FF2CE
S315080017403810FFF7ECFE3846FFF729FF584687E7BB
S3150800175000275846FFF7E3FE288A40F6A721884265
S3150800176018BF0FF28000F2D1781990F824007F1C78
S3150800177020B1FFF7CEFEFFB2202FF5D3E6E7000033
S315080017800D0A000020620000403CF80300400008F3
S31508001790000000080D0A454D33353831205365726F
S315080017A069616C2F4F544120426F6F746C6F61648E
S315080017B065722076000000000D0A312E2075706CC7
S315080017C06F61642065626C0D0A322E2072756E0D8B
S315080017D00A332E2065626C20696E666F0D0A424CCC
S315080017E0203E20002A2A206E6F20617070202A2A47
S315080017F00D0A00000D0A4F54412075706C6F616424
S3150800180020000000636F6D706C6574650D0A00003A
S315080018106572726F72203078000000000D0A6265EA
S3150800182067696E2075706C6F61640D0A00000000B0
S315080018300D0A53657269616C2075706C6F6164205E
S315080018400000000061626F727465640D0A00000092
S315080018500D0A584D6F64656D20626C6F636B206569
S3150800186072726F72203078000D0A66696C652065A1
S3150800187072726F72203078000D0A6572726F72206C
S3150800188030780000814212D21018401E5118491EA5
S3150800189092B2002A1EBF11F8013900F80139521E0A
S315080018A0F6D1704711F8013B00F8013B521E92B27F
S315080018B0002AF7D1704710B500E0521E92B232B135
S315080018C010F8013B11F8014BA342F6D001E00020C5
S315080018D010BD181B40B210BD81B209B94BF6EF61B5
S315080018E00E4A1180000C08BF4FF6CE205080704774
S315080018F00288130448BF4A405100018010467047C9
S3150800190038B5064C62212046FFF7F2FF054641F23C
S315080019100B01A01CFFF7ECFF684032BD0004002055
S31508001920F0B589B004460020FFF782F90A237F2222
S315080019302048018800A8FFF747F900264FF6FF75EB
S315080019400FF2880701E02A4616B94FF47C4203E0F5
S31508001950022E08BF4EF23F0200A800F031F8761CAE
S31508001960052EF0D3012C03D114237F22124802E05E
S3150800197014237F221148018803A8FFF725F90026BA
S315080019800FF250072A4608E02A46012E08BF4FF6EE
S31508001990C07202D0082E08BF002203A800F010F873
S315080019A0761C0A2EF0D3012C04BF0120FFF740F95C
S315080019B009B0F0BDA41F0008A21F0008A01F000858
S315080019C030F81610F05DFEF7DBBE000010F0B0C070
S315080019D0D00000001120304060708090A0E0000028
S315080019E010B584B00A237F220A48018800A8FFF7A9
S315080019F0EBF84FF6FF74BDF80000A04204BF4FF4A1
S31508001A000170FEF7E7FB2246BDF800101020FEF72E
S31508001A10B7FE1FBDA41F0008F8B50446FEF7ACFFC5
S31508001A20DFF8B80100210160DFF898511521E96057
S31508001A30092101651F21416001210166DFF898012E
S31508001A400088FEF7D3FE00F080F900F043FA00F0B4
S31508001A5078F8DFF88C01DFF88C61DFF88C110978EB
S31508001A6019B902213170032101704FF6FE716961BF
S31508001A70DFF8781109882961696841F0D20169603F
S31508001A8090F90000FEF7A0FFDFF8347197F903001C
S31508001A9000F07AF830780B30C0B2FEF76FFF18B155
S31508001AA04FF40170FEF796FB012C05D12868C00794
S31508001AB00FD500F022F80CE05CB92868C00708D4F6
S31508001AC0286840F001002860C820FFF7DDF80020EC
S31508001AD07872DFF8F840F120206440F2F910E063EC
S31508001AE000F012F92868C00706D54FF6FF70206087
S31508001AF035484FF4E0610160F1BDDFF8F4100A687B
S31508001B002F48437A012B18D092B20A6030494FF415
S31508001B10E0620A602F490A6A520852000A620A6895
S31508001B20520852000A600A6842F002020A604A6ACB
S31508001B3042F001024A620121417270472048407A08
S31508001B4070472C482C494A780B7813EB022202601E
S31508001B50CA788B7813EB022242604A790B7913EB29
S31508001B6002228260CA79897911EB0221C160704725
S31508001B70144900280A6814BF42F0020222F0020241
S31508001B800A601E490870704780B57F280ED1022367
S31508001B907F221B48018800A8FFF716F8BDF8000049
S31508001BA0C00554BFBDF800006FF04A0040B200F10E
S31508001BB09A018905090C134A11600149C87001BDCB
S31508001BC0200400208020004000E100E004A000403E
S31508001BD080E100E0602000401C0400205C1000400A
S31508001BE0660F0020650F0020640F0020680F002094
S31508001BF01C10004098200040580F00203404002094
S31508001C00B01F0008541000404FF4FE52810189B2FB
S31508001C10B020FEF7B5BD80B5374908B14FF0FF30A3
S31508001C204860086000F021F906210920BDE8044053
S31508001C3000F015B938B50120FFF7EDFF044600207E
S31508001C40FFF7E9FF05460120FFF7E5FF4042001BC5
S31508001C5000EB450000B232BD2DE9F04F83B0274CAA
S31508001C60A06A019020680090254D2E68254F48F2FD
S31508001C70607038604CF24C00F8630220A0620120C4
S31508001C80206040F24C484046FEF7FEFF0120E8601F
S31508001C9028600020FFF7B8FFFFF7CCFF82467F20B9
S31508001CA0FFF7B2FFFFF7C6FF8346504600F01EF95E
S31508001CB08146AAEB0B0000F019F98246B6B22E60EF
S31508001CC00020E8600220206000A80088206001A8A3
S31508001CD00088A0620020F8634046FEF7D5FFFE2084
S31508001CE000FB09F01FFA8AF1B0FBF1F080B2401C44
S31508001CF0C003000CBDE8FE8F38100040602000408D
S31508001D0028100040D0100040DFF8000110210163C0
S31508001D10DFF8FC100A6842F001020A60DFF8F410E6
S31508001D2041600160426889324260012202638A3159
S31508001D30C1608160C1688931C16002210163DFF831
S31508001D40D8004FF6FF7101607047DFF8D00045F202
S31508001D506401C1601E21416250210162C821C1612E
S31508001D608165F021C16545F6900141668821816645
S31508001D700621C16644F2066101604FF6FF714160B3
S31508001D80DFF89C0048F2607101604FF4C151416070
S31508001D90DFF89000016841F004010160DFF888006F
S31508001DA0002141707047F0B589B004460D46002100
S31508001DB0032000F03BF804AE1BE0002700F045F8CE
S31508001DC026F8170000F041F800A921F817007F1C33
S31508001DD0082FF3DB04A8FFF771FA0020208021887A
S31508001DE036F8102051402180401C0828F7DB6D1E6C
S31508001DF0A41CEDB2002DE0D100F037F8012009B09F
S31508001E00F0BD0321022000F011B8000000200040B8
S31508001E1084200040440E002000A000404C100040E2
S31508001E20D0100040802000406B0F0020124A136C2F
S31508001E3023F008031364090341EAC01040F00100C7
S31508001E400E4908600820106070470B4801680907AA
S31508001E50FCD5082101600A48006880B2704780B541
S31508001E60FFF7E4FFBDE80140EFE7044801684908C9
S31508001E70490001607047000018A000400470004047
S31508001E80007000403F2201462020FEF779BC000082
S31508001E900A0242EA11214840C0F30311484080EA89
S31508001EA000304101C9B20206D20E41EA0221484079
S31508001EB080B270470A0A4840C0B208214308C007E2
S31508001EC046BF034858401846491EF7D15040704748
S31508001ED02083B8ED08237F22024801880248FEF7CE
S31508001EE073BE00BFB21F0008580F0020002848BF65
S31508001EF0404270472748018A40F6A772914202BFBE
S31508001F00418A4FF47F40014204D102298041C043EF
S31508001F10C00F704700207047F8B504460D461C4EA2
S31508001F2001203070FFF7E6FF18B94FF40170FEF78D
S31508001F3051F91848876A294644F48070B847002141
S31508001F4031700FF2540618B9294644F40070B847A0
S31508001F50805DF2BD2DE9F041044688465600FFF73C
S31508001F60C9FF18B94FF40170FEF734F90948476AF2
S31508001F700023324641462046B8470FF21C0520B9D1
S31508001F803346002241462046B847405DBDE8F08109
S31508001F90D304002000000808000202024B4B464703
S31508001FA0AA07BE07D207DC072A083A083C08EE0843
S31508001FB0F6080080EFBECEFA00000001FFFF0B0016
S31508001FC000000000031800001316191C1F0000006B
S31508001FD0008000000000007F010000FF00010000F3
S31108001FE0000000000000000001000000E6
S7050800006F83
