S02400006170702D626F6F746C6F616465722D7370692D617434356462303231642E73333796
S31508000000000400206F00000885000008850000082D
S31508000010A70B090100000000010201530040000877
S31508000020040B0000E30E0008C1110008AC06000826
S31508000030E70800086B0A0008CD0A000855090008F9
S3150800004031090008450B000837090008810100003E
S31508000050FFFFFFFF09480068202100EA010028B1D8
S315080000600748016842685FEA010D10477047FFF7C5
S31508000070F1FF00F013F800F045F800002C000040EE
S315080000800040000806E000005FEA000D704744489B
S31508000090008870474FF4017000F09CB838B54FF2ED
S315080000A00F04404D00F0C2F828B140F20520288020
S315080000B06C80012032BD3C480068C00613D56888AC
S315080000C0A0421CD1288840F2022188421CBF40F277
S315080000D00621884213D040F2011188421CBF40F223
S315080000E0111188420BD0314C208A40F6A72188424C
S315080000F005D12068FFF7C8FF6068804700BF002069
S3150800010032BD000038B5044672B629480168490868
S315080001104900016000F0D0F8234800680009C107CB
S3150800012054BF2449244902E0CD2201F8012B234A71
S315080001309142F9D32249234A234B03E011F8015B84
S3150800014002F8015B9A42F9D32049214A002301E0CB
S3150800015001F8013B9142FBD340F20521114A53882D
S315080001604FF20F05AB420BD113888B4206D0C0075E
S3150800017006D5180A012818BF022801D1194601E038
S3150800018004B90021064801804CF23C30508000F04A
S315080001905FFA4FF40170BDE8324000F01BB800006A
S315080001A0B80C0020000000202C0000400040000889
S315080001B0FCED00E00000002098000020000400206C
S315080001C0DC130008000400200804002008040020AE
S315080001D0BD0C00200D4930220A600D490A600D4900
S315080001E00A600D4910220A60010A08BF00020B497D
S315080001F008804FF20F004880BFF35F8F0848002140
S315080002000160416007480849016070473020004096
S3150800021030C8004030C0004010E000400000002018
S315080002201C4000400CED00E00400FA050020704771
S3150800023080B500F056FA0121062000F05DFA062086
S3150800024000F08DFA0121072000F056FA072000F089
S3150800025079FA1748016821F01001016001BD000014
S31508000260052800D9704710B5DFE800F01721030FFD
S315080002701C17104C2088411E2180C0B9072000F0A9
S315080002807BFA42F21070208010BD072000F067FA52
S315080002900620BDE8104000F06FBA0620BDE8104001
S315080002A000F050BA0620BDE8104000F058BA10BD5C
S315080002B000BC0040BA0C00202AE038B5054600F01C
S315080002C003FAFA2190FBF1F44FF4F070B0FBF4F066
S315080002D02D1A2DB21E2DBCBF4FF40170FFF77AFF01
S315080002E06A480721016000214160816068494FF032
S315080002F000720A6005FB04F1C91C8908491E4160A1
S3150800030031BD6548016841F0010101600121416084
S315080003106248512101607047002070472DE9F84373
S31508000320804640F2DC594C465A48B0F900705748A6
S315080003305C4D5B4E012F1ADA0221B18029600068F4
S31508000340C00348BF00F08BF8A86900F00300032833
S315080003505DD0002F03D5A86940F00200A861404689
S31508000360FFF7DAFF04001AD1002F50D54DE04FF6FB
S31508000370FF77B188B9421CD102237F224A480188F7
S31508000380301D00F00FFAB088B84204BF0220B080D2
S31508000390A869800703D4A86940F00200A861012073
S315080003A07070B088286020B2FFF787FF2046BDE846
S315080003B0F283A9698907EED50068C00348BF00F033
S315080003C04EF8707808B14846F1E7A86810F00100C1
S315080003D0A968B28803D10F2A08D2521C06E08907F9
S315080003E004D5F17811B1032A28BF521EF07092B2D3
S315080003F0022A38BF0222B2802868B1888842CED144
S31508000400A86900F00300032801D0FFF77AFF00204F
S31508000410CDE710B504462548017869B9C07807289C
S3150800042018BF092813D0032818BF11280FD013287E
S315080004301CBF15280B280AD01D48016841F4807195
S31508000440016004E000F0E2F90620FFF765FF2046A8
S31508000450FFF764FF0028F5D110BD0220D9E70B4845
S31508000460002141608160016821F0020101600848AD
S315080004704FF0007101600A48417801B9704780B5AC
S31508000480002141700620FFF747FF01BD10E000E09C
S3150800049004ED00E0DA1300081C400040008000402C
S315080004A00004002004400040D813000896070808F6
S315080004B03840004000787047002101608180C18083
S315080004C001817047F8B504460D461646002710E028
S315080004D02068803020600020E08080202081A0886D
S315080004E0401CA080E088411CE1800019807A78557C
S315080004F07F1CBFB2B7420CD2E08821898842F1D36B
S31508000500802204F10A01206800F0AFFA0028DFD043
S31508000510F2BD0020F2BD0020704710B5044600F079
S31508000520E7F82046BDE8104000F034BB2DE9F0435B
S31508000530A5B000F015FB00F0DBF800F06BFB01211D
S3150800054000A800F06FFB404C04F1800500206860AD
S31508000550A86000F0EDF900280FBFE8608168E9603F
S315080005604088A4F8800000A800F020FC070046D1C7
S31508000570BDF80420BDF8060000A9401800F20A06D6
S315080005805FFA82F894F8800080070FD5E96869B1A8
S31508000590686808EB00024B1E22EA030710B1A86838
S315080005A0B84203D2384600F0CDFAAF60424631462B
S315080005B0686800F08BFA07000FD142462146686842
S315080005C000F053FA002000E0401C404505DA015DC2
S315080005D0825D9142F8D0832706E0686840446860E7
S315080005E0002FC0D01B2FBED00420FFF739FE0121F3
S315080005F0384600F063FB384625B0BDE8F083172F70
S31508000600F0D10020F8E770B5DAB0044636A8FFF74F
S3150800061053FF012000904FF402630C4A36A901A843
S3150800062000F05FFC0FF284050FF2740600F060F824
S31508000630002C14BF3246002201A9284600F0C0FD4E
S315080006405028F3D05AB070BD280C002008040020AA
S3150800065080B5FFF702FFFFF7EBFD00F044F918B18C
S315080006604FF40170FFF7B6FD00F042F8FFF70FFDF3
S3150800067040F2011188421CBF40F21111884207D08E
S3150800068040F2052188421CBF40F20321884201D16D
S31508000690012000E0002000F0B3FD002002BD0000AC
S315080006A04513000881130008B5040008C5040008AE
S315080006B01705000819480068C00702D442F6E0602A
S315080006C0704745F6C050704780B5FFF7F3FF1449E9
S315080006D0096801B9400802BD80B5FFF7EBFF40087D
S315080006E002BD1048012181604EF6BE21416000E03E
S315080006F00D4801210160704710B582080FF22C03DE
S3150800070053F82220136800F0030080000F24844069
S31508000710A34301FA00F01843106010BD1C400040C6
S3150800072020400040006000400860004000B00040E3
S3150800073004B0004000B2004004B2004000B40040DB
S3150800074004B40040C108032908D2C1104902124A5C
S31508000750012300F0070003FA00F050507047C10863
S31508000760032908D2C11049020C4A012300F00700E8
S3150800077003FA00F050507047C10803290BD2C11084
S31508000780074A02EB41210A68012300F0070003FA31
S3150800079000F050400860704714B0004010B00040A8
S315080007A00CB0004030B583B0044610467F2808BF19
S315080007B00020B1F5004F1AD108237F2240F6120116
S315080007C000A8FFF7EFFF08220FF2380100A800F093
S315080007D074FD30B908237F2240F2A27100A8FFF702
S315080007E0E1FF082200A9204600F04EFD37BD1A4653
S315080007F0034D294300FB0311204600F045FD37BD94
S3150800080000000808FFFFFFFFFFFFFFFF70B5064661
S31508000810274C2568FFF760FFFA2190FBF1F070433B
S315080008202F303021B0FBF1F0032809D3616D41F078
S31508000830010161652168491B0903090B8142F9D346
S3150800084070BD38B50C4620B1012818D003282BD026
S315080008502CE0184D8CB1184884421CBF4FF4017027
S31508000860FFF7B8FCFFF738FF4FF47A714843B0FB3F
S31508000870F4F0401EB0F5005F0ED2286014E05CB1BB
S31508000880FFF72AFF4FF4FA61620801FB0020B0FB6C
S31508000890F4F0B0F5003F01D3202032BD074900F03F
S315080008A001024A6040080860002032BD212032BD9E
S315080008B038200040100004E020A1070068C8004066
S315080008C09B49086048680007FCD50868704798493E
S315080008D0FF2008604A681207FCD54A68920748BF95
S315080008E00868C0B2704710B5924C41F649102060AE
S315080008F091480021C16001614160102141600221D7
S31508000900016044F62060FFF781FF606940F0080047
S3150800091060619F20FFF7D4FFFFF7D9FF216941F0F7
S31508000920080121611F2801D1002010BD862010BDB5
S315080009300FF2142070470020704710B500F045F8F4
S31508000940D720FFF7BDFFFFF7C2FF216841F0080176
S31508000950216010BD80B5FFF7F0FF8028FBD301BDED
S31508000960F8B505460E461746FFF7E7FF8028FBD37E
S3150800097000F02BF8D220FFF7A3FF6802000EFFF75E
S315080009809FFF280A4006000EFFF79AFFE8B2FFF716
S3150800099097FF00F018F800F016F800F014F800F0C9
S315080009A012F805E0FFF7A4FEFFF791FF06F8010B22
S315080009B03846471E80B20028F4D1206840F0080067
S315080009C020600020F2BD00207AE75C4C606840F0A9
S315080009D00800606070472DE9F84306468846914648
S315080009E0FFF7ABFF8028FBD3300A4400F50B534FC3
S315080009F0B9F5807F17D2786840F0080078605320F0
S31508000A00FFF75EFFE8B2FFF75BFFE0B2FFF758FFBC
S31508000A10F0B2FFF755FF386840F008003860FFF776
S31508000A208CFF8028FBD3786840F008007860822025
S31508000A30FFF746FFE8B2FFF743FFE0B2FFF740FFD4
S31508000A40F0B203E0FFF754FE18F8010BFFF738FF82
S31508000A504846A0F1010980B20028F3D1386840F071
S31508000A60080038600020BDE8F2832DE9F843044603
S31508000A700D461646324884423ABF311981428520CE
S31508000A8012D240F201194FF48078200607D0200AC6
S31508000A90000200F58070814203D3071B02E04E4531
S31508000AA004D237461EB90020BDE8F2834746BAB2DB
S31508000AB029462046FFF754FF0028F5D1F61BB8B2A1
S31508000AC004440544B6B24E45F0D2EAE72DE9F843A8
S31508000AD004460D4616461A4884423ABF31198142E1
S31508000AE0852012D240F201194FF48078200607D0EB
S31508000AF0200A000200F58070814203D3071B02E03A
S31508000B004E4504D237461EB90020BDE8F283474653
S31508000B10BAB229462046FFF75EFF0028F5D1F61B34
S31508000B20B8B204440544B6B24E45F0D2EAE700002E
S31508000B303CC0004000B0004054C0004010B0004027
S31508000B400100040088207047020100000000000030
S31508000B500001000000000400CC130008010000009A
S31508000B6080B54FF4E1310120FFF76BFE26480221DC
S31508000B7081600121016009210920FFF7BDFD0421DB
S31508000B800A20BDE80440FFF7B7BD204800684006C4
S31508000B90FBD570471E49CA685207FCD508607047DE
S31508000BA010B5044603E014F8010BFFF7F3FF2078AD
S31508000BB00028F8D110BD10B5044620090A282CBF14
S31508000BC037303030C0B2FFF7E5FF04F00F000A28CF
S31508000BD02CBF37303030C0B2BDE81040DAE70B48DA
S31508000BE0006810F0020018BF0120704710B50446CF
S31508000BF0FFF7F5FF20B1064800682070002010BDF9
S31508000C00012010BD0000000054C8004048C800403C
S31508000C103CC8004080B500A8FFF7E8FF0028FAD0D6
S31508000C2001BD0000017001224270827001290CBFCB
S31508000C308021402181800021C18001811D480160F9
S31508000C400E218162016821F01001016000214163D3
S31508000C5041627047F8B504460D46164616484FF0E9
S31508000C60FF310160134FFE6200207862386840F059
S31508000C7001003860FFF73CFD012C19D16DB9FFF76B
S31508000C80AEFF78B9786AB042F4D3002EF2D038684D
S31508000C904008400038601620F2BD2846FFF7A6FF38
S31508000CA00028EFD138684008400038600020F2BDBF
S31508000CB00120F2BD00F0004000A8004038B5044607
S31508000CC00D4600F009F800F007F82A4621461820D4
S31508000CD0BDE83840FFF721BC2A4621461820FFF711
S31508000CE01CBC30B583B00446002020814AF6B432D5
S31508000CF000A92078FFF7AEFF08B11C203EBD9DF87D
S31508000D000000032818BF182801D118203EBD042862
S31508000D1001D117203EBD012801D021203EBD002566
S31508000D2000E06D1CEDB2A188091D8D420BDA40F278
S31508000D30DD22281900F10A012078FFF78BFF002829
S31508000D40EFD026203EBD0025002006E00146EDB284
S31508000D502819007B00F0C2FA6D1CA188EAB28A4203
S31508000D60F4D3A27AE37A9B18FF2B01D022203EBD4A
S31508000D700B191D7BB5EB102F01D023203EBD5B7BE5
S31508000D80C0B2834201D024203EBDA078824207D05B
S31508000D90401EC0B2824201D127203EBD25203EBD5D
S31508000DA0881C20810220E08000203EBD38B504461C
S31508000DB06078012804D023D3032855D018D31FE020
S31508000DC02078012811D13B254320FFF7E3FE40F2A6
S31508000DD0DD2200212078FFF73DFF30B12846451E69
S31508000DE0C0B20028F0D11B2032BD0220607010E08E
S31508000DF0FFF710FF00F03AF8A078401CA07008E052
S31508000E00182032BD2278A078411EC9B20620FFF705
S31508000E1084FB2046FFF765FF050018BFFFF7FAFEBB
S31508000E20272DEFD0A8060BD52278A1781520FFF735
S31508000E3074FB002DEDD10320FFF712FA002032BD16
S31508000E40680603D4182D18BF1C2D07D1217828460B
S31508000E50FFF734FF04206070284632BD172DE8D10D
S31508000E6000F004F803206070172032BD2278A178BC
S31508000E700620FFF752BB0000F8B504460D46164695
S31508000E801F4607E03046A047294600F039FA0546CE
S31508000E907F1E761CBFB2002FF4D12846F2BD38B5A6
S31508000EA00C46154605E0014614F8010B00F028FA31
S31508000EB06D1EADB2002DF6D132BDF8B504460D460D
S31508000EC016461F463A46314628682368984704005E
S31508000ED005D13A463146E868FFF7E1FFE860204663
S31508000EE0F2BD10B5029C84720381426001604FF026
S31508000EF0FF31C1600021017410BD2DE9F84F044689
S31508000F008B461E469BF81B70802F28BF8027D0680B
S31508000F10A649884250D1002E4CD0B06800904FF0B8
S31508000F20FF384FF000090BEB490A9AF848500FE0D2
S31508000F30FF2D16D0FFF7DCFB4FF40063E80240F004
S31508000F40006241460098FFF797FF8046681CC5B2C5
S31508000F509AF84900A842EBDA09F10109B9F1060F36
S31508000F60E1DBDBF844006FEA0801884224D1A06877
S31508000F7000BA7A08594673689847C8B9E06805BA46
S31508000F80A06802BA3B464FF0FF31B068FFF774FF1E
S31508000F90C04385420CD140F6A720ABF81000A068E4
S31508000FA000BA01220BF1100110307368984708B196
S31508000FB0422002E0172000E04320BDE8F28F2DE929
S31508000FC0F84F80460D469146D5F804A02889ADF815
S31508000FD0000005F1140606F11007042352464046A0
S31508000FE0FFF76BFF002824D1BAF8000040BA1FFAB1
S31508000FF080FBBAF8020040BA84B2E00748BF462030
S3150800100075D4B4F5026FC8BF4E2070DC002C6DD0C5
S315080010105FEA0B000AD04FF60441BBEB010000F073
S31508001020AD80FF3865D0FE3863D0BDE0287C08B1B6
S3150800103051205CE08D2C28BF4F2058D22346321D04
S3150800104000F0BBF8002852D1FA7E802A28BF8022F9
S3150800105002F10C00844201BFB08840BA00F47F4018
S31508001060B0F5007F3ED1F08840BA4EF25031884242
S3150800107002BF388A40F6A721884202BF788A00F460
S315080010807F40B0F5807F2DD1B06800BA4849C9695C
S31508001090884227D14648008B40F2032188420BD16B
S315080010A0788AB0F5847F1DD3F86D41051AD1414978
S315080010B0081AB0F5603F15D84FF6FF70388206F16A
S315080010C010014FF0FF30FFF7EAFEF16809BAC9438D
S315080010D0884204BF387E042804D1787E0B2818BFBE
S315080010E0062801D0452002E0012028740020BDE82A
S315080010F0F28F287C002843D0042300F05DF80028EE
S31508001100F5D1DAF8000006BA201F84B22848C0696B
S31508001110864238BF4820EAD3A019796D884228BF8D
S315080011204920E4D24FF6035083450DD1B9F1000F9B
S315080011300AD031460220D9F80020904720B14A202B
S31508001140D5E7E01B84B2BE19002CCFD0BDF800004D
S315080011508442B4BF274607463B4600F02DF80028D0
S31508001160C5D1B9F1000FECD07A0851463046D9F806
S31508001170043098470028E4D04B20B8E7287C08B903
S315080011804120B4E7042C18BF4C20B0D104236A6868
S3150800119000F013F80028AAD14B462A4639463046AD
S315080011A001B0BDE8F04FA8E64420A0E7E320BBDE87
S315080011B00000000800E003085246294640467CE63F
S315080011C070B504460D4616462889C10701D48028FD
S315080011D003DA4F2070BDA87A78B9324629462046E8
S315080011E0FFF7EDFE0028F6D0172807D128686168B2
S315080011F08847172802D1002070BD502070BD000016
S3150800120010B504460020FFF72BF824BB0020FFF793
S31508001210FAF950B90120FFF7F6F930B90520FFF7BA
S315080012201FF840F20120FEF7D5FF0420FFF718F853
S315080012300120FFF715F840F20320BDE81040FEF73D
S31508001240C9BF0FF23400FFF7ABFCFFF79EFC40F274
S315080012500220FEF7BFFFFFF769F90400F1D00FF28D
S315080012602000FFF79DFC2046FFF7A5FC01A0FFF72D
S3150800127097FCF0E70D0A00000D0A4F6B0D0A0000F7
S315080012800D0A455252200000814212D21018401E03
S315080012905118491E92B2002A1EBF11F8013900F8EA
S315080012A00139521EF6D1704711F8013B00F8013B8F
S315080012B0521E92B2002AF7D1704710B500E0521EAE
S315080012C092B232B110F8013B11F8014BA342F6D0A5
S315080012D001E0002010BD181B40B210BD0A0242EA08
S315080012E011214840C0F30311484080EA003041010B
S315080012F0C9B20206D20E41EA0221484080B27047BE
S315080013000A0A4840C0B208214308C00746BF034836
S3150800131058401846491EF7D1504070472083B8ED0B
S315080013202748018A40F6A772914202BF418A4FF4C4
S315080013307F40014204D102298041C043C00F704753
S3150800134000207047F8B504460D461C4E0120307043
S31508001350FFF7E6FF18B94FF40170FEF73BFF184890
S31508001360876A294644F48070B847002131700FF225
S31508001370540618B9294644F40070B847805DF2BD92
S315080013802DE9F041044688465600FFF7C9FF18B90B
S315080013904FF40170FEF71EFF0948476A00233246DC
S315080013A041462046B8470FF21C0520B933460022AD
S315080013B041462046B847405DBDE8F081BC0C002098
S315080013C000000808000202024B4B464741543435D8
S315080013D04442303231440000EE08C05D000000018E
S309080013E0FFFF0000FD
S7050800006F83
