S01400006D6F62696C652D73656E736F722E733337A1
S31508002000B8270020115801088D5701088F57010875
S31508002010A70A080100210008040503AC0153810141
S3150800202000000000000000000000000000000000A2
S315080020300000000000000000000000000000000092
S315080020400000000000000000FFFFFFFFFFFFFFFF8A
S31508002050FFFFFFFF00E0010800000000000000008D
S31508002060FFFFFFFFFFFFFFFFFFFFFFFFFFFFFFFF72
S31508002070FFFFFFFFFFFFFFFFFFFFFFFFFFFFFFFF62
S31508002080F02F002000000000EB2F0020EB2F00208F
S31508002090B8270020FC6101084C5A0108581E002088
S311080020A03805002000000208003000206F
S31508002100B8270020115801088D5701088F57010874
S315080021109357010891570108955701080C5801086B
S315080021200C5801080C5801080C5801080C580108ED
S31508002130975701080C580108FD5901086D4C00080D
S31508002140AD3101080C580108C53400080C580108BF
S315080021505BBE0008017300080C5801080C580108FA
S31508002160D1670008D9420008973D0008D56F0008D6
S315080021700C5801080F7400086D7400080C58010803
S31508002180097E00080C5801080C5801080D5801086A
S315080021907047002A1CBF022A042A01D1032070476F
S315080021A045480078704770477047704770477047D2
S315080021B0704770476C2070476C2070477047002046
S315080021C070477047704700013C49405C704710B53E
S315080021D03A4A002301E05B1C1032394C2478DBB202
S315080021E0A3420FD214788442F5D1506802880A8037
S315080021F042884A8002790A7142794A7180798871DF
S31508002200012010BD002010BD30B52C4B002401E084
S31508002210641C10332A4D2D78E4B2AC420CD21D78DA
S315080022208542F5D111B10129F2D101E0986800E0A3
S31508002230D86830F8120030BD002030BD70477047AE
S31508002240704770470020704700F0FEB938B504465D
S3150800225043282FD044280ED0452806D0462818BF34
S3150800226047280CD04D2825D01CE001F00CF801F0C9
S315080022700AF801F008F8BDE8314001F004B8114D3C
S315080022802878B8B901202870002001F06BF8472C8F
S315080022900CBF40F6010040F6020001F0F3F80020FA
S315080022A0287031BD4FF452710FF21C00BDE834405E
S315080022B001F0B8B931BD0000C32F0020C4280020A2
S315080022C0C2280020C42F0020656D6265722D636FD9
S315080022D06E66696775726174696F6E2E63000000B9
S315080022E0DFF8D43433F810001040C840704730B5D2
S315080022F0DFF8C8340FF2745434F810409C60DFF8E5
S31508002300B84434F81050954311402943D960022245
S315080023101A6000221A6024F8101058680028FCD1A8
S3150800232030BDDFF89C04DFF89C148A780AB1497836
S315080023300FE089566FF008029142B8BF302108DBDA
S31508002340C16D39B140F24A31C26DB1FBF2F189B2C1
S31508002350C91E01607047E0B50A237F22DFF86804CA
S3150800236000F062F84FF6FF72BDF806100D20FFF771
S31508002370BEFF07BDF8B50546DFF84844B5F5004F7A
S3150800238019D102237F22DFF8440400F04DF8BDF886
S315080023900000000AFF2814BF002818206070BDF846
S315080023A000000006C00E10281CBF001D00F091F9A1
S315080023B0BDF80000C543E07808B1002005E0A08913
S315080023C0ADB26840C00701D50120E070A58105F0CF
S315080023D00106C5F34007DFF8F803016841F4004138
S315080023E001604FF440520FF2A84000EB46004078D7
S315080023F0010389B20220FFF77AFF304601F026FA78
S315080024004022B90100F0FCF92D06A80E00F00100E3
S315080024103843A070FFF785FFE07818B1FFF79BFFF8
S315080024200020E0700020F2BD018800A801F084BAFF
S315080024302DE9F04F87B0DFF89C53287804900B38C5
S31508002440C0B203900423039A0B2100A801F0EDFA09
S315080024509DF800008DF80A009DF801008DF8090026
S315080024609DF802008DF808009DF803008DF8050018
S31508002470D94E3078012804D16878471EBF41FF0F2E
S3150800248000E0012701F056FD80469DF90200A8F1FB
S315080024900A0408F10A0A5045B6BF84424FF0010BF8
S315080024A04FF0000B012003998840ADF806009DF80F
S315080024B00100000604D4A888BDF80610084201D019
S315080024C04FF0010B01F0B4FD9DF8030000060AD495
S315080024D0E888BDF80610084205D19DF90000504568
S315080024E0B8BF844202DB4FF0010901E04FF0000952
S315080024F04BEA070059EA000000F09B80B7480068DD
S3150800250000F002008DF80400DFF8D4A2DAF8000023
S3150800251000F4E0600590B3484FF4E06101600020E4
S3150800252002F074F902F051FCAF4CA7B1687850B1CB
S31508002530AA48006840084000A84908600120307091
S3150800254002F027FD07E0206840F40050206020686C
S3150800255020F480502060307801280CD102F07CFEEF
S315080025609E48006840F001009C49086000203070D1
S31508002570642002F00EFD2FB1687818B90498C0B22D
S3150800258002F00DFF687838B1206820F4805020608A
S31508002590206840F400502060BDF80600C643BBF131
S315080025A0000F08D002F0E8FF8DF801008DF80280D0
S315080025B0A8883040A880B9F1000F08D003F083F846
S315080025C08DF803008DF80080E8883040E8809DF992
S315080025D000009DF90A10884202BF9DF801009DF887
S315080025E0091088420BD19DF902009DF9081088420E
S315080025F002BF9DF803009DF80510884206D0042303
S3150800260000AA0399C9B20B2001F020FA0598CAF866
S31508002610000001F051FA9DF8040002F0F7F803F003
S3150800262076F9687828B148F260702060642002F074
S31508002630B0FC9DF8010002F009FF9DF8030003F0C5
S315080026403DF807B0BDE8F08F80B501F06FFCBDE836
S315080026500140EDE601F06ABC70B50646A6F10B042A
S3150800266002F037F80546A6F10B00C0B2102801D3D0
S315080026708A2070BD5D488168090702D40068C007D2
S3150800268001D58C2070BD5348067059490A680C2A32
S315080026900ED0A4B20FF26C1232F8242090F908007A
S315080026A08018C861FFF7C4FE012D08BF01F0A5FF19
S315080026B0002070BD10B5044601F038FC2046BDE880
S315080026C01040C9E74348007870473E4890F9000033
S315080026D070472DE9F04186B006466FF02A0086421B
S315080026E046DB14237F224348FFF79EFEBDF8100001
S315080026F04FF6FF71884203D0400448BF012506D42F
S315080027003F2200211020FFF7EBFD044600252D4847
S31508002710394906F12B02D2B22F2A1AD213220FF206
S31508002720241300E0521ED2B213F91270BE42F9DB2E
S3150800273003EB420676780E6013F81210017000203B
S31508002740002680460327ADB14FF6BF72BDF81010BC
S3150800275029E0092E0CDA325C0A60067014237F22FF
S315080027602648FFF761FE03200126B0462827EAE738
S315080027708B201DE04FF46052C10200F041F84FF47F
S31508002780E062310200F03CF880224FEAC81100F0FE
S3150800279037F884F020003C18A4B2402C28BF3F2408
S315080027A03F2284F0200100F02BF8FFF7BAFD002045
S315080027B006B0BDE8F0810000602C0020E81000405B
S315080027C064100040182900201A5F0108245F0108D8
S315080027D01C1000400C2900204929002080200040B8
S315080027E000E100E080E100E0D010004060200040F9
S315080027F0AC100040165F0108C0100040185F0108C1
S315080028000B2074E5AA212900552329000025280054
S31508002810AA26270055282700002A2600AA2B2600C4
S31508002820552D2500002F2400AA30240055322300F8
S3150800283000342200AA35220055372100003920002D
S31508002840AA3A2000D500E601EC02EF03F204F405EB
S31508002850F506F707F808F909FA0AFB0BFC0DFD0F50
S31508002860FE11FF1300160119021C031F10001100A8
S3150800287020003000400041005000600070008000D9
S315080028809000A000B000C000D000E000F0000000FA
S315080028900000010310B5DFF8643ADFF8644A2488BB
S315080028A0001B03EB4000002304E030F8134021F836
S315080028B013405B1C9342F8DB002010BD2DE9F04164
S315080028C082B004460D4616460027DFF8308A01E036
S315080028D0B81CC7B2B7421ADA78194078795D01EBA5
S315080028E00020ADF80000012200A907EBD77004EB21
S315080028F06000DFF80C3A1B88C01A08EB400003F0AA
S3150800290088F80028E4D0FFF7A1FC002000E00120A9
S31508002910BDE8F681F8B504460E46154600270DE0D3
S3150800292000F019F8761C04EB4700BDF80010090AF8
S315080029304170BDF8000004F817007F1CB7EB550F6F
S31508002940EEDBE80706D500F006F82819BDF80010F2
S3150800295000F8011CF1BD012200A9B0B29AE7DFF820
S315080029609C19DFF89C291288801A01EB4001022085
S3150800297003F016B8DFF88C19415CDFF88C29825C05
S31508002980DFF88839C05C10B102F5997292B241EA53
S31508002990C21080B2704710B5DFF8743903EB4002F5
S315080029A0DFF86049005D012801D1104610BD108886
S315080029B0081803EB400010BD38B50C46DFF854196B
S315080029C00D782A462146FFF765FF208800281CBF98
S315080029D04FF6FF7188420AD0012000E0401CC0B2C1
S315080029E0A84206D234F8101022889142F6D0002068
S315080029F032BD012032BD2DE9F04F9DB0894604460F
S31508002A00DFF81479002038707880DFF8100900881C
S31508002A10ADF8000008A9FFF7CFFF824601207870BD
S31508002A20DFF8FC080588DFF8FC08B0F80080BDF878
S31508002A300060DFF8CC080088ADF8040083460AA9D0
S31508002A40FFF7BAFFD0B1BAF1000F43D04FF6FE70C8
S31508002A50BDF82010814204D1BDF82800012806D10E
S31508002A600FE0012904BFBDF82810814232D0BDF815
S31508002A702000BDF8281088422CD202E0BAF1000FD7
S31508002A8027D0002078703046CDF808B00795CDF8E5
S31508002A901480DFF8801809788DF806100818ADF844
S31508002AA0100000F05DFABDF81000FFF7F3FEDFF83E
S31508002AB0780800880690BDF80200000B4FF6FF78EC
S31508002AC09DF80610884218BF0F2800D114B30025B8
S31508002AD015E0012478780128D5D158460296CDF814
S31508002AE01C800595D5E7069805FB00F4BDF804009B
S31508002AF000F028FCBDF8000000F024FC6D1C9DF8D1
S31508002B0006008542EFDB012038704D20FFF79EFB5B
S31508002B100025FBE0BDF8105000F022FA2846FFF722
S31508002B20B9FE6E1CBDF80200C043C0B2ADF8020083
S31508002B30DFF8F8070588BDF80200A84218BF012487
S31508002B404FF0000A1FE0401CC1B2A94217D2C0B21A
S31508002B508346DFF8DC1731F81B10BDF80E209142CA
S31508002B60F1D1FFF707FF4FF680710840BDF80C104A
S31508002B704FF680721140884208BF0BF809A00AF187
S31508002B8001001FFA80FABDF80200824507DA022220
S31508002B9003A9B0B2FFF77EFEB61C0020D4E70021D9
S31508002BA000E0491CA94219DA11F809008842F8D050
S31508002BB0012413E02AF81160012201A9BDF810309A
S31508002BC003EB4000401C00F0D0FABDF80400C0F347
S31508002BD0C710401C00EBD07006EB6006DFF830A784
S31508002BE0B6B20598864213DA012200A93046FFF7E5
S31508002BF051FEBDF8000040450AD0761C000ABDF813
S31508002C00001001F07F02BDF80210884202DB0124A1
S31508002C1000252BE0002100E0491CA942CCDA11F876
S31508002C2009308342F8D1C9B2FF29C5D07F2A0CBF23
S31508002C304FF0000C9446DFF8CC36CB5C9C4509DA9D
S31508002C40BDF800C0CCF3C01CDFF8C0E611F80EE0F2
S31508002C50F44501D00124AFE7012BABD07F2A08BF8A
S31508002C6000223AF811105118A4E76D1CDFF8C406C3
S31508002C700088854204DA3AF815004045F5D1012462
S31508002C807E80B5B2059885420ADA012200A928464F
S31508002C90FFF700FE6E1CBDF800004045F1D034E792
S31508002CA0002CFCD101220CA9029800F05EFABDF8AE
S31508002CB0300040450DD105E0401C80B2202813D3D2
S31508002CC02034A4B20799029A891A8C4205DB01209E
S31508002CD0387000201DB0BDE8F08FA51820220CA979
S31508002CE0A8B2FFF7D7FD00200CA931F8101041450E
S31508002CF0E2D0A8B2FFF733FE203CA4B2E0E7029880
S31508002D00069905FB010000F01EFB6D1C9DF80600E8
S31508002D108542F4DB01203870414600F043F818B1CB
S31508002D2000F022F90028D4D10120D3E72DE9F8458F
S31508002D3004460D4616469A4631462846FFF72BFEA8
S31508002D40B0F80080DFF8C075DFF8E01509888D4215
S31508002D500AD27F2E08BF0026DFF8A805285C86421F
S31508002D6002DAE85D824503D040F2864100F0F9F9BF
S31508002D70DFF89805285C68B14146284600F028FA2D
S31508002D80E95D012908BF20700AD0022914BF206016
S31508002D90208005E0524641462046BDE8F845B9E59B
S31508002DA0BDE8F1852DE9F34F83B0DFF854050488B3
S31508002DB0DFF86405407800281ABFDFF86005008848
S31508002DC02046DFF8501509780D18ADB2DFF85C0516
S31508002DD00088ADF80800C043C0B200EB013000F52A
S31508002DE05060ADF8020000F0CAF92B1B00F0C3F9D9
S31508002DF06E1CB6B2002832D10025DFF8347510E013
S31508002E00E8B2FFF7B7FDADF8040037F81500ADF8DE
S31508002E100600022200F0ACF9002820D1B61CB6B292
S31508002E206D1CBDF808008542EADB002500E06D1C34
S31508002E30BDF80800854280F28E804FF0000A1AE03D
S31508002E4000F08EF81FFA89F0FFF724FD09F1010951
S31508002E5000F095F9BB191B1B00F08DF9002874D1F9
S31508002E607F1CFFB25F45EBDBDFF8CC04285C8619D4
S31508002E70B6B20AF1010ADFF88C0415F800B05FFA59
S31508002E808AFADA45D3D25146E8B2FFF784FD80467E
S31508002E90B8F80090DFF874042F5CF80140EA0520C2
S31508002EA0ADF80000BBF1010FBDF800000CBF40F003
S31508002EB07F004AEA0000ADF80000DFF84004311B45
S31508002EC000EB4100711C89B201914FF6FF718945EB
S31508002ED01EBFBDF80010BDF81020914218D19DF80C
S31508002EE00C100029C5D0012200A902F092FD019E0E
S31508002EF058BBA8F80060DFF810042A5CDFF83C0429
S31508002F0050F82510B0B2FFF7D9FC0028ACD11FE065
S31508002F10DFF8F413695C491C01EBD171C9054FEA66
S31508002F20116B012200A902F074FD019E68B9A8F888
S31508002F300060002F95D04946E8B200F049F90190A3
S31508002F405A4600F015F900288ED0FFF77FF90020C1
S31508002F5005B0BDE8F08FDFF8C00346800120F7E72B
S31508002F6001220DF1020170472DE9F04182B0DFF828
S31508002F70AC030688DFF888030488DFF89C53687872
S31508002F80002812BF204630462646012200A9FFF730
S31508002F9081FCBDF8000001280CBF4FF6FE70401EEC
S31508002FA0ADF80000DFF86C030778DFF85083384681
S31508002FB0471E70B1012200A9BFB2B819001B08EB61
S31508002FC0400002F026FD0028F1D0FFF73FF9002067
S31508002FD007E06978481E8041C00F68700020287095
S31508002FE00120BDE8F6812DE9FE4F83460C461746BB
S31508002FF09A4600208DF80400012539465846FFF701
S31508003000CAFC81465E46C94909888B450AD27F2F84
S3150800301008BF0027BB48305C874203DABA48305CF1
S31508003020824503D040F2A95100F09BF8BA4F787850
S3150800303020B1BB48B0F80080B14803E0B948B0F801
S315080030400080B6480088397849B97988081ABC4991
S3150800305009888842B4BF43204420FFF7F7F8B9F837
S315080030600010AA48305C78B1584600F0B1F8BAF1B9
S31508003070010F08BF217804D0BAF1020F0CBF2188CE
S31508003080216881426BD02BE002914FF0000B23E0C0
S31508003090012200A902980BEBDB7300EB630000F03A
S315080030A064F80BEB040040781BF8041001EB0020D1
S315080030B080B2AAF101018B4505D1C0B2BDF8001056
S315080030C0C9B2ADF80010BDF80010884218BF002537
S315080030D00BF102005FFA80FBD345D9DB002D3ED108
S315080030E0FFF73EFFB9F80000401E00F03EF8924890
S315080030F0355C7888A8F10101491B814200DB60B97B
S31508003100387808B945201CE0BDF802100020FFF702
S3150800311049FE20B301208DF804007888401C788089
S315080031207949725C214680B2FFF7C8FBB8B100F056
S3150800313026F87B885B1E724C24881B1B00F01BF844
S3150800314010B1FFF783F80AE09DF8040010B1FFF705
S315080031500BFF20B17888A9F8000028187880BDE808
S31508003160F78F0FF2E81000F05DBA80B2FFF792BB56
S3150800317001A96248331B00EB430002F04ABC012256
S315080031800DF102015D48704770B582B0044600250E
S315080031901926012200A9A0B2FFF77CFB641CBDF822
S315080031A0000048B14FF47F41401A02D0FF3806D0DC
S315080031B007E0681C40B276BDAD1C761EE9D168B240
S315080031C076BDBDF80000C0B200B96D1CE843F1E752
S315080031D038B50C46002100914B49455C2A462146E4
S315080031E000A8FFF797FB681C00EBD07004EB6000A3
S315080031F080B2FFF7C9FF002848BFC043009940B214
S31508003200401832BDF0B583B004462546404830F82C
S315080032101560464909888C4202D23C48285C18B990
S3150800322040F2A961FFF79DFF37482D5C681C00EB4B
S31508003230D07006EB6007B8B2FFF7A6FF322814D2A3
S31508003240C1074CBF00214FF47F41ADF8041001229D
S3150800325001A92A4BBFB207EB6000294F3F88C01B64
S3150800326003EB400002F0D5FB60B131462046FFF77C
S31508003270AFFF0090401C00902B467F2200A92046F5
S31508003280FFF7B1FEF7BDF8B5234C2078002832D1F8
S315080032901B480588607800281ABF204806882E46ED
S315080032A01C4807783846471E02281DD3012200A964
S315080032B0FFB2B819FFF759FFBDF800000028F1D092
S315080032C01948008807FB006000F03DF80020ADF8BB
S315080032D00000012200A90948BB195B1BFFF74BFF39
S315080032E048B1FEF7B3FFF1BD3046FFF738FBFFB232
S315080032F00FB901202070F1BD0000000000E00108B0
S31508003300A45C0108A05A01088C5A0108785A0108D9
S31508003310C02A0020A05C0108AC2F0020A85C010888
S31508003320A65C0108AA5C0108A25C0108AE5C01085B
S31508003330505A0108B05C0108B45C0108505C0108E9
S31508003340AC5C0108201880B2FFF709BB73696D2DC4
S31508003350656570726F6D2D696E7465726E616C2E1F
S31508003360630000002DE9F94786B01422FF2100A862
S3150800337002F0D7FBDFF894905422FF21484602F06A
S31508003380D0FB28254FF0140A00270FF29008204892
S31508003390385C411C01EBD1714C101E497E5CFF283C
S315080033A003D16F21404600F03DF97F2E03D37021EB
S315080033B0404600F037F91848385C00B11934601CEB
S315080033C000FB0655012E1CBF29F817A0B2447F1C26
S315080033D0142FDCDB40F21C44A5420ED302F0E8FBB6
S315080033E002F034FC23462A460FF24001012002F07F
S315080033F00AFE9B21404600F015F900A99DF8180021
S31508003400FFF7F9FA08B0BDE8F0870000C02A0020E7
S315080034108C5A0108A05A0108785A010873696D2D5B
S31508003420656570726F6D2E63000000000D0A4552C7
S31508003430524F523A2053696D4545206461746120A4
S31508003440746F6F206C617267652E2020436F6D70F4
S31508003450696C696E67207769746820256420776FC0
S3150800346072647320636F6E73756D65642E20204DCC
S31508003470617820616C6C6F776564206973202564B8
S315080034802E0D0A0010B5044602F0E0FB5048302124
S3150800349001605048016050480160504810210160A1
S315080034A0200A08BF24024E4804804FF20F014180CB
S315080034B0BFF35F8F4B480021016041604A484B4982
S315080034C0016010BD10B54A4C2068C0060BD54448AB
S315080034D048490A68C0F894204968C0F8901040F630
S315080034E00620FFF7CFFF2068C00708D5424803210A
S315080034F00170206C4008400020640120206020688C
S31508003500000703D5206C20F00800206410BD80B5A4
S31508003510002000F009F830B9F5210FF2F000BDE8F7
S31508003520044000F07FB801BD2DE9FC44334C41420C
S3150800353022688D1815F01F0108D0002802D44842C9
S31508003540451903E04842401900F12005A5F1200677
S315080035502B48A84224BF2B48864203D3EFF30880A2
S31508003560854201D300202DE002F070FB82462648F2
S31508003570006810F0010718BF02F0A0FD2068014698
S315080035808D4206D2A84224BFCD2100F80119F9D2EE
S3150800359006E02038002201E000F8012B8842FBD320
S315080035A02560304602F08FFDE22001E006F8010BA7
S315080035B0AE42FBD30FB102F069FD504602F0A0FD02
S315080035C020682038BDE8F6840C480068704700007B
S315080035D03020004030C8004030C0004010D00040C5
S315080035E0000000201C4000400CED00E00400FA0535
S315080035F018A0004030500040322900202829002019
S31508003600581E00203805002094ED00E06D696372AD
S315080036106F2D696E7465726E616C2E630000000012
S3150800362042DE704738B504460D4602F0C1FA02F08C
S315080036300DFB2946204602F085FD2B4622460FF251
S31508003640F811012002F0DFFC29462046BDE8344087
S31508003650E6E72DE9F8434FF42065DFF8BC61371D2E
S31508003660DFF8B80101687965016AB965DFF8B01154
S315080036700968F965416A3966816A7966C16AB9660F
S31508003680016BF966806B386797F8340040074CBFC2
S31508003690FC6BBC6BA046FFF797FF3865DFF8841113
S315080036A0DFF88421DFF88431A646864524BFA3F1D6
S315080036B02009F14520D354F818EFC7F840E054F82C
S315080036C004EFC7F844E07C6DE405E40D062C17D139
S315080036D03C6CA646964513D38E4511D224884DF6E2
S315080036E0426E74450CD106F18C04756865607D6878
S315080036F0A56040F2017503E000243C647C648046C2
S31508003700DFF82C41A04202D2204600E0001D984274
S3150800371004D2D0F800E0BEF1CD3FF7D0181AB8644D
S315080037200020F864844606EB8004C4F878C0401C80
S315080037300628F8D3002004E0C0B206EB800CCCF8CB
S31508003740784098452BD253F8044D9442F9D38C42CD
S31508003750F7D25FEAC47CF4D54FF0000C06EB8C0E6A
S31508003760DEF878E0A64504D00CF1010CBCF1060F92
S31508003770F4DBBCF1060FE4D1002814BF401E052077
S31508003780DAE77C6F4FF0000C06EB8C01CA6F8A678C
S315080037900CF1010CBCF1050FF6DBC6F88C400146AE
S315080037A0481EC9B20029ECD1786DC005C00D0228A3
S315080037B00AD0032816D0042817D0052818D00628BA
S315080037C019D00C281DD01FE0DFF8680001688907AA
S315080037D048BF40F602151CD40068C00719D540F248
S315080037E0025516E040F6012513E040F6022510E0E2
S315080037F040F603250DE0B5F5206F0AD140F60425FD
S3150800380007E040F6052504E018B1242838BF40F63D
S3150800381007252846BDE8F2830000002004ED00E0F5
S3150800382000E300E04C5A010890210008B827002060
S31508003830980000201CA000400D0A5B4153534552D6
S31508003840543A25703A25645D0D0A0000F0B589B032
S315080038500446002001F034FB0A237F22254801880C
S3150800386000A800F069F84FF6FF75BDF80200A842F7
S3150800387004D1DC210FF29400FFF7D4FE00260FF2E4
S31508003880A40701E02A4616B94FF47C4203E0022E4B
S3150800389008BF4EF23F0200A800F032F8761C052E4B
S315080038A0F0D3012C03D114237F22134802E01423FA
S315080038B07F221248018803A800F03EF800260FF27E
S315080038C06C072A4608E02A46012E08BF4FF6C07242
S315080038D002D0082E08BF002203A800F011F8761CB3
S315080038E00A2EF0D3012C04BF012001F0E9FA09B031
S315080038F0F0BD00001A5F0108185F0108165F01088D
S3150800390030F81610F05DFEF7F2BC0000616E616CCF
S315080039106F6775652D63656C6C2D626961732E63BF
S315080039200000000000100C0D0E0000000102030448
S315080039300708090A0B0F000030B583B00446104685
S315080039407F2808BF0020B1F5004F1AD108237F222F
S3150800395040F6120100A8FFF7EFFF08220FF2380120
S3150800396000A802F0E5F830B908237F2240F2A271D8
S3150800397000A8FFF7E1FF082200A9204602F08EF80A
S3150800398037BD1A46034D294300FB0311204602F0B2
S3150800399085F837BD00000408FFFFFFFFFFFFFFFFA4
S315080039A030B583B0002401A80FF200110A6802603E
S315080039B0DFF8F050012028700020FFF7D3FC30B163
S315080039C00020FFF7CFFC10B12C7049203EBD022322
S315080039D07F22DFF8D40001880DF1020000F025F8F7
S315080039E002237F22002100A800F01FF8204601A923
S315080039F031F81010BDF80220914208BF0124401C7E
S31508003A000228F4D3002CBDF8000004D0B0F57F7F5F
S31508003A1007D100203EBDB0F57F7F0CBF06200420ED
S31508003A2000E00720002129703EBD10B5B1F5807F62
S31508003A3007D21C4C247844B1C9B2BDE81040FFF740
S31508003A4075B9BDE81040FFF777BF10BD2DE9F04105
S31508003A5005460E46174698460FF25400B5F5807F80
S31508003A6012D2104C2178A1B1617811B1C221FFF7A9
S31508003A70D9FD01206070434632463946E8B2FFF761
S31508003A80B2FA0020607004E0CD21BDE8F041FFF7EE
S31508003A90C9BDBDE8F08103490978002918BFFFF7B9
S31508003AA0B1BB7047C82F0020225F0108FE01FD0246
S31508003AB0746F6B656E2E630010B5DFF81445102021
S31508003AC0206302F0C3F8DFF80C150A6842F0010219
S31508003AD00A6002F015FBDFF8000560602060616887
S31508003AE089316160012121638A30E060A060E06865
S31508003AF08930E06002202063DFF8E0044FF6FF71AA
S31508003B00016010BDDFF8D80445F26401C1601E21CA
S31508003B10416250210162C821C1618165F021C165F8
S31508003B2045F690014166882181660621C16644F200
S31508003B30066101604FF6FF714160DFF8A80400785E
S31508003B4038B1DFF8A40448F2607101604FF4C1513E
S31508003B504160DFF89804016841F004010160DFF86C
S31508003B6090040021417070472DE9F84F0446DFF8AC
S31508003B7084148A2202FB0012121D0092521C5378EA
S31508003B80127802EB03221FFA82FB0BF440424FF035
S31508003B9000094FF0010A0BF440630425B3F5006FE2
S31508003BA008BF082503D0B3F5406F08BF0E251300DC
S31508003BB004D05FEA4B635CBFAB1CDDB2DFF8383478
S31508003BC01B784B705FEA8B6374D5DFF83064736ECD
S31508003BD01B066FD54718009828184FF40068B2F5E9
S31508003BE0404F07D102F0F1FB5FEA000927D005F143
S31508003BF008000EE0B2F5004F21D140780099695CC3
S31508003C0001EB002080B202F0EBFBFF280CD1CA467C
S31508003C10A81CC0B241080BF00702032A0FD1002CDA
S31508003C2014BF7268326815E0DFF8D413096831F8F2
S31508003C3010004FF4FE61084218BFD146E8D10020B3
S31508003C40B870F06DC00635D5B06C002C08BF4FF4BF
S31508003C50806828E08A42F2D3002C14BF7268326862
S31508003C604B1C9A42F8D30099405C0428E7D1BAF174
S31508003C70000F02D10020B87004E00020B870B9F136
S31508003C80000FDED0F06DC0060AD4B06C0CB94FF444
S31508003C90806810EA080F03D0706C40F00100706469
S31508003CA00120B87006E010EA080F03D0706C4008CF
S31508003CB040007064BDE8F18F2DE9FC4E0446DFF83C
S31508003CC034B38A2000FB04B0071DDFF83053002CFC
S31508003CD00CBF286868684600C0B2052805D24FF4AC
S31508003CE0F6710FF24430FFF79DFC5FFA86F909EB8F
S31508003CF0070010F8081D427802EB01211FFA81FA25
S31508003D009BF80110017000214170BE4EF06B20F443
S31508003D108050F063686ED4B9306840051CD41AF434
S31508003D20E45F0FD100F06FFD10B15FEA4A4009D594
S31508003D303878802806D204EB0B0082784946384644
S31508003D4002F06EFB002C0CBF0120022020E0012CA3
S31508003D50E5D130680005E2D5AB48017881B100218C
S31508003D600170AA4801681AF4E45F02D000224020D4
S31508003D7004E07878000900F001028F2002F09DFC2B
S31508003D80002C0CBF4FF480604FF400603060D9E718
S31508003D902861BDE8F38E2DE9F84F904C2068216C18
S31508003DA001EA0005954EDFF868A2DFF85C82DFF8C5
S31508003DB04492984F1AE040B14878C00605D40022CC
S31508003DC0924801688F2002F078FC280605D502F093
S31508003DD0BFFC25F0800580202060E80506D502F0A6
S31508003DE0B7FC25F480754FF480702060002D68D0EC
S31508003DF0280706D50020FFF7B7FE25F00805082096
S31508003E002060E80606D50120FFF7AEFE25F010056E
S31508003E101020206005F06000602803D1B06CC00552
S31508003E200AD401E0A80605D525F020052020206043
S31508003E30002006E0680606D525F0400540202060EB
S31508003E400120FFF739FFE80410D525F480554FF413
S31508003E5080502060D7F800B00820386078680005E0
S31508003E6048BF00F01BF91FFA8BF03860E807ACD59D
S31508003E706D086D000120206099F800000028A4D084
S31508003E8000F039FC0128A0D198F8000000289CD041
S31508003E909AF80000042898D1F068400800F001005C
S31508003EA08A2101FB0091091D002814BF7268326837
S31508003EB012B92268D204F7D5002814BF7068306892
S31508003EC079E700202060BDE8F18F53480068704705
S31508003ED0F0B589B004460D460021032001F0C0FC68
S31508003EE004AE1BE0002701F0D6FC26F8170001F007
S31508003EF0D2FC00A921F817007F1C082FF3DB04A8C1
S31508003F0002F0E0FC00202080218836F8102051407D
S31508003F102180401C0828F7DB6D1EA41CEDB2002D7D
S31508003F20E0D101F0F4FC012009B0F0BD0321022024
S31508003F3001F096BCF8B529244FF6FF7501F0ABFCE5
S31508003F40281A90FBF4F000F13A06344F3878B8B9DD
S31508003F500321032001F084FC02237F2230480188D4
S31508003F6000A8FFF7E9FC01F096FCBDF80010401820
S31508003F7080B2281A90FBF4F025307870012038704A
S31508003F8001F0C5FC7878301A40B2F2BD80B503213D
S31508003F90022001F065FCBDE80140CBE770B50024BE
S31508003FA02048007890B9FFF7F1FF0546104E707863
S31508003FB048B13078401B40B202F095FC0B2805DB6F
S31508003FC03570012402E0357001207070204670BDFE
S31508003FD00020004084200040C02C002000A00040A3
S31508003FE04C1000400D290020D010004080200040D1
S31508003FF0D92F0020BC2C00200C29002020200040AE
S31508004000DC27002004A000403C2900205429002079
S3150800401047290020B820004038200040D72F00202C
S31508004020205F0108492900207068792E6300000086
S3150800403010B584B00A237F220B48018800A8FFF731
S315080040407BFC4FF6FF74BDF80000A04204D14E2158
S315080040500FF21800FFF7E6FA2246BDF80010002016
S31508004060FEF745F91FBD00001A5F0108616E616C15
S315080040706F6775652D66696C7465722E630000003E
S31508004080DFF8EC07417A39B1017A012904BFC07A11
S31508004090042801D10120704700207047DFF8D407B3
S315080040A0016821F480510160DFF8C407017881B105
S315080040B000210170DFF8C0170A68520852000A602A
S315080040C00A6842F001020A6000228169402002F073
S315080040D0F4BA70470FF63401405C7047010603D501
S315080040E04FF67F710840C00070478001B0FBF1F0C1
S315080040F080B2FF2888BFFF20C0F1FF00C0B270471A
S3150800410038B5DFF86C07817A012901D1002032BD64
S31508004110DFF86C47617871B1E178807B4518ADB2FC
S315080041202079854228BF054602F0F6FB0121A94001
S31508004130491E084000E0002061790818C0B232BD67
S315080041402DE9F0470446C00703D540F26D1100F08B
S3150800415050FADFF83057286DC00748BF8C2000F1A9
S315080041609180DFF80C67002030733070DFF8107725
S315080041703878A0B12078122818BF0C280BD161789E
S3150800418001F00701032902BF001910F8020C0428E0
S3150800419004BF01203073A86F40F0010002E0A86F49
S315080041A040084000A867707BDFF8DC86DFF8DC96FD
S315080041B0797899B10021B173296D41F00401296517
S315080041C0012807D14FF6FF70C9F800004FF40070B8
S315080041D0C8F80000FFF794FF82460CE0296D21F02D
S315080041E0040129654FF0000A012804D100F042FABB
S315080041F0642000F0CEFEA86F20F00800A8671420FF
S31508004200E864C5F848A0787830B1707B002801BF0B
S31508004210A86C00280120A864B8790028286D14BF66
S3150800422040F0080020F008002865FFF729FF28B1AC
S31508004230D9F8400040F00800C9F84000202028625C
S315080042406C602C6068687F306860042028624FF4D0
S31508004250E064DFF83C06046006E002F06DFB18B186
S3150800426002F072FB01F0F2FCDFF82806006800F0A5
S3150800427003000328F1D0C8F80040286D40F001007B
S3150800428028650020BDE8F08710B50446FFF71DFE37
S31508004290201A0003000B3338DFF8FC1588421AD2BF
S315080042A0DFF8F80502210160DFF8F415A2B24A60CA
S315080042B0220C02F00F020A60016C41F0020101644F
S315080042C0DFF8E0450020207002E0012002F040FB04
S315080042D020780028F9D010BD2DE9F84FDFF8C86519
S315080042E07068716C08401FFA80F8C6F80480DFF819
S315080042F09475DFF87C556878002840F0D180DFF89F
S31508004300AC45DFF87C955FEAC8704CD5D7F800A0B5
S31508004310386C796C41EA0041A96199F800000028D7
S315080043203DD09AF80100800639D5012028704FF44F
S3150800433080503060306C40F480503064FFF7A0FE47
S3150800434088B3192000F025FEDFF864B54FF4404025
S31508004350CBF82800DBF800000090E06E40F400502F
S31508004360E066E06E40F48050E066A8699AF80010AE
S315080043704901B8310818FFF787FFE06E8009800108
S31508004380E066E06E00A909880843E0660020CBF8DD
S31508004390280048F26070E066A88A206003E00022E0
S315080043A0002002F08AF95FEA08600CD5287830B157
S315080043B0002028700022A969402002F07EF9306C9E
S315080043C020F4805030645FEA486008D5687830B9D0
S315080043D0FFF77BFD00220146892002F06EF95FEAAD
S315080043E0C8604FD5287ADFF8A0A4012804BF697BE6
S315080043F001291ED100F030FF386F40F00100386700
S3150800440000206873FFF758FB0A2000F0C2FD4FF042
S3150800441000084FF6FF7070604FF4E060CAF80000BD
S315080044200920B8660120B864B86F40F00800B8677C
S3150800443018E0A97B491CA97399F80220C9B29142D0
S3150800444015D2012808BF00F0D8F8B86F20F0080088
S31508004450B8671420B866FFF753FEB8644FF40070C7
S31508004460CAF80000386D40F0010038650AE00128F6
S3150800447008BF00F0C2F8FFF728FD002201468D208C
S3150800448002F01BF95FEA08700AD5FFF7F9FD38B1A3
S315080044902068A88201202060706C20F008007064F3
S315080044A05FEA88600AD520203862687830B9FFF755
S315080044B00CFD00220146882002F0FFF8687820B13A
S315080044C018F4407F04BF0120A870BDE8F18FDFF81B
S315080044D0E8030088704770B582B00446FEF7BAF85C
S315080044E0DFF8D80300210160DFF88C531521E96055
S315080044F0092101651F21416001210166DFF8B80322
S315080045000088FDF737FFFFF7FDFA02F047FD00F0D8
S3150800451040F9DFF85C63308A00F068F9708A00F0C9
S315080045206DF901F093FB696841F04001696001F09B
S31508004530E7FD707900F002F9B07900F00FF93079EB
S3150800454000F03EF9DFF8780390F90000FEF7C1F8AD
S31508004550F07800F05BF996F9070000F063F902239A
S315080045607F22DFF86003018800A8FFF7E5F9BDF8A8
S315080045700000C0054CBF0020BDF80000DFF8481356
S315080045800870DFF848030078FEF766F818B140F2BD
S31508004590963100F02EF8012C05D12868C00711D5F0
S315080045A000F02BF80EE06CB92868C0070AD400F0B2
S315080045B053FE286840F001002860C82000F0E9FC96
S315080045C000207073DFF8C442F120206440F2F9102D
S315080045D0E063FFF771FA2868C00707D54FF6FF7042
S315080045E02060DFF8A4024FF4E061016000F0EDFB03
S315080045F073BD0FF20830FFF715B870B5DFF8D05263
S315080046002E68DFF86C42607B012832D001F01EFB71
S3150800461048F2D00129606A68520509D548F2220293
S315080046202A606A68D205F5D529606A685207F1D406
S31508004630B6B22E60DFF858124FF4E0620A60DFF86F
S3150800464074120A6A520852000A620A68520852002C
S315080046500A600A6842F002020A604A6A42F00102E7
S315080046604A620121617301F04BFDBDE8704000F01C
S31508004670C2BD70BD70B57E4C607B48B300F0ECFDE2
S3150800468001F0E4FA0546DFF84C02012101607B4E91
S31508004690306D40F00100306500206073FFF70CFABA
S315080046A020203060306B40F002003063F06D40F03F
S315080046B00800F065284601F023FD0A2000F069FC91
S315080046C072484FF6FF7101606F484FF4E061016070
S315080046D070BD6748407B704710B5654C607B18B164
S315080046E040F28741FFF785FF207A18B1FFF785FF6B
S315080046F0207A607310BD5E48007A704780B502283C
S3150800470001D3012002BD5A490872487B012804D109
S31508004710087A20B9FFF7AEFF01E0FFF7DDFF0020BA
S3150800472002BD6D480068800200149A386FF07F0257
S3150800473001B29142B8BF104640B2704710B5044660
S3150800474001F084FA6549002C0A6814BF42F0120287
S3150800475022F012020A6046494C7140E038B5044618
S3150800476001F074FA054600F0F0FD40B95B48002CEC
S31508004770016814BF41F0800121F0800101603C48C6
S3150800478084712846BDE8324001F0BABC38488079C1
S315080047907047534853494A780B7813EB0222026054
S315080047A0CA788B7813EB022242604A790B7913EBAD
S315080047B002228260CA79897911EB0221C1607047A9
S315080047C010B5044601F042FA4449002C0A6814BFA1
S315080047D042F0200222F020020A6025490C71BDE849
S315080047E0104001F08DBC2248008A70472049088293
S315080047F03D49086070471E48408A70471C494882F0
S315080048003A49086070473A48007870471A490028BC
S315080048100A6814BF42F0020222F002020A60144932
S31508004820C870704738B504467F2C0ED102237F2204
S315080048303048018800A8FFF77FF8BDF80000C005DA
S3150800484054BFBDF800406FF04A0401F0FFF9054671
S3150800485000F07BFD30B964B204F19A008005000CC3
S31508004860254908600248C471284601F049FC31BD53
S315080048703C29002040A00040802000403020004015
S315080048805C2900201020004000E100E004A0004060
S3150800489080E100E0A8200040CDFF070008A0004006
S315080048A040200040CE2F002000A0004064100040A9
S315080048B0E410004060200040242900205C100040DD
S315080048C018290020285F0108142900200C29002037
S315080048D01C100040281000400C10004084200040A6
S315080048E0982000408C2C0020942000409020004006
S315080048F0582900202C5F0108541000407068792D53
S31508004900636F6D6D6F6E2E6300000000FEFEF7F795
S31508004910C8C80100DFF828055121016070472DE954
S31508004920F041054601F02EF9FA2190FBF1F64FF415
S31508004930F070B0FBF6F73FB21E2D01DBE81B04D57D
S31508004940A8B2BDE8F04100F024BB01F07FF980462B
S3150800495002F030FBDFF8EC0407210160002141601A
S315080049608160DFF8E4144FF000720A60E91B09B2AF
S315080049707143C91C8908491E416000F0AEF8DFF88A
S31508004980C0743C68386820F04000386002F014FBB8
S315080049903C602E6002F014FB02F01AFB4046BDE8AC
S315080049A0F04101F0ADBB38B5054601F0EBF8FA2148
S315080049B090FBF1F44FF4F070B0FBF4F02D1A2DB221
S315080049C01E2D04DA8A210FF2CC40FEF72BFEDFF803
S315080049D0740407210160002141608160DFF86814D2
S315080049E04FF000720A6005FB04F1C91C8908491ECC
S315080049F0416031BDDFF85404B0F9000000B97047D2
S31508004A002DE9F0410024DFF848542C60DFF84464AF
S31508004A1034604FF4A040706041F29A084046FFF7B0
S31508004A207EFF6F6801F0B6F800010A21B0FBF1F0CD
S31508004A3000F5C870C01B00B24FF4487190FBF1F046
S31508004A4000F3030030604046FFF769FF0827404639
S31508004A50FFF765FF686804197F1EF8D101F09AF818
S31508004A604FF4FA414843211DC908B0FBF1F080B262
S31508004A707060BDE8F081DFF8D403B0F9000000B932
S31508004A80704738B56FF00F04DFF8CC530120A860E3
S31508004A902C608020FFF743FFE868FF2802D8641CD3
S31508004AA0102CF5DB31BD70B5DFF8B003016841F0B5
S31508004AB0010101600121416001F0C8F8044600F0D7
S31508004AC00CF8DFF87C03512101602E6002F078FAB9
S31508004AD02046BDE8704001F013BBDFF884532E680A
S31508004AE0286840084000286002F06ABA002070472B
S31508004AF010B5DFF85803B0F900000128BCBF032041
S31508004B0000F01FF8DFF85C43012020700020E070F9
S31508004B10DFF85403816901F00301032907D1002056
S31508004B206070042000F07BF80120E07010BD0F21B2
S31508004B300160022181610120A0706420BDE8104057
S31508004B4031E7F8B5014640F2DC500446BF4AB2F9EF
S31508004B500070C54DC34E012F15DA0220308128603A
S31508004B60A86900F00300032857D0002F03D5A869C9
S31508004B7040F00200A8610846FFF7B8FF04001BD101
S31508004B80002F4AD547E031894FF6FF77B9421CD145
S31508004B9002237F22B548018806F10800FEF7CCFEFD
S31508004BA03089B84204BF02203081A869800703D43F
S31508004BB0A86940F00200A861012070703089286059
S31508004BC020B2FFF7F0FE2046F2BDAA699207EFD59C
S31508004BD07278002AF8D1A86810F00100AA6803D1F3
S31508004BE00F2909D2491C06E0920705D532791AB170
S31508004BF0032901D3491E31813071308902283CBF0F
S31508004C0002203081286831898842D5D1A86900F008
S31508004C100300032801D0FFF746FF0020F2BD2DE967
S31508004C20F04780460024864D8D4E01F00FF88146E8
S31508004C3002F0C0F94046FFF784FF08B901240AE0EC
S31508004C4000F0BCF8D5F800A000F01EF9C5F800A0E1
S31508004C50376002F0B5F902F0BBF9484601F050FAA0
S31508004C60002CE2D0BDE8F0870220D8E710B57548D9
S31508004C70002141608160016821F0020101607248EB
S31508004C804FF000710160774C607848B10020607081
S31508004C900620FFF72BFF6D48B0F9000001281CDB42
S31508004CA0A078012814D17248012101607149096868
S31508004CB0C90748BF03200FD40221A170016C41F037
S31508004CC0010101646C48042101606C48016010BD53
S31508004CD0A078042801D10520A07010BD2DE9F8435D
S31508004CE05A48B0F90000012803DA0420BDE8F24367
S31508004CF095E75C4CE07800285ED1594EDFF8408194
S31508004D001DE000F0A3FF054602F054F9A078032839
S31508004D1010D000F053F8D8F80090D8F8000020F02A
S31508004D204000C8F8000002F047F9C8F8009037605C
S31508004D3002F046F902F04CF9284601F0E1F9A078AC
S31508004D400328DED1484D208928604FF6FF76E08893
S31508004D50B0420CD102237F2249480188A01DFEF7E4
S31508004D60EBFDE088B04202D16420E08001E0E088F3
S31508004D70C8B100F00FFFE188FA2290FBF2F0484331
S31508004D802F303021B0FBF1F03E494A6D42F0010266
S31508004D904A650A68AB68DB07FBD50B689B1A1B03D9
S31508004DA01B0B8342F6D3FFF77EFE0420A0704FF458
S31508004DB0C870BDE8F243F6E5BDE8F18337683068A8
S31508004DC040084000306002F0FBB82DE9F843254C56
S31508004DD02078002830D0E07800282DD11B48B0F97B
S31508004DE00000012820DA40F2CD310FF2A800FEF7C4
S31508004DF019FC19E000F02AFF804602F0DBF8A078DB
S31508004E0005280CD0164EFFF7D9FF0D4DD5F80090A2
S31508004E1000F03AF8C5F80090376002F0D1F802F0D1
S31508004E20D7F8404601F06CF9A0780528E2D10020B1
S31508004E3060700520FFF7F3FE00202070BDE8F183BF
S31508004E400080004010E000E004ED00E0145F010877
S31508004E50104000400C000040084000401C40004044
S31508004E6094ED00E03029002004400040265F010848
S31508004E7018A000400C40004080E200E000E100E09D
S31508004E802A5F010838200040286820F04000286082
S31508004E9002F092B8636C6F636B732E6300000000B8
S31508004EA010B56D4C002000F038FD40F68C21884284
S31508004EB0206834BF40F0080020F00800206010BDCC
S31508004EC010B582B0044600F05FF800A8FEF734FD7E
S31508004ED09DF801009DF80010FF2902BFFF28042055
S31508004EE0002104B1801CC0B2082828BF0720082961
S31508004EF028BF0721594A136823F4607343EAC01090
S31508004F0010601068C00851EAC000106013BD00B5F3
S31508004F1083B002237F225248018800A8FEF70CFDC1
S31508004F20BDF800004FF6FF7188420EBF4FF4E160EE
S31508004F300A2190FBF1F0ADF80000FFF7C8FAC007A8
S31508004F401FD500F021F801A8FEF7F6FC9DF805002C
S31508004F50FF2808BF0420811CC9B20829A8BF072159
S31508004F60C1F12F02BDF80030C0F12F0002EBD2725A
S31508004F70521000FB0320C1F12F01B0FBF1F0ADF890
S31508004F800000BDF800000EBD02237F2235480188C7
S31508004F90704770B50646344C256800F0FBFDFA21CB
S31508004FA090FBF1F070432F303021B0FBF1F003286D
S31508004FB009D3616D41F0010161652168491B090347
S31508004FC0090B8142F9D370BD10B5040004D110BD98
S31508004FD04FF47A70FFF7DDFF2046441E80B20028A2
S31508004FE0F6D110BD704738B50C4620B1012819D046
S31508004FF003282CD02DE01D4D94B11D48844204D0C1
S31508005000CA210FF27400FEF70DFB00F0C3FD4FF442
S315080050107A714843B0FBF4F0401EB0F5005F0ED23B
S31508005020286014E05CB100F0B5FD4FF4FA6162083F
S3150800503001FB0020B0FBF4F0B0F5003F01D32020BF
S3150800504032BD0C4900F001024A60400808600020A1
S3150800505032BD212032BD000000BC004018000040CF
S315080050601E5F01081C5F010838200040100004E09C
S3150800507020A1070068C800406D6963726F2D636FD1
S315080050806D6D6F6E2D696E7465726E616C2E630040
S3150800509038B50120FFF755FD0020FFF711FF864CB4
S315080050A0206840F00800206000F07BFDFFF7F8FE5E
S315080050B000F05EF88D78DD600D8905604D894560E4
S315080050C000F04DF8206820F01000206001F0B3FFD2
S315080050D002F015F902F056F9FFF7C6FD00F05FFD7C
S315080050E0BDE8314000F078BD40F20160FEF7CAB96C
S315080050F010B502F0E3F8714871490A79C260714A3D
S315080051004B79D360704B8C79DC608C8A0460CC8ACE
S315080051104460088B1060488B5060888B1860C88B79
S31508005120586010BD10B5FFE7FFF7E2FCFFF7B8FEC1
S3150800513000F01EF88C78DC600C8904604C894460A9
S3150800514000F00DF85C48016821F01001016001F0DB
S3150800515072FFFFF7C3FDBDE8104002F0B8B88889B2
S315080051601060C8895060088A1860488A586042E00A
S31508005170524853490A78C260524A4B78D360524B18
S315080051807047F0B50B684E4C246A0F25960005FA51
S3150800519006F6344212D0002606EB820724FA07F7F1
S315080051A0FF0708D5B70005FA07F7BB4330F812C062
S315080051B007EA0C073B43761C042EEDDB0B60F0BDBB
S315080051C0F0B50B683E4C246AFF25D600B5402C4244
S315080051D00FD0002505EBC20624FA06F6F60705D514
S315080051E00126AE40B343175C3E4033436D1C082D81
S315080051F0F0DB0B60F0BD10B5314C206A002827D0D3
S3150800520000223349201DFFF7DBFF01223149201D0B
S31508005210FFF7D6FF02223049201DFFF7D1FF0022F3
S31508005220264900F016F80122284900F012F8022251
S31508005230244900F00EF80322284900F00AF804224F
S31508005240214900F006F80522254904F114004CE02E
S3150800525010BD04F1140094E710B5194C206A002813
S3150800526027D000221A492046FFF7AAFF012219492A
S315080052702046FFF7A5FF022217492046FFF7A0FFA1
S3150800528000220E4900F02EF80122104900F02AF8F3
S3150800529002220C4900F026F80322104900F022F8F1
S315080052A00422094900F01EF805220D4904F10800F8
S315080052B01BE010BD0000000000BC004000B000402C
S315080052C08028002000B4004000B8004004B0004028
S315080052D00CB000400CB400400CB8004004B40040C8
S315080052E004B8004004F108004BE7BDE8104048E761
S315080052F00320FEF7D0BB80B502F015F90FF2500176
S3150800530001EB800002BD000010B502F00CF904465E
S3150800531002F00DF9C0B208B9012C07D1072C11D833
S31508005320DFE804F004100608080A0C0E002010BD79
S31508005330092010BD022010BD032010BD0B2010BD92
S31508005340062010BD44F0800010BD00207047000004
S31508005350554E4B004649420042544C0045585400AD
S3150800536050575200574447002053570043525300A2
S315080053704653480042414400464C54002A490A68AC
S31508005380920992010A600A681043086027484FF498
S3150800539000410160002101606420FFF7FABD2DE994
S315080053A0F0478046224DD5F80090286840F4004022
S315080053B028601D4F386820F4805038601D4C2078CE
S315080053C068B11D48A178627800EB820212F82A2C8F
S315080053D0891A00EB880010F82A0C461802E02026E5
S315080053E001202070B0B2FFF7C9FF0FF2500A02E0A1
S315080053F0B0B2FFF7C3FF386B042805D0386B4007F7
S3150800540054BF761E761CF3E7F86A38B184F8018033
S31508005410A6701FFA89F02860BDE8F08740F22111CE
S315080054205046FEF7FFF8E6E7D01000401810004097
S315080054301C100040DB2F002004280008616E616CF8
S315080054406F6775652D76636F2E6300004FF4FE5205
S31508005450810189B20C20FCF74ABF2DE9F84F8A4C26
S31508005460A568ADB200264FF00A080127B94620689C
S315080054701FFA80FA00F04BFAB0202063DFF80CB26E
S31508005480DBF800000120FFF784FDB9F1000F11D009
S31508005490AAF10300874202DAF81C87B213E05746DE
S315080054A00AF5004020600621092000F0D9F94FF0DE
S315080054B000090BE0DBF80000000707D5042FA6BF9C
S315080054C0F81E87B2002707F5004020601A2EA8BFED
S315080054D06FF0090804DA16F1190FB8BF4FF00A0879
S315080054E0464436B27019A060DBF800000007C9D53B
S315080054F0012FC7DAB9F1000FC4D1A560C4F800A01E
S315080055000820CBF800006248006880B2BDE8F28F38
S3150800551010B560494FF0FF325A4B1C7864B1002829
S3150800552019BF4A605C48486041F211100860D98882
S315080055309888BDE8104090E7002819BF4A600A60BD
S315080055404860086000F0E3F906210920BDE810402C
S3150800555000F0D7B938B50120FFF7DAFF0446002076
S31508005560FFF7D6FF05460120FFF7D2FF4042001B92
S3150800557000EB450000B232BD2DE9F04F83B0474C31
S31508005580A06AADF804002068ADF80200444D28680A
S31508005590ADF800003B4E307858B14FF6FF72002147
S315080055A00820FCF79DFE8046C022C0210820FCF793
S315080055B09EFE3C4F3C48007810B148F26070386057
S315080055C0708840F4404040F04C00F8630220A06226
S315080055D00120206040F24C40FFF7DBFC0120E86028
S315080055E028600020B0804020F080307800B120206C
S315080055F0FFF72CFFFFF7AEFF83464020B0807F20E1
S31508005600F080FFF723FFFFF7A5FF00F04FF8FE2114
S3150800561001FB00FAABEB090B307850B1484601F0B4
S3150800562062F900F043F880B20AEB8911B1FBF0F099
S3150800563004E000F03CF880B2BAFBF0F080B2401CFF
S315080056404FEAC039BDF8000028600020E860022053
S315080056502060BDF802002060BDF80400A0620020AA
S31508005660F863307830B14FF6FF721FFA88F10820D8
S31508005670FCF73DFE40F24C40FFF78BFC4FEA194021
S31508005680BDE8FE8FD8290020C010004018A00040B1
S315080056900070004038100040EEEEFFFF602000402A
S315080056A028100040D01000400D2900208146584699
S315080056B001F019B93F22410089B201E03F220146B3
S315080056C00220FCF714BE2DE9F04F93B0564CE06C5F
S315080056D0ADF808002068ADF80600544DE86AADF844
S315080056E004004FF6FF7200210120FCF7F9FDADF822
S315080056F002004FF6FF7200210B20FCF7F1FDADF812
S3150800570000004FF40040206000202861686148F2DC
S31508005710020000F08DF84CF68C30E06448F2F00098
S31508005720E8624FF4805211460120FCF7E0FD4FF67F
S31508005730FF7200210B20FCF7DAFD0621062000F097
S31508005740E0F8804600F087F883464CF69C30E06423
S315080057500020FFF7AFFF0621084600F081F8002673
S31508005760B0B2FFF7A7FF0621062000F079F800F08F
S3150800577092F803A921F81600761C202EF0DB00F01B
S315080057808AF81020FFF796FF00F065F8A0EB0B00EB
S31508005790BDF82C10A1EB0801404301FB01094FF0AD
S315080057A0100A112700F050F800F055F800F045F8F7
S315080057B005DB81461FFA87FA7F1C202FF2DB50464D
S315080057C010280ED10F2700F03FF800F044F800F03B
S315080057D034F806DB81461FFA87FA781E07B2002FCF
S315080057E0F1D5BDF80800E064BDF806002060BDF8F4
S315080057F00400E8624FF6FF72BDF802100120FCF7BC
S3150800580076FD4FF6FF72BDF800100B20FCF76FFD12
S3150800581001202861002000F00BF84FEA4A00C0B2C8
S3150800582013B0BDE8F08F0000C0100040181000400B
S31508005830286040F24C40FFF7ACBBA0EB0B0040439E
S3150800584006FB06004845704703A830F81700A0EB8A
S315080058500806B8B22EE70621072000F052B8000065
S3150800586070B505460E4601F0A5FB3D4C206C20F0B0
S315080058700800206401F0ACFB00F0E8F9310341EAC6
S31508005880C51141F00101374A116008212160BDE8C0
S31508005890704000F035BC2DE9F041334C334D304EA5
S315080058A025E001F087FB324804210160306C40F0A6
S315080058B0080030642F68286840084000286001F016
S315080058C07FFBD4F80080206820F04000206001F0BB
S315080058D073FBC4F800802F6001F072FB306C20F077
S315080058E00800306423480421016001F071FB306828
S315080058F00007D6D5082030601F48006880B2BDE88A
S31508005900F08180B5FFF7ACFFBDE80140C3E7154855
S3150800591001684908490001607047F8B50746FFF76E
S31508005920F6FA044639460320FFF7EBFF05463946E3
S315080059300120FFF7E6FF064639460020FFF7E1FF9C
S3150800594008490A68520852000A60401B0004711B85
S31508005950B0FBF1F060434000000CF2BD000000000F
S3150800596018A00040047000400080004094ED00E05C
S3150800597000E100E080E200E0007000404148018A52
S3150800598040F6A772914202BF418A4FF47F40014216
S3150800599004D102298041C043C00F704700207047D8
S315080059A02DE9F84F8246884600F050F90446364DF0
S315080059B02F68286840084000286001F001FBDFF8DE
S315080059C0C0B001208BF80000FFF7D8FF20B9FF21EF
S315080059D00FF2B800FDF726FE2A48D0F8289041466F
S315080059E04AF48070C84706462F6001F0E9FA204657
S315080059F000F086FB00208BF800000FF298040EB129
S31508005A00305D04E041464AF40070C847005DBDE8D1
S31508005A10F28F2DE9F84F804689464FEA420A00F090
S31508005A2015F90546184E376830684008400030605A
S31508005A3001F0C6FAFFF7A2FF28B94FF4A1710FF2D9
S31508005A404C00FDF7EFFD0F48D0F824B0002352466E
S31508005A5049464046D8470446376001F0B1FA284619
S31508005A6000F04EFB0FF22C050CB1605D05E05346C5
S31508005A70002249464046D847405DBDE8F28F0000FF
S31508005A80CB2F00200000040894ED00E0666C6173DB
S31508005A90682E6300000202024B4B4647814233D20E
S31508005AA01018401E5118491E10E0121F11F801392E
S31508005AB000F8013911F8013900F8013911F80139EE
S31508005AC000F8013911F8013900F8013992B2042AAF
S31508005AD0EBD292B2002A1EBF11F8013900F801393B
S31508005AE0521EF6D17047121F11F8013B00F8013B10
S31508005AF011F8013B00F8013B11F8013B00F8013BA6
S31508005B0011F8013B00F8013B92B2042AEBD292B29B
S31508005B10002A1EBF11F8013B00F8013B521EF6D1C0
S31508005B207047130003D00A46194601F011BD7047A5
S31508005B3010B500E0521E92B232B110F8013B11F8CE
S31508005B40014BA342F6D00FE0002010BD10B500E0CF
S31508005B50521E92B232B110F8013B11F8014BA34222
S31508005B60F6D001E0002010BD181B40B210BD0000A1
S31508005B702C480068C00702D442F6E060704745F634
S31508005B80C050704780B5FFF7F3FF2749096801B988
S31508005B90400802BD80B5FFF7EBFF400802BDFEF7DF
S31508005BA06ABF2248012181604EF6BE21416000E0AD
S31508005BB01F48012101607047A52805D11B484DF6ED
S31508005BC0AD6141600221016070471848006810F015
S31508005BD0010018BF0120704780B5164810210160E2
S31508005BE0154800781549164A58B103280CBF0020F5
S31508005BF00120106040F6510008600020FFF7E4F924
S31508005C0006E0022010604FF400600860FEF7F2FE1E
S31508005C100C4807210160002101640B48102101602E
S31508005C20002002BD1C4000402040004000600040AB
S31508005C300860004080E100E0C72F00200C600040AB
S31508005C400800004014A0004000E100E0EFF31180D6
S31508005C50602181F31188704770B51346101802E069
S31508005C60A4192C705B1EDBB24BB101F00F060909B3
S31508005C70451E28460A2E34BF30243724F0E710186C
S31508005C8070BD2DE9F04F87B08046894614469B467D
S31508005C9001AD002701A88DF800001BE05BF804ABF6
S31508005CA004224FEA1A412846FFF7D6FF04221FFAB4
S31508005CB08AF1FFF7D1FF054605A8854209D39DF865
S31508005CC000002E1A00F096F8002831D1F719FFB215
S31508005CD001AD641C9DF800002E1A2078002807D014
S31508005CE0252802D005F8010BE6E714F8010F00286D
S31508005CF076D02528F6D0322818BF34285FD0582801
S31508005D0057D063280CD0642818BF6C2825D0702873
S31508005D1018BF732807D075281FD0782849D0CBE735
S31508005D205BF8040BDEE75BF804AB00F063F80028C9
S31508005D305CD1F719FFB201AD002600E0761CF6B279
S31508005D4016F80A000028F9D1324651464846C04797
S31508005D5000284BD1F719FFB2AEE75BF8040B002118
S31508005D60002803D52D212970012140420023002255
S31508005D704FF0000C02E0801B0CF1010C0FF2E82634
S31508005D8056F82260B042F6D243EA0C06F6B2002E66
S31508005D9005D0C9B20CF130034B55491C0123521CDE
S31508005DA0092AE5DBC9B230304855481CC0B2451946
S31508005DB082E75BF8041B0222C9B2284679E714F881
S31508005DC0010F78281CBF5828641EF1D114F8010C5D
S31508005DD032287FF463AF5BF8041B042289B2ECE730
S31508005DE000F008F810B9F019C0B200E0002007B0BA
S31508005DF0BDE8F08FF2B201A9484640472DE9FC4EAE
S31508005E000400894692469B4618BF022C2BD0032CC9
S31508005E1018BF042C27D026D20FF23820205C012880
S31508005E2021D1DFF8205205EB8406F768FFF70EFF4D
S31508005E300021B9803980798000F062F9F669FFF7A8
S31508005E4005FF0021B18031807180615500F058F955
S31508005E5001F055FA5B4652464946204602B0BDE86F
S31508005E60F04E01F017B92120BDE8F68E2DE9F04174
S31508005E7088460446DFF8CC5105EB8401CE690FF25B
S31508005E80D411615C09B9012035E005EB4407615D71
S31508005E9061B1B9887288914208D1FFF7D7FE665D6D
S31508005EA00021615500F02CF9304624E001F0E8F9AC
S31508005EB0B088F8B1FFF7CAFE71888919897988F818
S31508005EC000107188491C0FF2981232F8142000F05D
S31508005ED027F87180B188491EB18000F011F9605D1C
S31508005EE030B1B8884FF6FF71884204BF3088B88051
S31508005EF0002000E02620BDE8F0810FF25811415C31
S31508005F0001290BD10FF2441131F810104D4A02EB5A
S31508005F108000C0688088081A80B2704700207047E1
S31508005F2091FBF2F302FB1311704710B500240FF230
S31508005F302413C35C012B08D113460A4601460FF207
S31508005F402100FFF79EFE00B90124204610BD0CB4BF
S31508005F5080B502AAFFF7E9FF02BC5DF80CFB00005A
S31508005F602DE9F84F80468B46164647460FF2E40061
S31508005F70385C012833D1334800EB8700C468002514
S31508005F800FF2D4090FF2C40A15E0FFF75FFEA188E5
S31508005F9001B90125218809191BF8012B8A71218865
S31508005FA0491C39F81720FFF7BBFF2180A188491C37
S31508005FB0A18000F0A5F83046461EC0B250B1A088B0
S31508005FC03AF817108842E0D315B1404601F0AAF80E
S31508005FD0222005E0404601F0A5F8002000E0012057
S31508005FE0BDE8F28F80B50FF26C02825C012A06D1F9
S31508005FF0144A02EB8001C9688A88002AFCD101F09C
S31508006000CAF8002002BD0CB438B504460D4601F0A6
S31508006010A2F804AB2A4621460B48FFF732FE0FF2D8
S315080060203401615C012908D1064901EB8400C06886
S31508006030808810B1204601F075F8002032BC5DF862
S315080060400CFB0000D42800206771000800008000BF
S3150800605000000000000100000000800000000000B1
S31508006060000010000000000000CA9A3B00E1F50598
S315080060708096980040420F00A08601001027000075
S31508006080E8030000640000000A000000174838B55D
S315080060900446FFF7DBFD0546154800210160082187
S315080060A054F8042B826054F8042BC260491EF7D1B9
S315080060B00121016000F084FF284613E00C48002106
S315080060C0016000F07DBF38B50A4C45096D010A48E4
S315080060D0854238BF094CFFF7B9FD044945F014025B
S315080060E00A624C62BDE8324000F00AB84028002037
S315080060F094ED00E009000B109800002008000B1032
S3150800610080F311887047000070B5A04801F067FD5C
S315080061100446FF2C15D09E480068205C851EE9B20F
S31508006120204601F002FD0646E9B2204601F007FCCA
S315080061302146304600F0E0F82046BDE8704001F000
S31508006140AFBA70BD03460A468FA10420FFE70CB418
S3150800615080B502AA00F02BF801BC5DF80CFB00B56F
S3150800616087B0FFF7D1F80021059101210491532149
S31508006170039100210291019186490091002302466C
S315080061800FF220210120FFF7E2FF8348817903916E
S31508006190018802914179019101790091C378827849
S315080061A00FF20C214220FFF7D2FF07B000BD2DE900
S315080061B0F04F85B005460C469046002601F09CFD3A
S315080061C0C0B1012001F003FA8246BAF1FF0F11D0DF
S315080061D0002101F0F7F9294601A801F093FD0546CB
S315080061E07CB900F084F810B9504601F004FE504618
S315080061F001F056FA05B0BDE8F08F8DF804200125A8
S31508006200641C20780028ECD0A0F13001C9B20A2914
S3150800621005D20A2101FB0600A0F13006F0E700F0DE
S3150800622066F80028E3D10025227801A8422A0ED074
S31508006230442A1AD0462A25D0572A0DD0622A3AD09F
S31508006240662A2AD06C2A25D0702A26D0D5E758F88F
S31508006250040B8DF80400D2E758F8041B8DF80410D7
S315080062600904090E41700225CAE758F8041B8DF87F
S3150800627004100A0A42700A0C8270080E8DF807008C
S315080062800425BDE758F8041B504601F018FB002802
S31508006290B6D0ACE758F8046BB2E7012358F8041BEC
S315080062A0662A08BF0223F2B2504601F0E8FA00282F
S315080062B008BF0026ECE7364800681AF8009058F838
S315080062C0041BCFB2FF2F9BD017F800B00BEB0901C8
S315080062D0C9B2504601F033FB002888D1CDF800B08A
S315080062E000233A464946504601F032FC88E72A46DA
S315080062F001A9504601F0E1BAF0B585B00C4612285E
S3150800630006D03A281AD04FF6FE71884234D039E0C2
S315080063101F480068255C214E08E0204601F04CF92C
S31508006320394600F043FF203D3068245CFF2C29D015
S31508006330EDB2212D2CBF20272F46EEE701F02FFEC8
S315080063400446FEF758FA0546FCF7BFF90646FCF779
S31508006350B9F90746FEF747FA024604940D48039032
S315080063600F4800880290019500963B460FF24801B7
S315080063703B20FFF7ECFE05E0204605B0BDE8F040FF
S31508006380FBF716BF05B0F0BD574600002C290020C4
S31508006390C02700208C2C0020F85E0108C8270020A2
S315080063A0B02F0020424238704242424257424200D1
S315080063B042424242574200005742425757387042BB
S315080063C00000000070470120704700207047002039
S315080063D07047002070470020704770477047704725
S315080063E0F8B506000C4C276814D0FFF72FFC0B4DA8
S315080063F02978226822F8116037F8021BB142FBD1CE
S31508006400FFF77EFEB81E2168401AC0052978000EDF
S31508006410884200D1FF20F2BDD4270020D8270020CB
S3150800642070B504460D461646FEF7B0F938B16078E1
S31508006430002E14BF40F0200000F0DF0060702946EF
S31508006440204601F0B0F9FF2822D08A4C014604F113
S315080064500C0001F0AFFB2088401C2080618880B2C8
S3150800646081420BD2A088401CA08004F10C0001F0E8
S31508006470B6FB01F015F92088401E20806088218827
S315080064808842F2D37C480078BDE8704001F033BFFB
S3150800649070BD2DE9F04E86B0044600208DF8050043
S315080064A0FFF7D4FB734D2988491E2980FFF728FE7C
S315080064B0204601F081F890F8009090F801A000209D
S315080064C0009008236D480068205CA0F10802D2B24B
S315080064D0214602A801F081F902AE6948007898B110
S315080064E0A86800280FD0F078FDF7F8FD4946FDF7B3
S315080064F0FCFD024696F9020000F166035BB24946C6
S31508006500204600F0A0F87AE00AF00700022879D0C1
S31508006510FF208DF80400204601F04EF800F1010B2B
S31508006520584601F06FFF0546A9EB0500801E47B2E5
S31508006530002F04D5204601F0B3F8002067E001A932
S31508006540584602F0EBF800285CD10AF0070001284B
S315080065500BD105EB0B019DF8040003F039FB20B9BC
S315080065609DF8040001F09CF84CE09DF804004349AE
S31508006570096810F801A04349096844543F4800686F
S31508006580205C00F12001C9B29DF8040001F01AF858
S315080065909DF8040001F003FF00F00C0004281CBF5E
S315080065A0EF19002578B280B200906B1C9BB2224688
S315080065B051469DF8040001F0CBFA07EB0A01C9B26F
S315080065C09DF8040001F0BBF9F078FDF787FD494610
S315080065D0FDF78BFD0246032100F01CF8B07800F1A8
S315080065E06602D2B2042100F015F89DF808200521AC
S315080065F000F010F89DF80440204603F0A3FC0120A3
S315080066008DF80500204601F04BF89DF8050006B008
S31508006610BDE8F08E9DF8040001F09ABE10B5154C41
S31508006620A18829B1C9B21D2003F0CAFD0020A080A7
S3150800663004F10C0001F0D3FAFF2803D0FFF729FF75
S315080066400028F5D010BD30B5A1B014461D4600226D
S3150800665000924B1CDBB2014601A801F0BEF82A469F
S31508006660214601A8034B9B68984721B030BD0648D0
S3150800667001F0DCBA042A0020CF2F0020C027002012
S315080066803D290020C8270020102A002038B50446D6
S315080066900D46012003F0CCFD5A48002D12BF0021FB
S315080066A00178491C0170584844705848FDF748FD60
S315080066B00020BDE8324003F0BBBD10B51446A8B3B0
S315080066C0402820D0882818BF892833D08D2828D07C
S315080066D08F2836D14E48007804280DD144B14D484C
S315080066E00221017040F60620BDE8104003F0A8BD5F
S315080066F0FDF7F2FF312020E0FDF7EEFF002C0CBF7E
S315080067003120002019E03F4801784078814204D2C0
S3150800671000210120BDE81040B8E7FDF7DDFF402065
S315080067200BE00121202003F04BFD05E0FDF7D4FF27
S31508006730002002E0FDF7D0FF8D20BDE8104003F0F1
S31508006740A7BBD0210FF2E400BDE81040FCF76ABFF2
S3150800675030480078022800D0704780B52E48007867
S31508006760042807D00C280ED12C480078022818BF18
S315080067707C2808D103F07FFDFDF7AEFF0020BDE8B9
S31508006780024003F085BB01BD38B50024FFF75EFA69
S3150800679005462048007810B9FDF700FC044628464F
S315080067A0FFF7AEFC002C1CBFBDE83140FBF74CBD23
S315080067B031BD80B5FFF7E8FF14211948BDE804404C
S315080067C001F0AABC40F20D110FF26000FCF72ABFD7
S315080067D038B5144C2068216C01EA0005ADB2A8074B
S315080067E006D5206C20F0020020640F4801210170B4
S315080067F0680705D5206C20F00400206403F0CAFD64
S31508006800256031BDE72900205C290020A42E002040
S3150800681047290020982E0020282A0020292A00200F
S31508006820FC2D002008A00040CE2F00206D61632DAE
S31508006830656D3235302E630038B504461B4D21464A
S3150800684000F03DF8E860211D00F039F8A86004F171
S31508006850080100F034F8686004F10C0100F02FF824
S31508006860286031BD7047F8B50446114D8020286070
S31508006870104E062030600720286030688007FCD557
S31508006880002704EB870100F01AF8A8627F1C042F82
S31508006890F7D330684007FCD500262A6B04EB86013F
S315080068A000F00AF8761C042EF7D3F1BD3830004004
S315080068B00030004010A00040002003F0AFBE0020CA
S315080068C003F0BABE70B504460D46FFF7BFF9064693
S315080068D02846FFF7B1FF2046FFF7C5FF3046BDE85B
S315080068E07040FFF70DBC002848BF404270470000C3
S315080068F081B209B94BF6EF610E4A1180000C08BF48
S315080069004FF6CE20508070470288130448BF4A408D
S31508006910510001801046704738B5064C6221204662
S31508006920FFF7F2FF054641F20B01A01CFFF7ECFF4B
S31508006930684032BD32280020EFF31180602880417C
S31508006940C043C00F70470000002181F311887047CB
S315080069502DE9F14F9AB0DFF8E845606818909DF880
S315080069606800072808BF032002D0082802D10220A1
S315080069708DF86800DFF8CC552868696840EA012078
S31508006980A96840EA014000906868400703D5E069B5
S3150800699040F00200E0612868400703D5E06940F04E
S315080069A00400E0614FF0010A009829690AFA01F12A
S315080069B0084203D0E06940F00800E061DFF87C7522
S315080069C000207860DFF880859DF86800012800F0CF
S315080069D05782C0F07D8203281ED005D3042840F0D4
S315080069E077820020606017E0D8F84000C00703D51A
S315080069F0E06940F04000E061D8F84000400703D560
S31508006A00E06940F02000E061D8F84000800703D52F
S31508006A10E06940F01000E061FFF718F9FFF7D5F8D4
S31508006A208DF85C004FF0000BD8F840001690D8F8A7
S31508006A3044001590DFF81495D9F84C001490D9F84D
S31508006A4050001390D9F854001290D9F858001190B4
S31508006A50DFF8FC0400681090DFF8F40440680F9033
S31508006A60DFF8EC0440690E90DFF8E404406A0D9004
S31508006A70DFF8E06430680C9070680B90B0680A9094
S31508006A80F06809903069089070690790B0690690B7
S31508006A90F0690590B06B0490DFF8BC040068DFF875
S31508006AA0BC144968039102212160DFF8B41409680F
S31508006AB0DFF8B024126841EA0221DFF8AC24126834
S31508006AC041EA024102914FF0FF316162DFF89C14FE
S31508006AD00A687968D20408D56A68D20705D5E269D2
S31508006AE0D20744BFD34641F4807100F000FA9204FD
S31508006AF008D56A68520605D5E269D20744BFD34667
S31508006B0041F4804100F0F3F952040AD500F0E9F99E
S31508006B1007D0E269D20704D5D346EA680AFA02F230
S31508006B20114300F0E4F9120410D5009A2B690AFA09
S31508006B3003F31A420AD0E269D20702D4E2691207BD
S31508006B4004D5D3462A690AFA02F2114300F0CFF9AE
S31508006B50D20305D5E269120644BFD34641F0006167
S31508006B60796000216A68D20748BF4FF480516A6885
S31508006B70520648BF41F4005100F0B3F918BF41F47A
S31508006B8080412B690AFA03F31A4218BF41F40041FF
S31508006B90E269D20605D4E269920602D4E26952068F
S31508006BA001D541F01001E269120648BF41F480316F
S31508006BB008400190A520FEF7FFFFC4F83CA0E06955
S31508006BC0A16B11B1616A0142FAD0616A014200F013
S31508006BD0EF800020E063D346786840F08040786014
S31508006BE000F0E8F90720C8F800000F20C9F80000EF
S31508006BF0FFF74CFA189860601698C8F84000159880
S31508006C00C8F844001498C9F84C001398C9F85000FD
S31508006C101298C9F854001198C9F85800CC48109928
S31508006C2001600F9941600E9941610D9941620C9876
S31508006C3030600B9870600A98B0600998F060089800
S31508006C403061079870610698B0610598F0610498FC
S31508006C50B063C14801990160C04803994160C448BE
S31508006C604FF0FF310160BE480268BE480068BE4961
S31508006C700968636AE6693340D5F810C07E68DDF8AE
S31508006C8008E042EA002040EA014080EA0E00009946
S31508006C900840590801F0010140EA8120990801F0ED
S31508006CA0010140EA8100D90801F0010101FA0CF15D
S31508006CB0084303F47C7140EA015030437860FEF7DC
S31508006CC0C5FF00F085F9002020609DF85C0008B13A
S31508006CD0FEF767FF7868A0490968C90303D501016B
S31508006CE044BF20212162D8F84010890704D5C10184
S31508006CF044BF0221C8F80C10D8F84010490704D53B
S31508006D00810144BF0421C8F80C10D8F84010C907FF
S31508006D1003D5410148BFC8F80CA0D9F84C1011F0AA
S31508006D20E00F05D0C10503D590494FF480520A609B
S31508006D30D9F8501011F0E00F05D0410403D58B495E
S31508006D404FF400520A60D9F8541011F0E00F1EBF34
S31508006D50E9680AFA01F1084203D084494FF48042EF
S31508006D600A60D9F8581011F0E00F1EBF29690AFA0F
S31508006D7001F1084203D07D484FF400410160BBF1A0
S31508006D80000F74D17B480068000570D560688007DD
S31508006D906DD59DF86800042869D06F480068C0065C
S31508006DA042D572480068C0063ED587F800A05EE066
S31508006DB0BBF1000F7FF410AF6548806940084000BA
S31508006DC0634988616548C06840F004006349C86043
S31508006DD0694880F800A04FF20F01684A138840F20C
S31508006DE0072C634504BF53888B4203D14CF23C33CE
S31508006DF05380D346594B1B6843F08053DFF85CC178
S31508006E00CCF800300378002BFCD1BBF1000F1CBF77
S31508006E1051804FF0000B574840680004B860554948
S31508006E2089680843B860DDE6FEF7B4FEFA2190FBF0
S31508006E30F1F04FF47A7148432F303021B0FBF1F06E
S31508006E40002139704E494A6D42F001024A650A68C6
S31508006E50484B5B68474CA46844EA0343BC68A342B2
S31508006E6005D10B689B1A1B031B0B8342F0D378686A
S31508006E7040F0004078601BB0BDE8F04FFFF764BDF6
S31508006E80FEF7A3FE0446A520FEF796FE00F092F84C
S31508006E90FFF75AFD3B4D2E682868400840002860D9
S31508006EA000F08EF8384FD7F80080386820F0400098
S31508006EB0386000F081F8C7F800802E6000F080F88E
S31508006EC00CB1FEF76EFE1BB0BDE8F04F00F080B8BF
S31508006ED040F232410FF2BC001BB0BDE8F04FFCF7A0
S31508006EE0A1BB009AEB680AFA03F31A4270471F4AD5
S31508006EF012687047134ACBB21360C1F30723536075
S31508006F00C1F307419160214900230B601368002BE8
S31508006F1004BF5368002B01D192681AB10A6842F07F
S31508006F2001020A600A6842F400720A600A6842F0BE
S31508006F3080020A600CE51649DCE70000142B0020E5
S31508006F400400004008BC004014A0004014A80040FB
S31508006F50044000400050004000E100E004ED00E07D
S31508006F6008B0004008B4004008B8004000E200E05D
S31508006F7080E200E00C600040842C00200000002025
S31508006F803820004094ED00E00080004020000040DA
S31508006F9000404000736C6565702E630008237F22ED
S31508006FA0024801880248FCF7C7BC00BF2E5F0108EB
S31508006FB08C2C002072B6704700BF30BF00BF7047E8
S31508006FC0BFF35F8FBFF34F8FBFF36F8F704700001C
S31508006FD062B6704770B52B4842782B490B685B0739
S31508006FE023D5032A21DA00EB420384889C810123F6
S31508006FF0847803FA02F2224382700278234C8AB11B
S31508007000002503FA05F6164207D04570724002704D
S3150800701000EB4500808A206007E06D1CEDB2032D69
S31508007020EFD302E02260032242704FF6FF70086039
S31508007030BFF35F8F70BD13480021017003214170B3
S315080070400021C17005210181002181700F490022AC
S315080070500A604A604FF400428A601022CA60001D26
S315080070604861012088610320C8600748042101643B
S315080070704FF6FF71016006484FF400610160FBF7A7
S315080070806AB90000A02A002010A8004004D00040D9
S3150800709000E100E038B514461D46012840D1132901
S315080070A03CBF0FF2CC20095C08096422504301F06A
S315080070B00F010B2903D2884006E00A2250430A46EC
S315080070C0511ED2B20B2AF8D201460120FDF78BFFDA
S315080070D038BB280907280CBF00200220012C08BF4E
S315080070E040F0180003D0022C08BF40F0080005F055
S315080070F00F010229A8BF40F004008E4988600120CC
S3150800710008608D48016C41F4C04141F009010164F1
S315080071104FF6FF710160894820210160002032BDC9
S31508007120212032BD012800D0704710B5814800687B
S3150800713001280FD1FEF78AFD04468148016841F00F
S3150800714006010160012000F09CF82046BDE81040C9
S31508007150FEF7D6BF10BD012804D17948016821F091
S31508007160060101607047012802BF76488369012B32
S3150800717007D021207047C3685B07FCD511F8013B8F
S31508007180036013465A1EDBB2002BF4D1C1684906C8
S31508007190FCD50020704710B50446FEF709FD012C02
S315080071A003D1694800684006FBD510BD70472DE934
S315080071B0F043664951F82020654B664C664D674E8C
S315080071C0DFF8808119E0B2F804E036F810707F1E07
S315080071D0BE4526DAB2F800E096448EF806C017884F
S315080071E007F1010C35F810E09CFBFEF70EFB17CCF7
S315080071F0A2F800C097887F1C9780D8F80C70BF0744
S315080072003CD5D8F80C7017F03807D8F800C0DAD093
S315080072105FEA077C08D45FEAC76C08D54FF0240EEE
S315080072200BE04FF0230E08E04FF0270E05E0BF06EF
S315080072304CBF4FF0250E4FF0010E51F820C0075DE8
S3150800724037B9BCF8007023F8107000F804E0D4E7EA
S3150800725033F81070ACF8007000F804E0BCF802E0EF
S31508007260BCF8007077452FBFA7EB0E0E36F81090C6
S31508007270A9EB0E0EBE44ACF804E0BEE7BDE8F08309
S31508007280704770B5364951F82010364A2D4B0FE035
S315080072904C886418A4791C604C88641C32F8105019
S315080072A094FBF5F605FB16444C808C88641E8C808E
S315080072B08C8814B1DC686407EAD470BD2A482B4967
S315080072C0C2680A6002694A6000688860704719489F
S315080072D026490A6842614A68826189688160012193
S315080072E001601548016C41F4C04141F0090101648F
S315080072F04FF6FF7101601148202101607047704701
S3150800730038B50D4C0FE0256046F22970054203D0CA
S31508007310A9B20120FFF74BFF41F6D60005421CBF74
S315080073200120FFF7AEFF2068216C11EA0005EAD1BB
S3150800733031BD000054C8004008A8004000E100E044
S3150800734048A800403CC8004048C80040F028002033
S31508007350D8280020D428002060600008F05E0108C4
S31508007360E0280020586000085CC80040202B002058
S31508007370306090C0C1C2C394C495C55C96C6AC972C
S3150800738098990D002DE9F041314C00202065314EC9
S315080073904FF40055356002202060E5600020206526
S315080073A0206D40F060002065DFF8AC800E2000F00C
S315080073B01DF888F80000002060654FF480473760A4
S315080073C004202060E76025481621016000206065DA
S315080073D0606D40F060006065162000F007F888F8D8
S315080073E001001F4805600760BDE8F0810E2802D03D
S315080073F0162802D009E01B4800E01B4800688009EF
S3150800740000F0010080F0010070470020704710B5B9
S315080074100F484FF40051C160022101600E20FFF7AA
S31508007420E5FF01460C4C22788A4218BF21700DD11F
S31508007430501E8041C00F207021780E2003F06BFF8C
S315080074402178481E8041C00F207021780E2033E035
S3150800745014A8004080E100E0C52F002014BC0040BD
S3150800746000E100E008B4004008B8004010B506483E
S315080074704FF48041C160042101601620FFF7B6FF72
S315080074800146024C04E000BF14A80040C52F0020A6
S3150800749062788A4218BF61700DD1501E8041C00FB4
S315080074A060706178162003F036FF6178481E8041C7
S315080074B0C00F607061781620BDE8104003F02BBF3E
S315080074C030B51C4801680020002201249440CBB244
S315080074D0234212D00FF2680030F812004CF23C3109
S315080074E04FF20F02144B062811D1588890420AD140
S315080074F01888020A0B2A06D207E0521C082AE4D387
S315080075000E49088030BD4FF4C0605980F8E740F254
S315080075100724A04201BF5D8895421A88A242EFD18E
S3150800752059802046ECE705480088000A704703485A
S31508007530008870472C00004000000020BE2A00206A
S3150800754001040204010301050600070203090109F3
