S02400007365637572652D73657269616C2D756172742D626F6F746C6F616465722E7333375B
S31508000000000400206F00000885000008850000082D
S31508000010A70B090100000000010101530020000898
S3150800002004050000390A0008D10E0008F804000883
S3150800003000000000000000000000000000000000B2
S315080000400000000000000000000000008101000020
S31508000050FFFFFFFF09480068202100EA010028B1D8
S315080000600748016842685FEA010D10477047FFF7C5
S31508000070F1FF00F010F800F041F800002C000040F5
S315080000800020000803E000005FEA000D70474FF407
S31508000090017000F09BB838B54FF20F043F4D00F0E1
S315080000A0C1F828B140F2052028806C80012032BDB5
S315080000B03B480068C00613D56888A0421CD128882A
S315080000C040F2022188421CBF40F20621884213D022
S315080000D040F2011188421CBF40F2111188420BD030
S315080000E0304C208A40F6A721884205D12068FFF7C0
S315080000F0CBFF6068804700BF002032BD38B5044694
S3150800010072B62948016849084900016000F0D0F82C
S31508000110234800680009C10754BF2449244902E05E
S31508000120CD2201F8012B234A9142F9D32249234AC9
S31508000130234B03E011F8015B02F8015B9A42F9D3FD
S315080001402049214A002301E001F8013B9142FBD3F3
S3150800015040F20521114A53884FF20F05AB420BD1E5
S3150800016013888B4206D0C00706D5180A012818BF7F
S31508000170022801D1194601E004B900210648018088
S315080001804CF23C30508000F09DF94FF40170BDE808
S31508000190324000F01BB80000280C002000000020A8
S315080001A02C00004000200008FCED00E000000020C4
S315080001B098000020000400200C1700080004002006
S315080001C008040020080400202D0C00200D493022C8
S315080001D00A600D490A600D490A600D4910220A6035
S315080001E0010A08BF00020B4908804FF20F00488039
S315080001F0BFF35F8F0848002101604160074808493E
S31508000200016070473020004030C8004030C00040D0
S3150800021010D00040000000201C4000400CED00E01B
S315080002200400FA050020704780B500F080F9012126
S31508000230062000F087F9062000F0B7F9012107200B
S3150800024000F080F9072000F0A3F91748016821F0AB
S315080002501001016001BD0000052800D9704710B5DE
S31508000260DFE800F01721030F1C17104C2088411EE9
S315080002702180C0B9072000F0A5F942F2107020804D
S3150800028010BD072000F091F90620BDE8104000F0E7
S3150800029099B90620BDE8104000F07AB90620BDE8F5
S315080002A0104000F082B910BD00BC00402A0C0020A6
S315080002B02AE038B5054600F02DF9FA2190FBF1F44D
S315080002C04FF4F070B0FBF4F02D1A2DB21E2DBCBF02
S315080002D04FF40170FFF77AFF5F480721016000219C
S315080002E0416081605D494FF000720A6005FB04F1C8
S315080002F0C91C8908491E416031BD5A48016841F048
S315080003000101016001214160574851210160704790
S31508000310002070472DE9F843804640F2DC594C46E8
S315080003204F48B0F900704C48514D504E012F1ADA1B
S315080003300221B18029600068C00348BF00F075F843
S31508000340A86900F0030003285DD0002F03D5A8692B
S3150800035040F00200A8614046FFF7DAFF04001AD110
S31508000360002F50D54DE04FF6FF77B188B9421CD122
S3150800037002237F223F480188301D00F039F9B088F2
S31508000380B84204BF0220B080A869800703D4A869D0
S3150800039040F00200A86101207070B088286020B281
S315080003A0FFF787FF2046BDE8F283A9698907EED5DE
S315080003B00068C00348BF00F038F8707808B14846AE
S315080003C0F1E7A86810F00100A968B28803D10F2ADE
S315080003D008D2521C06E0890704D5F17811B1032A20
S315080003E028BF521EF07092B2022A38BF0222B2808B
S315080003F02868B1888842CED1A86900F0030003288E
S3150800040001D0FFF77AFF0020CDE710B5044604E0D7
S3150800041000F022F90620FFF77BFF2046FFF77AFF58
S315080004200028F5D110BD0220EFE70B4800214160F6
S315080004308160016821F00201016008484FF00071EF
S3150800044001600A48417801B9704780B500214170BA
S315080004500620FFF75DFF01BD10E000E004ED00E0B7
S315080004600A1700081C4000400080004000040020D5
S3150800047004400040081700080078704730B5DBB024
S315080004800446214636A800F041F9002000904FF4B2
S3150800049002630B4A36A901A800F0CEFA0FF24C0205
S315080004A001A90FF2540000F013FD054600F046F8C6
S315080004B01DB12146284600F075F928465BB030BDC7
S315080004C00804002080B5FFF7AEFFFFF7ADFE00F089
S315080004D02DFD00F0B5FD40F20120FFF777FE002064
S315080004E002BD012A08BF00F036BD70477D16000818
S315080004F0B9160008790400085F090008970900087A
S3150800050019480068C00702D442F6E060704745F60D
S31508000510C050704780B5FFF7F3FF1449096801B961
S31508000520400802BD80B5FFF7EBFF400802BD104842
S31508000530012181604EF6BE21416000E00D4801218F
S315080005400160704710B582080FF22C0353F8222079
S31508000550136800F0030080000F248440A34301FAC7
S3150800056000F01843106010BD1C40004020400040B9
S31508000570006000400860004000B0004004B0004041
S3150800058000B4004004B4004000B8004004B800407D
S31508000590C108032908D2C1108902124A012300F0B2
S315080005A0070003FA00F050507047C108032908D223
S315080005B0C11089020C4A012300F0070003FA00F073
S315080005C050507047C10803290BD2C110074A02EBE5
S315080005D081210A68012300F0070003FA00F0504061
S315080005E00860704714B0004010B000400CB00040DE
S315080005F030B583B0044610467F2808BF0020B1F501
S31508000600004F1AD108237F2240F6120100A8FFF7EF
S31508000610EFFF08220FF2380100A800F035FE30B9C6
S3150800062008237F2240F2A27100A8FFF7E1FF082203
S3150800063000A9204600F008FE37BD1A46034D294397
S3150800064000FB0311204600F0FFFD37BD000004083B
S31508000650FFFFFFFFFFFFFFFF70B50646274C256823
S31508000660FFF760FFFA2190FBF1F070432F3030213D
S31508000670B0FBF1F0032809D3616D41F00101616512
S315080006802168491B0903090B8142F9D370BD38B5A6
S315080006900C4620B1012818D003282BD02CE0184D81
S315080006A08CB1184884421CBF4FF40170FFF78EFDC9
S315080006B0FFF738FF4FF47A714843B0FBF4F0401E59
S315080006C0B0F5005F0ED2286014E05CB1FFF72AFF90
S315080006D04FF4FA61620801FB0020B0FBF4F0B0F5B4
S315080006E0003F01D3202032BD074900F001024A60CD
S315080006F040080860002032BD212032BD3820004065
S31508000700100004E020A1070068C80040017001221B
S315080007104270827001290CBF80214021818000210E
S31508000720C18001811D4801600E218162016821F0A6
S31508000730100101600021416341627047F8B5044623
S315080007400D46164616484FF0FF310160134FFE62FC
S3150800075000207862386840F001003860FFF7EEFE46
S31508000760012C19D16DB900F045FC78B9786AB04208
S31508000770F4D3002EF2D038684008400038601620BE
S31508000780F2BD284600F03DFC0028EFD13868400845
S31508000790400038600020F2BD0120F2BD00E00040B4
S315080007A000A8004038B504460D4600F009F800F0E8
S315080007B007F82A4621461820BDE83840FFF791BEBB
S315080007C02A4621461820FFF78CBE30B583B004466A
S315080007D0002020814AF6B43200A92078FFF7AEFF40
S315080007E008B11C203EBD9DF80000032818BF182834
S315080007F001D118203EBD042801D117203EBD01288D
S3150800080001D021203EBD002500E06D1CEDB2A18877
S31508000810091D8D420BDA40F2DD22281900F10A0182
S315080008202078FFF78BFF0028EFD026203EBD002555
S31508000830002006E00146EDB22819007B00F036FDDF
S315080008406D1CA188EAB28A42F4D3A27AE37A9B188D
S31508000850FF2B01D022203EBD0B191D7BB5EB102FB7
S3150800086001D023203EBD5B7BC0B2834201D0242049
S315080008703EBDA078824207D0401EC0B2824201D156
S3150800088027203EBD25203EBD881C20810220E08011
S3150800089000203EBD38B504466078012804D023D32D
S315080008A0032855D018D31FE02078012811D13B25FD
S315080008B0432000F050FB40F2DD2200212078FFF7AC
S315080008C03DFF30B12846451EC0B20028F0D11B2096
S315080008D032BD0220607010E000F0A6FB00F03AF886
S315080008E0A078401CA07008E0182032BD2278A078B5
S315080008F0411EC9B20620FFF7F4FD2046FFF765FF43
S31508000900050018BF00F090FB272DEFD0A8060BD5E1
S315080009102278A1781520FFF7E4FD002DEDD10320FC
S31508000920FFF79AFC002032BD680603D4182D18BFBD
S315080009301C2D07D121782846FFF734FF0420607064
S31508000940284632BD172DE8D100F004F80320607060
S31508000950172032BD2278A1780620FFF7C2BDF8B568
S3150800096004460D461646002706E0E088411CE1804D
S315080009700019807A78557F1CBFB2B74209D2E08841
S3150800098021898842F1D32046FFF784FF0028ECD05E
S31508000990F2BD0020F2BD10B504462046FFF77AFFE7
S315080009A00028FAD010BD0000F8B504460D461646D4
S315080009B01F4607E03046A047294600F089FC054651
S315080009C07F1E761CBFB2002FF4D12846F2BD38B57B
S315080009D00C46154605E0014614F8010B00F078FCB4
S315080009E06D1EADB2002DF6D132BDF8B507460E46DE
S315080009F014461D462A46214630683B689847070034
S31508000A0005D12A462146F068FFF7E1FFF060D6F8DF
S31508000A10A8002818C6F8A80096F8A70050B1AC3662
S31508000A202A462146304600F027FD2A46214630460A
S31508000A3000F0A2FC3846F2BD10B5029C8472038110
S31508000A40426001604FF0FF31C16000210174A0F8D7
S31508000A50A410802180F8A610002180F8A710C0F8FD
S31508000A60A8102822AC30BDE8104000F006BC2DE9DD
S31508000A70F84F04468B461E469BF81B70802F28BFEE
S31508000A808027D0689249884250D1002E4CD0B06851
S31508000A9000904FF0FF384FF000090BEB490A9AF81F
S31508000AA048500FE0FF2D16D0FFF748FD4FF40063BE
S31508000AB0E80240F0006241460098FFF775FF80465D
S31508000AC0681CC5B29AF84900A842EBDA09F101098F
S31508000AD0B9F1060FE1DBDBF844006FEA080188424A
S31508000AE024D1A06800BA7A08594673689847C8B9E5
S31508000AF0E06805BAA06802BA3B464FF0FF31B06815
S31508000B00FFF752FFC04385420CD140F6A720ABF849
S31508000B101000A06800BA01220BF1100110307368AA
S31508000B20984708B1422002E0172000E04320BDE8BC
S31508000B30F28F2DE9F44F82B081460D46D5F804B000
S31508000B402889ADF8000005F1140606F110070423FC
S31508000B505A4600F0BBF9002871D1BBF8000040BA2C
S31508000B601FFA80F8BBF8020040BA84B2E00748BF13
S31508000B70462064D4B4F5026FC8BF4E205FDC002C53
S31508000B805CD0DFF850A15FEA080009D04FF60441AF
S31508000B90B8EB010052D0FF3853D0FE3851D095E05B
S31508000BA0287C08B151204AE08D2C28BF4F2046D218
S31508000BB02346321D00F089F9002840D1FA7E802AA2
S31508000BC028BF802202F10C00844201BFB08840BAD7
S31508000BD000F47F40B0F5007F2CD1F08840BA4EF281
S31508000BE05031884202BF388A40F6A721884221D16F
S31508000BF0788A00F47F40B0F5807F01BFB06800BAFC
S31508000C00DAF81C10884215D14FF6FF70388206F1C3
S31508000C1010014FF0FF30FFF7DAFEF16809BAC94351
S31508000C20884204BF387E042804D1787E052818BF78
S31508000C30062801D0452002E0012028740020BDE8DE
S31508000C40FE8F287C08B94120F9E7042300F03CF917
S31508000C500028F4D1DBF8000006BA201F84B2DAF8BF
S31508000C601C00864238BF4820E9D3A019796D88420E
S31508000C7028BF4920E3D24FF6035080450CD102988D
S31508000C8050B131460220029A1268904720B14A2094
S31508000C90D5E7E01B84B2BE19002CCFD0BDF8000002
S31508000CA08442B4BF274607463B4600F00DF90028A4
S31508000CB0C5D102980028ECD07A0859463046029BDE
S31508000CC05B6898470028E4D04B20B8E74420B6E78D
S31508000CD0E320BBDE000000082DE9F84304468846F9
S31508000CE0154605F1AC062F89102C38BF4E202CD39B
S31508000CF00423324600F02BF838BB0C23321D00F0D3
S31508000D0026F810BBA4F11001306800BA30608CB226
S31508000D102146304600F0F8FA06E04A466968304649
S31508000D2000F02AFBA4EB0904A4B254B1A146BC42C4
S31508000D3088BFB9464B466A6800F009F80028ECD027
S31508000D4003E0304600F03BFB0020BDE8F28329466D
S31508000D5040464AE62DE9FE4F81460C4690466668AF
S31508000D6004F1140A0AF1100B04F1A405A8788328E3
S31508000D7005D14FF60710AF888221A9700AE004232F
S31508000D80324600F0A3F8002866D1308840BA718848
S31508000D9049BA8FB2F90748BF46205DD4A97880B210
S31508000DA04FF20972801A58D04FF4FF72801A3AD05F
S31508000DB0FF382FD0FF3802D0FF386BD081E080296A
S31508000DC06AD1062F23D3062301AA21464846FFF7F0
S31508000DD00CFEE8B9BDF8040040BA00F47F40B0F54F
S31508000DE0007F01BFBDF8080040BA4EF25031884274
S31508000DF00DD1BDF8060040BA012818BF522007D108
S31508000E00BDF8060040BAA4F8A400002000E045207A
S31508000E10812154E081293FD1224649463846FFF7C9
S31508000E205BFF82214BE0822936D1042F2DD3012086
S31508000E30E87000206860424621464846FFF779FE7A
S31508000E4018BB0021E97069688F421ED3B94239D2AE
S31508000E508322AA70791A696034E082291CD104F1C8
S31508000E60AC08404600F0ABFA2089B842B8BF4F201C
S31508000E7028DB3B463246214600F028F810BBFAB27A
S31508000E803146404600F0C1FA08B954201AE000205D
S31508000E90842114E0842901D0512013E0042F18BFBF
S31508000EA04C200FD104233246214600F00FF848B9EA
S31508000EB04346224659465046FFF7D9FD8521A97073
S31508000EC000E04420BDE8FE8F5A46294648468CE590
S31508000ED070B505460C4616462089C10701D48028F8
S31508000EE001DA4F2070BD00F003FA08B9532070BD2F
S31508000EF0324621462846FFF72DFF002818BF172837
S31508000F0003D08F2184F8A61070BD94F8A600852812
S31508000F1006D1206869688847172805D1002070BD62
S31508000F20A07A0028E4D0502070BD000080B54FF4A8
S31508000F30E1310120FFF7ABFB38480221816001212E
S31508000F40016009210920FFF7FDFA04210A20BDE8FE
S31508000F500440FFF7F7BA3349CA685207FCD5086058
S31508000F60704710B5044603E014F8010BFFF7F3FFCA
S31508000F7020780028F8D110BD7CB500A90FF2B80278
S31508000F8018CA18C1052104220A230CE080B290FB76
S31508000F90F3F403FB1405EDB2204600AC05F1300668
S31508000FA00E5505B10A46491E49B20029EED5D2B2F8
S31508000FB000A81018FFF7D5FF73BD10B50446200921
S31508000FC00A282CBF37303030C0B2FFF7C4FF04F010
S31508000FD00F000A282CBF37303030C0B2BDE81040A9
S31508000FE0B9E710B50446200AFFF7E7FFE0B2BDE807
S31508000FF01040E2E70A48006810F0020018BF012016
S31508001000704710B50446FFF7F5FF20B1054800689C
S315080010102070002010BD012010BD000054C80040FB
S3150800102048C800403CC8004080B500A8FFF7E9FF63
S315080010300028FAD001BD0000303030303000000002
S315080010402DE9F84FFFF77AFAFFF7EEFF0020FFF7D2
S3150800105003F90FF27018474D44A60FF23C1B44A43F
S31508001060DFF814910FF2141A1DE05046FFF779FFC6
S315080010700C27B9F81A00384100F00F00FFF77CFF7B
S31508001080012FA4BF2E20FFF766FF3F1FF1D520468C
S31508001090FFF767FFB9F84C00FFF76EFF5846FFF7F2
S315080010A060FFFFF7C1FFFFF749FA0220FFF7D4F800
S315080010B000A8FFF7A6FF0028F5D19DF80000FFF766
S315080010C04AFF9DF800000A2818BF0D28CDD0312800
S315080010D004D032282FD0332832D0E2E70FF2F400BA
S315080010E0FFF73FFF0120FFF7C9F907460FF2F8009F
S315080010F0FFF737FF380005D10520FFF7ADF80FF2E7
S31508001100FC00CCE70420FFF7A7F80FF2FC00FFF776
S3150800111028FFB80648BF0FF2FC0005D478064CBF76
S315080011200FF208100FF21410FFF71BFF3846FFF7EF
S3150800113058FF3046B3E70120FFF78EF8BDE8F18F78
S3150800114000273046FFF70DFF288A40F6A721884278
S3150800115018BF4046A3D1781990F824007F1C20B107
S31508001160FFF7F9FEFFB2202FF5D3E2E70D0A0000DC
S315080011702062000000200008000000080D0A454D06
S315080011803335312053657269616C20426F6F746C18
S315080011906F616465722076000D0A312E2075706CB9
S315080011A06F61642065626C0D0A322E2072756E0DB1
S315080011B00A332E2065626C20696E666F0D0A424CF2
S315080011C0203E20002A2A206E6F20617070202A2A6D
S315080011D00D0A00000D0A626567696E2075706C6FEE
S315080011E061640D0A000000000D0A53657269616C9E
S315080011F02075706C6F61642000000000636F6D706D
S315080012006C6574650D0A000061626F727465640D21
S315080012100A0000000D0A584D6F64656D20626C6FF8
S31508001220636B206572726F72203078000D0A6669EA
S315080012306C65206572726F72203078000D0A6572CF
S31508001240726F722030780000814212D21018401E48
S315080012505118491E92B2002A1EBF11F8013900F82A
S315080012600139521EF6D1704711F8013B00F8013BCF
S31508001270521E92B2002AF7D17047130003D00A46CD
S31508001280194600F025B9704710B500E0521E92B213
S3150800129032B110F8013B11F8014BA342F6D001E038
S315080012A0002010BD181B40B210BD00000A0242EA19
S315080012B011214840C0F30311484080EA003041013B
S315080012C0C9B20206D20E41EA0221484080B27047EE
S315080012D00A0A4840C0B208214308C00746BF034867
S315080012E058401846491EF7D1504070472083B8ED3C
S315080012F000206049415CFF2901D001207047401C4D
S315080013001028F6DB0020704712B583B00446206823
S3150800131000BA00903A20039901B17A2020740C2271
S31508001320211D04F11100FFF78FFF03220DF10101C2
S3150800133004F11D00FFF788FF00F03CF80398D0B1D0
S31508001340B0F57F4F05D200BA039002220DF10E01C7
S315080013500EE00FF278100088ADF80400039800BA82
S315080013600390022201A9204600F006F8042203A9E8
S31508001370204600F001F81FBDF8B504460D4616468E
S31508001380002714E094F825000019017C7A5D514085
S31508001390017494F82500401C84F82500C0B2102872
S315080013A004D300F007F8002084F825007F1CB74214
S315080013B0E8D3F1BD2F4904F1100000F003B91FB5B9
S315080013C0044600A8102100F007F994F82500C0F19A
S315080013D01000C11000EB11710911A0EB011200A950
S315080013E02046FFF7C9FF1FBD1FB50C4600AA011D01
S315080013F0002000F027F80020015D00AA825C514019
S315080014000155401C1028F7DB1FBD38B504460D46AC
S31508001410102A07D12068216A94F8242002EB0111CA
S31508001420884201D0002032BD29462046FFF7DCFF5E
S31508001430102204F110012846FFF726FF401E8041BE
S31508001440C00F32BD11B581B0144600BA0190022012
S3150800145020700C22601CFFF7F7FE03220DF1050130
S3150800146004F10D00FFF7F0FE0249204600F0AAF845
S3150800147013BD0000F8080408F0B585B004460D460B
S315080014801646002100271DE031B900AA211D206A51
S31508001490401CFFF7D7FF012104F120007A5D03798C
S315080014A00DF1000C13F80C305A407A550279521C8B
S315080014B0D2B2102A04D30022216A491C21620021D3
S315080014C002717F1CB742DFD305B0F0BDFFFE0000F6
S315080014D062F30F2262F31F42401810F0030308D08C
S315080014E0C91A1FD3DB0748BF00F8012D28BF20F80B
S315080014F0022D130030B414461546103928BF20E9CA
S315080015003C00FAD8490728BF20E90C0048BF40F834
S31508001510042D890028BF20F8022D48BF00F8012DA8
S3150800152030BC7047C91818BF00F8012DCB0728BF73
S3150800153000F8012D7047000038B504461B4D2146BA
S3150800154000F03DF8E860211D00F039F8A86004F1C4
S31508001550080100F034F8686004F10C0100F02FF877
S31508001560286031BDF8B50446114D80202860114E1B
S31508001570062030600720286030688007FCD50027E1
S3150800158004EB870100F01BF8A8627F1C042FF7D331
S3150800159030684007FCD500262A6B04EB860100F06C
S315080015A00BF8761C042EF7D3F1BD00003830004046
S315080015B00030004010A00040002000F010B80020C5
S315080015C000F01BB810B504460846FFF7B5FF2046DD
S315080015D0BDE81040C6E70000002200F023B810B5A9
S315080015E00023002814BF1C46C3F10304E4B2625466
S315080015F0120A5B1C042BF4D310BD30B54A788B78DD
S31508001600CC78097818B120461D460C4602E00846F3
S3150800161015461A4655EA002054EA022141EA0040D6
S3150800162030BD000000B500BF130096469446103939
S3150800163028BFA0E80C50FAD85FEA417C28BF0CC046
S3150800164048BF40F8042BC90728BF20F8022B48BF1B
S3150800165000F8012B00BD00002848018A40F6A77251
S31508001660914202BF418A4FF47F40014204D10229C8
S315080016708041C043C00F704700207047F8B5044644
S315080016800D461D4E01203070FFF7E6FF18B94FF4DE
S315080016900170FEF79BFD1948876A294644F4807055
S315080016A0B847002131700FF2580618B9294644F494
S315080016B00070B847805DF2BD2DE9F04104468846C2
S315080016C05600FFF7C9FF18B94FF40170FEF77EFD03
S315080016D00A48476A0023324641462046B8470FF271
S315080016E0200520B93346002241462046B847405DCA
S315080016F0BDE8F081000000002C0C00200000040862
S31508001700000202024B4B4647EE08C05D000000018E
S30908001710FFFF0000C9
S7050800006F83
