S00D000073656E736F722E7333374D
S31508004000606E0020F5C3010801BC010803BC010865
S31508004010A70A080100410008040D03AC01538101F9
S315080040200000000000000000000000000000000082
S315080040300000000000000000000000000000000072
S315080040400000000000000000FFFFFFFFFFFFFFFF6A
S31508004050FFFFFFFF00E00708000000000000000067
S31508004060FFFFFFFFFFFFFFFFFFFFFFFFFFFFFFFF52
S31508004070FFFFFFFFFFFFFFFFFFFFFFFFFFFFFFFF42
S31508004080F07F002000000000EC7F0020EC7F00207D
S31508004090606E002024D10108B4C60108006500201E
S311080040A0800500200000080800800020B1
S31508004100606E0020F5C3010801BC010803BC010864
S3150800411007BC010805BC010809BC010880BC0108E8
S3150800412080BC010880BC010880BC010880BC01086D
S315080041300BBC010880BC010865C60108BD6B0008F8
S315080041401597010880BC0108C154000880BC010805
S315080041501FAA00080B9C000880BC010880BC010847
S315080041604D8F000861620008755D00081597000804
S3150800417080BC0108139D0008719D000863C00108F2
S3150800418009A7000880BC010880BC010881BE010897
S315080041907047002A1CBF022A042A01D1032070474F
S315080041A044480078704770477047704770477047B3
S315080041B06C2070476C207047704700207047704726
S315080041C0704700013C49405C704710B53A4A0023E5
S315080041D001E05B1C1032394C2478DBB2A3420FD2C3
S315080041E014788442F5D1506802880A8042884A8049
S315080041F002790A7142794A7180798871012010BD65
S31508004200002010BD30B52C4B002401E0641C10338F
S315080042102A4D2D78E4B2AC420CD21D788542F5D1F0
S3150800422011B10129F2D101E0986800E0D86830F8A8
S31508004230120030BD002030BD704770477047704788
S315080042400020704700F0FEB938B5044643282FD041
S3150800425044280ED0452806D0462818BF47280CD033
S315080042604D2825D01CE001F00CF801F00AF801F001
S3150800427008F8BDE8314001F004B8114D2878B8B9FE
S3150800428001202870002001F06BF8472C0CBF40F67F
S31508004290010040F6020001F0F3F80020287031BD55
S315080042A04FF452710FF21C00BDE8344001F0A6B974
S315080042B031BD0000CA7F0020D86F0020D46F0020CF
S315080042C0CB7F0020656D6265722D636F6E666967C8
S315080042D075726174696F6E2E63000000DFF8D4345E
S315080042E033F810001040C840704730B5DFF8C834BE
S315080042F00FF2745434F810409C60DFF8B84434F870
S315080043001050954311402943D96002221A600022B1
S315080043101A6024F8101058680028FCD130BDDFF860
S315080043209C04DFF89C148A780AB149780FE089560C
S315080043306FF008029142B8BF302108DBC16D39B170
S3150800434040F24A31C26DB1FBF2F189B2C91E016071
S315080043507047E0B50A237F22DFF8680400F062F8A8
S315080043604FF6FF72BDF806100D20FFF7BEFF07BD1A
S31508004370F8B50546DFF84844B5F5004F19D10223CC
S315080043807F22DFF8440400F04DF8BDF80000000A6B
S31508004390FF2814BF002818206070BDF8000000062A
S315080043A0C00E10281CBF001D00F091F9BDF80000D2
S315080043B0C543E07808B1002005E0A089ADB26840A1
S315080043C0C00701D50120E070A58105F00106C5F3F7
S315080043D04007DFF8F803016841F4004101604FF433
S315080043E040520FF2A84000EB46004078010389B21C
S315080043F00220FFF77AFF304601F014FA4022B9018D
S3150800440000F0FCF92D06A80E00F001003843A07054
S31508004410FFF785FFE07818B1FFF79BFF0020E070F3
S315080044200020F2BD018800A801F072BA2DE9F04F0C
S3150800443087B0DFF89C53287804900B38C0B20390F5
S315080044400423039A0B2100A801F0DBFA9DF800006B
S315080044508DF80A009DF801008DF809009DF8020004
S315080044608DF808009DF803008DF80500D94E3078C0
S31508004470012804D16878471EBF41FF0F00E00127D5
S3150800448001F03AFD80469DF90200A8F10A0408F1F8
S315080044900A0A5045B6BF84424FF0010B4FF0000B95
S315080044A0012003998840ADF806009DF80100000632
S315080044B004D4A888BDF80610084201D04FF0010BB5
S315080044C001F096FD9DF8030000060AD4E888BDF8B9
S315080044D00610084205D19DF900005045B8BF844230
S315080044E002DB4FF0010901E04FF000094BEA070033
S315080044F059EA000000F09B80B748006800F0020007
S315080045008DF80400DFF8D4A2DAF8000000F4E060C1
S315080045100590B3484FF4E0610160002002F022F9EB
S3150800452002F0FBFBAF4CA7B1687850B1AA48006807
S3150800453040084000A84908600120307002F0D1FC0C
S3150800454007E0206840F400502060206820F480507E
S315080045502060307801280CD102F031FE9E480068B0
S3150800456040F001009C49086000203070642002F089
S31508004570B8FC2FB1687818B90498C0B202F0C1FE29
S31508004580687838B1206820F480502060206840F4AC
S3150800459000502060BDF80600C643BBF1000F08D0E6
S315080045A002F09CFF8DF801008DF80280A888304043
S315080045B0A880B9F1000F08D003F037F88DF803008A
S315080045C08DF80080E8883040E8809DF900009DF964
S315080045D00A10884202BF9DF801009DF8091088421A
S315080045E00BD19DF902009DF90810884202BF9DF87B
S315080045F003009DF80510884206D0042300AA0399F3
S31508004600C9B20B2001F00FFA0598CAF8000001F0AC
S3150800461041FA9DF8040002F0A5F803F02AF9687833
S3150800462028B148F260702060642002F05AFC9DF8B8
S31508004630010002F0BDFE9DF8030002F0F1FF07B08D
S31508004640BDE8F08F80B501F053FCBDE80140EDE60A
S3150800465001F04EBC70B50646A6F10B0401F0E5FF65
S315080046600546A6F10B00C0B2102801D38A2070BDFA
S315080046705D488168090702D40068C00701D58C2007
S3150800468070BD5348067059490A680C2A0ED0A4B260
S315080046900FF26C1232F8242090F908008018C861CD
S315080046A0FFF7C4FE012D08BF01F063FF002070BDAF
S315080046B010B5044601F01CFC2046BDE81040C9E7C9
S315080046C04348007870473E4890F9000070472DE946
S315080046D0F04186B006466FF02A00864246DB142370
S315080046E07F224348FFF79EFEBDF810004FF6FF7184
S315080046F0884203D0400448BF012506D43F22002142
S315080047001020FFF7EBFD044600252D48394906F130
S315080047102B02D2B22F2A1AD213220FF2241300E048
S31508004720521ED2B213F91270BE42F9DB03EB4206EF
S3150800473076780E6013F81210017000200026804665
S315080047400327ADB14FF6BF72BDF8101029E0092E48
S315080047500CDA325C0A60067014237F222648FFF7BB
S3150800476061FE03200126B0462827EAE78B201DE0D4
S315080047704FF46052C10200F041F84FF4E062310292
S3150800478000F03CF880224FEAC81100F037F884F0B0
S3150800479020003C18A4B2402C28BF3F243F2284F0B6
S315080047A0200100F02BF8FFF7BAFD002006B0BDE89F
S315080047B0F0810000847C0020E8100040641000406E
S315080047C01C710020CECC0108DCCC01081C1000406E
S315080047D010710020DD7100208020004000E100E01B
S315080047E080E100E0D010004060200040AC1000409E
S315080047F0CACC0108C0100040CCCC01080B2074E5D7
S31508004800AA2129005523290000252800AA262700C1
S3150800481055282700002A2600AA2B2600552D2500F4
S31508004820002F2400AA302400553223000034220029
S31508004830AA3522005537210000392000AA3A20005F
S31508004840D500E601EC02EF03F204F405F506F707D6
S31508004850F808F909FA0AFB0BFC0DFD0FFE11FF1308
S3150800486000160119021C031F100011002000300059
S315080048704000410050006000700080009000A000D9
S31508004880B000C000D000E000F00000000000010306
S3150800489010B5DFF8643ADFF8644A2488001B03EB96
S315080048A04000002304E030F8134021F813405B1C55
S315080048B09342F8DB002010BD2DE9F04182B0044692
S315080048C00D4616460027DFF8308A01E0B81CC7B245
S315080048D0B7421ADA78194078795D01EB0020ADF80D
S315080048E00000012200A907EBD77004EB6000DFF88F
S315080048F00C3A1B88C01A08EB400003F03CF8002865
S31508004900E4D0FFF7A1FC002000E00120BDE8F68115
S31508004910F8B504460E46154600270DE000F019F8CE
S31508004920761C04EB4700BDF80010090A4170BDF873
S31508004930000004F817007F1CB7EB550FEEDBE807FD
S3150800494006D500F006F82819BDF8001000F8011C75
S31508004950F1BD012200A9B0B29AE7DFF89C19DFF889
S315080049609C291288801A01EB4001022002F0CABF76
S31508004970DFF88C19415CDFF88C29825CDFF888390E
S31508004980C05C10B102F5997292B241EAC21080B2C7
S31508004990704710B5DFF8743903EB4002DFF8604959
S315080049A0005D012801D1104610BD1088081803EBD8
S315080049B0400010BD38B50C46DFF854190D782A4664
S315080049C02146FFF765FF208800281CBF4FF6FF71B8
S315080049D088420AD0012000E0401CC0B2A84206D294
S315080049E034F8101022889142F6D0002032BD0120FA
S315080049F032BD2DE9F04F9DB089460446DFF814799B
S31508004A00002038707880DFF810090088ADF80000BB
S31508004A1008A9FFF7CFFF824601207870DFF8FC0867
S31508004A200588DFF8FC08B0F80080BDF80060DFF8FC
S31508004A30CC080088ADF8040083460AA9FFF7BAFF38
S31508004A40D0B1BAF1000F43D04FF6FE70BDF8201072
S31508004A50814204D1BDF82800012806D10FE00129BA
S31508004A6004BFBDF82810814232D0BDF82000BDF839
S31508004A70281088422CD202E0BAF1000F27D0002075
S31508004A8078703046CDF808B00795CDF81480DFF871
S31508004A90801809788DF806100818ADF8100000F08F
S31508004AA05DFABDF81000FFF7F3FEDFF87808008816
S31508004AB00690BDF80200000B4FF6FF789DF8061029
S31508004AC0884218BF0F2800D114B3002515E0012429
S31508004AD078780128D5D158460296CDF81C800595D8
S31508004AE0D5E7069805FB00F4BDF8040000F028FC9D
S31508004AF0BDF8000000F024FC6D1C9DF806008542F8
S31508004B00EFDB012038704D20FFF79EFB0025FBE008
S31508004B10BDF8105000F022FA2846FFF7B9FE6E1CC1
S31508004B20BDF80200C043C0B2ADF80200DFF8F807CE
S31508004B300588BDF80200A84218BF01244FF0000AF4
S31508004B401FE0401CC1B2A94217D2C0B28346DFF8A3
S31508004B50DC1731F81B10BDF80E209142F1D1FFF792
S31508004B6007FF4FF680710840BDF80C104FF68072AB
S31508004B701140884208BF0BF809A00AF101001FFA84
S31508004B8080FABDF80200824507DA022203A9B0B20C
S31508004B90FFF77EFEB61C0020D4E7002100E0491C82
S31508004BA0A94219DA11F809008842F8D0012413E05D
S31508004BB02AF81160012201A9BDF8103003EB400064
S31508004BC0401C00F0D0FABDF80400C0F3C710401C22
S31508004BD000EBD07006EB6006DFF830A7B6B2059892
S31508004BE0864213DA012200A93046FFF751FEBDF8C6
S31508004BF0000040450AD0761C000ABDF8001001F0F6
S31508004C007F02BDF80210884202DB012400252BE052
S31508004C10002100E0491CA942CCDA11F80930834288
S31508004C20F8D1C9B2FF29C5D07F2A0CBF4FF0000CB6
S31508004C309446DFF8CC36CB5C9C4509DABDF800C053
S31508004C40CCF3C01CDFF8C0E611F80EE0F44501D03D
S31508004C500124AFE7012BABD07F2A08BF00223AF820
S31508004C6011105118A4E76D1CDFF8C40600888542A8
S31508004C7004DA3AF815004045F5D101247E80B5B22C
S31508004C80059885420ADA012200A92846FFF700FEA0
S31508004C906E1CBDF800004045F1D034E7002CFCD16D
S31508004CA001220CA9029800F05EFABDF830004045D2
S31508004CB00DD105E0401C80B2202813D32034A4B2BD
S31508004CC00799029A891A8C4205DB01203870002060
S31508004CD01DB0BDE8F08FA51820220CA9A8B2FFF7D1
S31508004CE0D7FD00200CA931F810104145E2D0A8B232
S31508004CF0FFF733FE203CA4B2E0E70298069905FBCD
S31508004D00010000F01EFB6D1C9DF806008542F4DBD1
S31508004D1001203870414600F043F818B100F022F936
S31508004D200028D4D10120D3E72DE9F84504460D46DD
S31508004D3016469A4631462846FFF72BFEB0F80080FD
S31508004D40DFF8C075DFF8E01509888D420AD27F2E94
S31508004D5008BF0026DFF8A805285C864202DAE85D67
S31508004D60824503D040F2864100F0F9F9DFF898054C
S31508004D70285C68B14146284600F028FAE95D012911
S31508004D8008BF20700AD0022914BF2060208005E0E1
S31508004D90524641462046BDE8F845B9E5BDE8F185E5
S31508004DA02DE9F34F83B0DFF854050488DFF864056E
S31508004DB0407800281ABFDFF8600500882046DFF82B
S31508004DC0501509780D18ADB2DFF85C050088ADF806
S31508004DD00800C043C0B200EB013000F55060ADF8E2
S31508004DE0020000F0CAF92B1B00F0C3F96E1CB6B21C
S31508004DF0002832D10025DFF8347510E0E8B2FFF755
S31508004E00B7FDADF8040037F81500ADF80600022224
S31508004E1000F0ACF9002820D1B61CB6B26D1CBDF85E
S31508004E2008008542EADB002500E06D1CBDF8080095
S31508004E30854280F28E804FF0000A1AE000F08EF864
S31508004E401FFA89F0FFF724FD09F1010900F095F929
S31508004E50BB191B1B00F08DF9002874D17F1CFFB20B
S31508004E605F45EBDBDFF8CC04285C8619B6B20AF19D
S31508004E70010ADFF88C0415F800B05FFA8AFADA45F9
S31508004E80D3D25146E8B2FFF784FD8046B8F80090C1
S31508004E90DFF874042F5CF80140EA0520ADF800003D
S31508004EA0BBF1010FBDF800000CBF40F07F004AEAD5
S31508004EB00000ADF80000DFF84004311B00EB4100AC
S31508004EC0711C89B201914FF6FF7189451EBFBDF865
S31508004ED00010BDF81020914218D19DF80C10002939
S31508004EE0C5D0012200A902F046FD019E58BBA8F8CC
S31508004EF00060DFF810042A5CDFF83C0450F825103F
S31508004F00B0B2FFF7D9FC0028ACD11FE0DFF8F413E4
S31508004F10695C491C01EBD171C9054FEA116B012285
S31508004F2000A902F028FD019E68B9A8F80060002FC4
S31508004F3095D04946E8B200F049F901905A4600F082
S31508004F4015F900288ED0FFF77FF9002005B0BDE8D7
S31508004F50F08FDFF8C00346800120F7E701220DF144
S31508004F60020170472DE9F04182B0DFF8AC030688EC
S31508004F70DFF888030488DFF89C536878002812BF96
S31508004F80204630462646012200A9FFF781FCBDF8D7
S31508004F90000001280CBF4FF6FE70401EADF8000059
S31508004FA0DFF86C030778DFF850833846471E70B180
S31508004FB0012200A9BFB2B819001B08EB400002F095
S31508004FC0DAFC0028F1D0FFF73FF9002007E06978FE
S31508004FD0481E8041C00F6870002028700120BDE877
S31508004FE0F6812DE9FE4F83460C4617469A46002061
S31508004FF08DF80400012539465846FFF7CAFC814654
S315080050005E46C94909888B450AD27F2F08BF002703
S31508005010BB48305C874203DABA48305C824503D025
S3150800502040F2A95100F09BF8BA4F787820B1BB48F6
S31508005030B0F80080B14803E0B948B0F80080B64837
S315080050400088397849B97988081ABC490988884294
S31508005050B4BF43204420FFF7F7F8B9F80010AA4870
S31508005060305C78B1584600F0B1F8BAF1010F08BFC4
S31508005070217804D0BAF1020F0CBF21882168814239
S315080050806BD02BE002914FF0000B23E0012200A920
S3150800509002980BEBDB7300EB630000F064F80BEB94
S315080050A0040040781BF8041001EB002080B2AAF136
S315080050B001018B4505D1C0B2BDF80010C9B2ADF8E3
S315080050C00010BDF80010884218BF00250BF1020039
S315080050D05FFA80FBD345D9DB002D3ED1FFF73EFFB3
S315080050E0B9F80000401E00F03EF89248355C788812
S315080050F0A8F10101491B814200DB60B9387808B97B
S3150800510045201CE0BDF802100020FFF749FE20B339
S3150800511001208DF804007888401C78807949725CF3
S31508005120214680B2FFF7C8FBB8B100F026F87B88A5
S315080051305B1E724C24881B1B00F01BF810B1FFF78E
S3150800514083F80AE09DF8040010B1FFF70BFF20B1C1
S315080051507888A9F8000028187880BDE8F78F0FF23C
S31508005160E81000F04BBA80B2FFF792BB01A962487B
S31508005170331B00EB430002F0FEBB01220DF10201D6
S315080051805D48704770B582B004460025192601228D
S3150800519000A9A0B2FFF77CFB641CBDF8000048B16B
S315080051A04FF47F41401A02D0FF3806D007E0681C4A
S315080051B040B276BDAD1C761EE9D168B276BDBDF8A3
S315080051C00000C0B200B96D1CE843F1E738B50C46DB
S315080051D0002100914B49455C2A46214600A8FFF765
S315080051E097FB681C00EBD07004EB600080B2FFF7F9
S315080051F0C9FF002848BFC043009940B2401832BDD5
S31508005200F0B583B004462546404830F8156046494F
S3150800521009888C4202D23C48285C18B940F2A96138
S31508005220FFF79DFF37482D5C681C00EBD07006EB36
S315080052306007B8B2FFF7A6FF322814D2C1074CBFE1
S3150800524000214FF47F41ADF80410012201A92A4B31
S31508005250BFB207EB6000294F3F88C01B03EB400035
S3150800526002F089FB60B131462046FFF7AFFF009098
S31508005270401C00902B467F2200A92046FFF7B1FE6E
S31508005280F7BDF8B5234C2078002832D11B4805888D
S31508005290607800281ABF204806882E461C480778DA
S315080052A03846471E02281DD3012200A9FFB2B819A5
S315080052B0FFF759FFBDF800000028F1D0194800880B
S315080052C007FB006000F03DF80020ADF80000012261
S315080052D000A90948BB195B1BFFF74BFF48B1FEF74E
S315080052E0B3FFF1BD3046FFF738FBFFB20FB9012017
S315080052F02070F1BD0000000000E00708BCC90108E5
S3150800530028C701080CC70108F0C60108587800200C
S31508005310B8C90108B87F0020C0C90108BEC901087C
S31508005320C2C90108BAC90108C6C90108B8C6010830
S31508005330C8C90108CCC901084CC90108C4C9010873
S31508005340201880B2FFF709BB73696D2D6565707209
S315080053506F6D2D696E7465726E616C2E6300000048
S315080053602DE9F94788B01B22FF2100A802F08BFB24
S31508005370DFF894906222FF21484602F084FB362526
S315080053804FF01B0A00270FF290082048385C411C92
S3150800539001EBD1714C101E497E5CFF2803D16F21A9
S315080053A0404600F02BF97F2E03D37021404600F0CB
S315080053B025F91848385C00B11934601C00FB0655FD
S315080053C0012E1CBF29F817A0B2447F1C1B2FDCDB5B
S315080053D040F21C44A5420ED302F09CFB02F0E8FB07
S315080053E023462A460FF24001012002F0BCFD9B210C
S315080053F0404600F003F900A99DF82000FFF7F9FAE6
S315080054000AB0BDE8F0870000587800200CC70108EC
S3150800541028C70108F0C6010873696D2D65657072A5
S315080054206F6D2E63000000000D0A4552524F523A26
S315080054302053696D4545206461746120746F6F203F
S315080054406C617267652E2020436F6D70696C696E9A
S3150800545067207769746820256420776F72647320E3
S31508005460636F6E73756D65642E20204D61782061BB
S315080054706C6C6F7765642069732025642E0D0A00AD
S3150800548010B5044602F094FB4848302101604848AC
S31508005490016048480160484810210160200A08BF99
S315080054A02402464804804FF20F014180BFF35F8F04
S315080054B0434800210160416042484349016010BDEC
S315080054C042480168C90708D5414903220A70016C98
S315080054D0490849000164012101600168090703D5EB
S315080054E0016C21F008010164704780B5002000F0C6
S315080054F009F830B9F5210FF2EC00BDE8044000F0D8
S315080055007DB801BD2DE9FC44324C414222688D1814
S3150800551015F01F0108D0002802D44842451903E0B7
S315080055204842401900F12005A5F120062A48A8425C
S3150800553024BF2A48864203D3EFF30880854201D365
S3150800554000202DE002F034FB82462548006810F062
S31508005550010718BF02F076FD206801468D4206D283
S31508005560A84224BFCD2100F80119F9D206E0203857
S31508005570002201E000F8012B8842FBD32560304663
S3150800558002F065FDE22001E006F8010BAE42FBD30E
S315080055900FB102F03FFD504602F076FD2068203834
S315080055A0BDE8F6840B4800687047000030200040CC
S315080055B030C8004030C0004010E000400000002025
S315080055C01C4000400CED00E00400FA0518A000405D
S315080055D0367100202C71002000650020800500200F
S315080055E094ED00E06D6963726F2D696E7465726E75
S315080055F0616C2E630000000042DE704738B5044631
S315080056000D4602F087FA02F0D3FA2946204602F040
S315080056105DFD2B4622460FF2F811012002F0A3FC8D
S3150800562029462046BDE83440E6E72DE9F8434FF41D
S315080056302065DFF8BC61371DDFF8B80101687965B8
S31508005640016AB965DFF8B0110968F965416A396612
S31508005650816A7966C16AB966016BF966806B3867D3
S3150800566097F8340040074CBFFC6BBC6BA046FFF7AD
S3150800567099FF3865DFF88411DFF88421DFF8843173
S31508005680A646864524BFA3F12009F14520D354F840
S3150800569018EFC7F840E054F804EFC7F844E07C6D0B
S315080056A0E405E40D062C17D13C6CA646964513D3A3
S315080056B08E4511D224884DF6426E74450CD106F1FA
S315080056C08C04756865607D68A56040F2017503E025
S315080056D000243C647C648046DFF82C41A04202D258
S315080056E0204600E0001D984204D2D0F800E0BEF142
S315080056F0CD3FF7D0181AB8640020F864844606EB44
S315080057008004C4F878C0401C0628F8D3002004E0BA
S31508005710C0B206EB800CCCF8784098452BD253F8EB
S31508005720044D9442F9D38C42F7D25FEAC47CF4D58F
S315080057304FF0000C06EB8C0EDEF878E0A64504D098
S315080057400CF1010CBCF1060FF4DBBCF1060FE4D139
S31508005750002814BF401E0520DAE77C6F4FF0000CC6
S3150800576006EB8C01CA6F8A670CF1010CBCF1050FB8
S31508005770F6DBC6F88C400146481EC9B20029ECD1B2
S31508005780786DC005C00D02280AD0032816D0042853
S3150800579017D0052818D0062819D00C281DD01FE0C8
S315080057A0DFF868000168890748BF40F602151CD46F
S315080057B00068C00719D540F2025516E040F60125E3
S315080057C013E040F6022510E040F603250DE0B5F596
S315080057D0206F0AD140F6042507E040F6052504E0C7
S315080057E018B1242838BF40F607252846BDE8F283B5
S315080057F00000002004ED00E000E300E0B4C6010864
S3150800580090410008606E0020980000201CA000400F
S315080058100D0A5B4153534552543A25703A25645D47
S315080058200D0A0000F0B589B00446002001F0F0FA30
S315080058300A237F222548018800A800F069F84FF658
S31508005840FF75BDF80200A84204D1DC210FF29400CE
S31508005850FFF7D4FE00260FF2A40701E02A4616B980
S315080058604FF47C4203E0022E08BF4EF23F0200A826
S3150800587000F032F8761C052EF0D3012C03D1142340
S315080058807F22134802E014237F221248018803A8C6
S3150800589000F03EF800260FF26C072A4608E02A4672
S315080058A0012E08BF4FF6C07202D0082E08BF00228C
S315080058B003A800F011F8761C0A2EF0D3012C04BFB9
S315080058C0012001F0A5FA09B0F0BD0000CECC010810
S315080058D0CCCC0108CACC010830F81610F05DFEF7EA
S315080058E004BD0000616E616C6F6775652D63656C3C
S315080058F06C2D626961732E630000000000100C0DA8
S315080059000E000000010203040708090A0B0F000035
S3150800591030B583B0044610467F2808BF0020B1F58D
S31508005920004F1AD108237F2240F6120100A8FFF77C
S31508005930EFFF08220FF2380100A802F0ABF830B9E1
S3150800594008237F2240F2A27100A8FFF7E1FF082290
S3150800595000A9204602F054F837BD1A46034D2943DC
S3150800596000FB0311204602F04BF837BD000008087B
S31508005970FFFFFFFFFFFFFFFF30B583B0002401A83C
S315080059800FF204110A680260DFF8F450012028704B
S315080059900020FFF7E5FC30B10020FFF7E1FC10B16D
S315080059A02C7049203EBD02237F22DFF8D8000188EB
S315080059B00DF1020000F025F802237F22002100A83D
S315080059C000F01FF8204601A931F81010BDF8022092
S315080059D0914208BF0124401C0228F4D3002CBDF8CC
S315080059E0000004D0B0F57F7F07D100203EBDB0F59A
S315080059F07F7F0CBF0620042000E0072000212970C5
S31508005A003EBD10B5B1F5807F08D2DFF87440247822
S31508005A1044B1C9B2BDE81040FFF786B9BDE81040E9
S31508005A20FFF776BF10BD2DE9F04105460E4617462D
S31508005A3098460FF25800B5F5807F12D2104C21789F
S31508005A40A1B1617811B1C221FFF7D8FD01206070BC
S31508005A50434632463946E8B2FFF7C3FA002060707B
S31508005A6004E0CD21BDE8F041FFF7C8BDBDE8F081EF
S31508005A7003490978002918BFFFF7C2BB7047000021
S31508005A80CF7F0020D6CC0108FE01FD02746F6B653E
S31508005A906E2E630010B5DFF8FC441020206302F078
S31508005AA087F8DFF8F4140A6842F001020A6002F087
S31508005AB0EBFADFF8E80460602060616889316160AC
S31508005AC0012121638A30E060A060E0688930E060E7
S31508005AD002202063DFF8C8044FF6FF71016010BD8D
S31508005AE0DFF8C00445F26401C1601E2141625021FD
S31508005AF00162C821C1618165F021C16545F6900141
S31508005B004166882181660621C16644F20661016004
S31508005B104FF6FF714160DFF89004007838B1DFF87E
S31508005B208C0448F2607101604FF4C1514160DFF89E
S31508005B308004016841F004010160DFF8780400215F
S31508005B40417070472DE9F84F0446DFF86C148A2235
S31508005B5002FB0012121D0092521C5378127802EBB7
S31508005B6003221FFA82FB0BF440424FF000094FF064
S31508005B70010A0BF440630425B3F5006F08BF082536
S31508005B8003D0B3F5406F08BF0E25130004D05FEAB3
S31508005B904B635CBFAB1CDDB2DFF820341B784B705F
S31508005BA05FEA8B6374D5DFF81864736E1B066FD5CE
S31508005BB04718009828184FF40068B2F5404F07D1E7
S31508005BC002F01CFC5FEA000927D005F108000EE088
S31508005BD0B2F5004F21D140780099695C01EB0020AD
S31508005BE080B202F08BFEFF280CD1CA46A81CC0B2B0
S31508005BF041080BF00702032A0FD1002C14BF726864
S31508005C00326815E0DFF8BC13096831F810004FF464
S31508005C10FE61084218BFD146E8D10020B870F06D81
S31508005C20C00635D5B06C002C08BF4FF4806828E054
S31508005C308A42F2D3002C14BF726832684B1C9A420F
S31508005C40F8D30099405C0428E7D1BAF1000F02D1D5
S31508005C500020B87004E00020B870B9F1000FDED05B
S31508005C60F06DC0060AD4B06C0CB94FF4806810EA1F
S31508005C70080F03D0706C40F0010070640120B87002
S31508005C8006E010EA080F03D0706C40084000706404
S31508005C90BDE8F18F2DE9FC4E0446DFF81CB38A20D7
S31508005CA000FB04B0071DC64D002C0CBF28686868A9
S31508005CB04600C0B2052805D24FF4F6710FF2283017
S31508005CC0FFF79CFC5FFA86F909EB0700A0F10806C6
S31508005CD03078717801EB00201FFA80FA9BF80100F2
S31508005CE0307002F0CFFE7070B74EF06B20F4805023
S31508005CF0F063686ED4B9306840051CD41AF4E45FC2
S31508005D000FD100F02CFD10B15FEA4A4009D538786A
S31508005D10802806D204EB0B0082784946384602F002
S31508005D200FFF002C0CBF0120022020E0012CE5D13A
S31508005D3030680005E2D5A548017881B100210170D7
S31508005D40A34801681AF4E45F02D00022402004E068
S31508005D507878000900F001028F2003F06CF8002C17
S31508005D600CBF4FF480604FF400603060D9E72861BB
S31508005D70BDE8F38E2DE9F047894C2068216C01EACD
S31508005D800005934E8E4FDFF84C82DFF84092DFF81D
S31508005D9028A219E038B14878C00604D40022316830
S31508005DA08F2003F048F8280605D503F08FF825F06C
S31508005DB0800580202060E80506D503F087F825F4DD
S31508005DC080754FF480702060002D5CD0280706D5BA
S31508005DD00020FFF7B7FE25F0080508202060E80632
S31508005DE006D50120FFF7AEFE25F01005102020602D
S31508005DF005F06000602803D1B86CC0050AD401E03C
S31508005E00A80605D525F0200520202060002006E0FC
S31508005E10680606D525F04005402020600120FFF7DA
S31508005E2039FFE80404D525F480554FF480502060E6
S31508005E30E807B8D56D086D00012020609AF80000C3
S31508005E400028B0D000F003FC0128ACD199F8000076
S31508005E500028A8D098F800000428A4D1F8684008BB
S31508005E6000F001008A2101FB00A1091D002814BFCA
S31508005E707A683A6812B92268D204F7D5002814BF9E
S31508005E807868386886E700202060BDE8F0875248C1
S31508005E9000687047F0B589B004460D460021032016
S31508005EA001F090FC04AE1BE0002701F0A6FC26F8E2
S31508005EB0170001F0A2FC00A921F817007F1C082F83
S31508005EC0F3DB04A803F0BCF800202080218836F80C
S31508005ED0102051402180401C0828F7DB6D1EA41CA9
S31508005EE0EDB2002DE0D101F0C4FC012009B0F0BDEF
S31508005EF00321022001F066BCF8B529244FF6FF7588
S31508005F0001F07BFC281A90FBF4F000F13A06334FB7
S31508005F103878B8B90321032001F054FC02237F2204
S31508005F202F48018800A8FFF7F3FC01F066FCBDF8CE
S31508005F300010401880B2281A90FBF4F025307870CB
S31508005F400120387001F095FC7878301A40B2F2BD1D
S31508005F5080B50321022001F035FCBDE80140CBE7FE
S31508005F6070B500241F48007890B9FFF7F1FF054681
S31508005F70104E707848B13078401B40B203F071F883
S31508005F800B2805DB3570012402E03570012070709E
S31508005F90204670BD0020004084200040FC7C002084
S31508005FA000A000404C10004011710020D0100040A5
S31508005FB080200040DD7F0020F87C00201071002042
S31508005FC020200040846E002004A00040D0710020EC
S31508005FD0E8710020DB71002038200040DB7F0020BC
S31508005FE0D4CC0108DD7100207068792E63000000AA
S31508005FF010B584B00A237F220B48018800A8FFF752
S3150800600087FC4FF6FF74BDF80000A04204D14E216C
S315080060100FF21800FFF7F2FA2246BDF8001000202A
S31508006020FEF763F91FBD0000CECC0108616E616CF6
S315080060306F6775652D66696C7465722E630000005E
S31508006040DFF88407417A39B1017A012904BFC07A99
S31508006050042801D101207047002070470FF2FC7117
S31508006060405C7047010603D54FF67F710840C000B3
S3150800607070478001B0FBF1F080B2FF2888BFFF208F
S31508006080C0F1FF00C0B2704738B5DFF83C07817A27
S31508006090012901D1002032BDDFF83847617871B196
S315080060A0E178807B4518ADB22079854228BF054640
S315080060B002F0F0FF0121A940491E084000E0002037
S315080060C061790818C0B232BD2DE9F0470446C00709
S315080060D003D540F26D1100F048FADFF8FC56286D3A
S315080060E0C00748BF8C2000F19180DFF8DC660020ED
S315080060F030733070DFF8DC763878A0B12078122853
S3150800610018BF0C280BD1617801F00701032902BFDB
S31508006110001910F8020C042804BF01203073A86F78
S3150800612040F0010002E0A86F40084000A867707BB5
S31508006130DFF8A886DFF8A896797899B10021B173B7
S31508006140296D41F004012965012807D14FF6FF7032
S31508006150C9F800004FF40070C8F80000FFF794FF74
S3150800616082460CE0296D21F0040129654FF0000AEA
S31508006170012804D100F02AFA642000F0B2FEA86FC4
S3150800618020F00800A8671420E864C5F848A07878C5
S3150800619030B1707B002801BFA86C00280120A864D4
S315080061A0B8790028286D14BF40F0080020F00800D0
S315080061B02865FFF745FF28B1D9F8400040F00800E8
S315080061C0C9F84000202028626C602C6068687F301F
S315080061D06860042028624FF4E064DFF8080604606B
S315080061E006E002F067FF18B102F06CFF01F0E0FC70
S315080061F0DFF8F405006800F003000328F1D0C8F8BA
S315080062000040286D40F0010028650020BDE8F087B1
S3150800621010B50446FFF73BFE201A0003000B33387F
S31508006220DFF8C81588421AD2DFF8C40502210160D2
S31508006230DFF8C015A2B24A60220C02F00F020A600B
S31508006240016C41F002010164DFF8AC4500202070C2
S3150800625002E0012002F03AFF20780028F9D010BDAC
S315080062602DE9F84FDFF87885D8F80000D8F84010FF
S3150800627001EA0004A4B2C8F80040DFF85C75DFF84C
S3150800628048556878002840F0C880DFF87065DFF860
S315080062904495E00744D5D7F800A0386C796C41EAF4
S315080062A00041A96199F80000B0B39AF80100800688
S315080062B032D501202870FFF7C3FE88B3192000F0F5
S315080062C010FEDFF83CB54FF44040CBF82800DBF869
S315080062D000000090F06E40F40050F066F06E40F456
S315080062E08050F066A8699AF800104901B831081874
S315080062F0FFF78EFFF06E80098001F066F06E00A948
S3150800630009880843F0660020CBF8280048F2607038
S31508006310F066A88A306003E00022002002F08BFDB8
S3150800632020060ED5287830B1002028700022A969E9
S31508006330402002F080FDD8F83C0020F48050C8F8D0
S315080063403C00600608D5687830B9FFF7A0FD002242
S315080063500146892002F06FFDE0064FD5287ADFF85E
S315080063607CA4012804BF697B01291ED100F027FF00
S31508006370386F40F00100386700206873FFF78AFB22
S315080063800A2000F0AEFD00244FF6FF70C8F80000A2
S315080063904FF4E060CAF800000920B8660120B86426
S315080063A0B86F40F00800B86718E0A97B491CA973C4
S315080063B099F80220C9B2914215D2012808BF00F007
S315080063C0D8F8B86F20F00800B8671420B866FFF749
S315080063D05BFEB8644FF40070CAF80000386D40F0F0
S315080063E0010038650AE0012808BF00F0C2F8FFF787
S315080063F04EFD002201468D2002F01DFD20070CD51A
S31508006400FFF71EFE48B13068A88201203060D8F830
S31508006410400020F00800C8F84000A0060AD5202051
S315080064203862687830B9FFF732FD002201468820C5
S3150800643002F001FD687820B114F4407F04BF012002
S31508006440A870BDE8F18FDFF8C0030088704770B503
S3150800645082B00446FEF7FCF8DFF8B00300210160BD
S31508006460DFF868531521E960092101651F2141609C
S3150800647001210166DFF890030088FDF779FFFFF731
S315080064802FFB03F02BF900F030F9DFF83C63308A74
S3150800649000F058F9708A00F05DF901F089FB696827
S315080064A041F04001696001F0EFFD707900F0F2F803
S315080064B0B07900F0FFF8307900F02EF9DFF85003D4
S315080064C090F90000FEF703F9F07800F04BF996F919
S315080064D0070000F053F902237F22DFF8380301880A
S315080064E000A8FFF715FABDF80000C0054CBF00204C
S315080064F0BDF80000DFF820130870DFF820030078E5
S31508006500FEF7A8F818B140F2963100F02EF8012CE3
S3150800651005D12868C00711D500F02BF80EE06CB934
S315080065202868C0070AD400F04AFE286840F001002F
S315080065302860C82000F0D5FC00207073DFF8A04260
S31508006540F120206440F2F910E063FFF7A3FA286807
S31508006550C00707D54FF6FF702060DFF880024FF4BA
S31508006560E061016000F0D9FB73BD0FF2E020FFF790
S3150800657045B870B5DFF8A8522E68DFF84C42607B44
S31508006580012822D001F014FBB6B22E60DFF85412AF
S315080065904FF4E0620A60DFF86C120A6A5208520089
S315080065A00A620A68520852000A600A6842F0020241
S315080065B00A604A6A42F001024A620121617301F0E7
S315080065C063FDBDE8704000F0C9BD70BD70B57E4C76
S315080065D0607B48B300F0F3FD01F0EAFA0546DFF800
S315080065E04402012101607A4E306D40F001003065A9
S315080065F000206073FFF74EFA20203060306B40F0C1
S3150800660002003063F06D40F00800F065284601F09E
S315080066103BFD0A2000F065FC71484FF6FF710160EA
S315080066206E484FF4E061016070BD6748407B704773
S3150800663010B5654C607B18B140F28741FFF795FFAE
S31508006640207A18B1FFF795FF207A607310BD5E486F
S31508006650007A704780B5022801D3012002BD5A4945
S315080066600872487B012804D1087A20B9FFF7AEFFE3
S3150800667001E0FFF7DDFF002002BD6B4800688002DD
S3150800668000149A386FF07F0201B29142B8BF1046E3
S3150800669040B2704710B5044601F08AFA6349002CE7
S315080066A00A6814BF42F0120222F012020A60464932
S315080066B04C7140E038B5044601F07AFA054600F018
S315080066C0F6FD40B95948002C016814BF41F0800115
S315080066D021F0800101603C4884712846BDE83240BB
S315080066E001F0D2BC384880797047514851494A78F8
S315080066F00B7813EB02220260CA788B7813EB02221E
S3150800670042604A790B7913EB02228260CA79897949
S3150800671011EB0221C160704710B5044601F048FA32
S315080067204249002C0A6814BF42F0200222F02002D7
S315080067300A6025490C71BDE8104001F0A5BC224845
S31508006740008A7047204908823B49086070471E48FE
S31508006750408A70471C49488238490860704738485B
S3150800676000787047194900280A6814BF42F00202E7
S3150800677022F002020A601449C870704738B5044608
S315080067807F2C0ED102237F222E48018800A8FFF70E
S31508006790BFF8BDF80000C00554BFBDF800406FF053
S315080067A04A0401F005FA054600F081FD30B964B2E5
S315080067B004F19A008005000C234908600248C47158
S315080067C0284601F061FC31BDD071002080200040D0
S315080067D030200040407100201020004000E100E019
S315080067E004A0004080E100E0A8200040CDFF07009B
S315080067F008A0004040200040E27F002064100040CE
S31508006800E410004060200040287100205C10004021
S315080068101C710020E2CC01081871002010710020BC
S315080068201C100040281000400C1000408420004036
S3150800683098200040D07C0020942000409020004002
S31508006840EC710020E8CC0108541000407068792DDE
S31508006850636F6D6D6F6E2E6300000000FEFEF7F726
S31508006860C8C80100DFF828055121016070472DE9E5
S31508006870F041054601F038F9FA2190FBF1F64FF49C
S31508006880F070B0FBF6F73FB21E2D01DBE81B04D50E
S31508006890A8B2BDE8F04100F024BB01F089F98046B2
S315080068A002F028FFDFF8EC040721016000214160AF
S315080068B08160DFF8E4144FF000720A60E91B09B240
S315080068C07143C91C8908491E416000F0AEF8DFF81B
S315080068D0C0743C68386820F04000386002F00CFF4D
S315080068E03C602E6002F00CFF02F012FF4046BDE845
S315080068F0F04101F0C9BB38B5054601F0F5F8FA21B3
S3150800690090FBF1F44FF4F070B0FBF4F02D1A2DB2B1
S315080069101E2D04DA8A210FF2CC40FEF76FFEDFF84F
S31508006920740407210160002141608160DFF8681462
S315080069304FF000720A6005FB04F1C91C8908491E5C
S31508006940416031BDDFF85404B0F9000000B9704762
S315080069502DE9F0410024DFF848542C60DFF8446440
S3150800696034604FF4A040706041F29A084046FFF741
S315080069707EFF6F6801F0C0F800010A21B0FBF1F054
S3150800698000F5C870C01B00B24FF4487190FBF1F0D7
S3150800699000F3030030604046FFF769FF08274046CA
S315080069A0FFF765FF686804197F1EF8D101F0A4F89F
S315080069B04FF4FA414843211DC908B0FBF1F080B2F3
S315080069C07060BDE8F081DFF8D403B0F9000000B9C3
S315080069D0704738B56FF00F04DFF8CC530120A86074
S315080069E02C608020FFF743FFE868FF2802D8641C64
S315080069F0102CF5DB31BD70B5DFF8B003016841F046
S31508006A00010101600121416001F0D2F8044600F05D
S31508006A100CF8DFF87C03512101602E6002F070FE4D
S31508006A202046BDE8704001F02FBBDFF884532E687E
S31508006A30286840084000286002F062BE00207047BF
S31508006A4010B5DFF85803B0F900000128BCBF0320D1
S31508006A5000F01FF8DFF85C43012020700020E0708A
S31508006A60DFF85403816901F00301032907D10020E7
S31508006A706070042000F07BF80120E07010BD0F2143
S31508006A800160022181610120A0706420BDE81040E8
S31508006A9031E7F8B5014640F2DC500446BF4AB2F980
S31508006AA00070C54DC34E012F15DA022030812860CB
S31508006AB0A86900F00300032857D0002F03D5A8695A
S31508006AC040F00200A8610846FFF7B8FF04001BD192
S31508006AD0002F4AD547E031894FF6FF77B9421CD1D6
S31508006AE002237F22B548018806F10800FEF710FF49
S31508006AF03089B84204BF02203081A869800703D4D0
S31508006B00A86940F00200A8610120707030892860E9
S31508006B1020B2FFF7F0FE2046F2BDAA699207EFD52C
S31508006B207278002AF8D1A86810F00100AA6803D183
S31508006B300F2909D2491C06E0920705D532791AB100
S31508006B40032901D3491E31813071308902283CBF9F
S31508006B5002203081286831898842D5D1A86900F099
S31508006B600300032801D0FFF746FF0020F2BD2DE9F8
S31508006B70F04780460024864D8D4E01F019F881466F
S31508006B8002F0B8FD4046FFF784FF08B901240AE081
S31508006B9000F0BCF8D5F800A000F01EF9C5F800A072
S31508006BA0376002F0ADFD02F0B3FD484601F06CFA1D
S31508006BB0002CE2D0BDE8F0870220D8E710B575486A
S31508006BC0002141608160016821F00201016072487C
S31508006BD04FF000710160774C607848B10020607012
S31508006BE00620FFF72BFF6D48B0F9000001281CDBD3
S31508006BF0A078012814D172480121016071490968F9
S31508006C00C90748BF03200FD40221A170016C41F0C7
S31508006C10010101646C48042101606C48016010BDE3
S31508006C20A078042801D10520A07010BD2DE9F843ED
S31508006C305A48B0F90000012803DA0420BDE8F243F7
S31508006C4095E75C4CE07800285ED1594EDFF8408124
S31508006C501DE000F0ADFF054602F04CFDA0780328C4
S31508006C6010D000F053F8D8F80090D8F8000020F0BB
S31508006C704000C8F8000002F03FFDC8F800903760F1
S31508006C8002F03EFD02F044FD284601F0FDF9A07829
S31508006C900328DED1484D208928604FF6FF76E08824
S31508006CA0B0420CD102237F2249480188A01DFEF775
S31508006CB02FFEE088B04202D16420E08001E0E0883F
S31508006CC0C8B100F019FFE188FA2290FBF2F04843B8
S31508006CD02F303021B0FBF1F03E494A6D42F00102F7
S31508006CE04A650A68AB68DB07FBD50B689B1A1B036A
S31508006CF01B0B8342F6D3FFF77EFE0420A0704FF4E9
S31508006D00C870BDE8F243F6E5BDE8F1833768306838
S31508006D1040084000306002F0F3BC2DE9F843254CEA
S31508006D202078002830D0E07800282DD11B48B0F90B
S31508006D300000012820DA40F2CD310FF2A800FEF754
S31508006D405DFC19E000F034FF804602F0D3FCA07821
S31508006D5005280CD0164EFFF7D9FF0D4DD5F8009033
S31508006D6000F03AF8C5F80090376002F0C9FC02F066
S31508006D70CFFC404601F088F9A0780528E2D100202A
S31508006D8060700520FFF7F3FE00202070BDE8F18350
S31508006D900080004010E000E004ED00E0C8CC0108E7
S31508006DA0104000400C000040084000401C400040D5
S31508006DB094ED00E03471002004400040E0CC010866
S31508006DC018A000400C40004080E200E000E100E02E
S31508006DD0E4CC010838200040286820F040002860EC
S31508006DE002F08ABC636C6F636B732E63000000004D
S31508006DF010B57B4C002000F042FD40F68C218842FD
S31508006E00206834BF40F0080020F00800206010BD5C
S31508006E1010B582B0044600F05FF800A8FEF778FDCA
S31508006E209DF801009DF80010FF2902BFFF280420E5
S31508006E30002104B1801CC0B2082828BF07200829F1
S31508006E4028BF0721674A136823F4607343EAC01012
S31508006E5010601068C00851EAC000106013BD00B584
S31508006E6083B002237F226048018800A8FEF750FD00
S31508006E70BDF800004FF6FF7188420EBF4FF4E1607F
S31508006E800A2190FBF1F0ADF80000FFF7DCFAC00725
S31508006E901FD500F021F801A8FEF73AFD9DF8050078
S31508006EA0FF2808BF0420811CC9B20829A8BF0721EA
S31508006EB0C1F12F02BDF80030C0F12F0002EBD272EB
S31508006EC0521000FB0320C1F12F01B0FBF1F0ADF821
S31508006ED00000BDF800000EBD02237F22434801884A
S31508006EE0704770B50646424C256800F005FEFA2143
S31508006EF090FBF1F070432F303021B0FBF1F00328FE
S31508006F0009D3616D41F0010161652168491B0903D7
S31508006F10090B8142F9D370BD10B5040004D110BD28
S31508006F204FF47A70FFF7DDFF2046441E80B2002832
S31508006F30F6D110BD2F48017869B9C078072818BF5F
S31508006F40092814D0032818BF112810D013281CBFED
S31508006F5015280B280BD02848016841F48072026076
S31508006F60C80504D438210FF2A000FEF747BB7047C6
S31508006F7038B50C4620B1012819D003282CD02DE0AD
S31508006F801E4D94B11E48844204D0CA210FF28400D3
S31508006F90FEF734FB00F0B0FD4FF47A714843B0FBBE
S31508006FA0F4F0401EB0F5005F0ED2286014E05CB124
S31508006FB000F0A2FD4FF4FA61620801FB0020B0FB65
S31508006FC0F4F0B0F5003F01D3202032BD0D4900F0A2
S31508006FD001024A6040080860002032BD212032BD07
S31508006FE000BC004018000040D2CC0108D0CC0108F3
S31508006FF0382000409607080838400040100004E092
S3150800700020A1070068C800407573625F6572726FD9
S31508007010722E63006D6963726F2D636F6D6D6F6E8F
S315080070202D696E7465726E616C2E630038B5012029
S31508007030FFF72FFD0020FFF7EBFE784C206840F0A5
S315080070400800206000F05FFDFFF7D2FE00F043F86D
S315080070508D78DD600D8905604D89456000F032F850
S31508007060206820F01000206002F0AEFB02F0CCFD94
S3150800707002F00AFEFFF7A0FD00F043FDBDE831402F
S3150800708000F05CBD40F20160FEF7FAB910B5FFF7F3
S31508007090D7FCFFF7ADFE00F01EF88C78DC600C8993
S315080070A004604C89446000F00DF85C48016821F0E2
S315080070B01001016002F088FBFFF7B8FDBDE810403B
S315080070C002F08ABD88891060C8895060088A1860ED
S315080070D0488A586042E0524852490A78C260524A81
S315080070E04B78D360514B7047F0B50B684D4C246A0A
S315080070F00F25960005FA06F6344212D0002606EB4E
S31508007100820724FA07F7FF0708D5B70005FA07F735
S31508007110BB4330F812C007EA0C073B43761C042E23
S31508007120EDDB0B60F0BDF0B50B683E4C246AFF251D
S31508007130D600B5402C420FD0002505EBC20624FA2E
S3150800714006F6F60705D50126AE40B343175C3E4062
S3150800715033436D1C082DF0DB0B60F0BD10B5314CC8
S31508007160206A002827D000223249201DFFF7DBFFBE
S3150800717001223149201DFFF7D6FF02222F49201D83
S31508007180FFF7D1FF0022264900F016F80122284908
S3150800719000F012F80222244900F00EF803222849CA
S315080071A000F00AF80422214900F006F805222549CC
S315080071B004F114004BE010BD04F1140094E710B577
S315080071C0184C206A002827D000221A492046FFF7C3
S315080071D0AAFF012218492046FFF7A5FF02221749F0
S315080071E02046FFF7A0FF00220D4900F02DF80122E6
S315080071F00F4900F029F802220B4900F025F803226E
S315080072000F4900F021F80422084900F01DF805226C
S315080072100C4904F108001AE010BD000000BC00404B
S3150800722000B000403C6F002000B2004000B40040AF
S3150800723004B000400CB000400CB200400CB4004052
S3150800724004B2004004B4004004F108004CE7BDE86D
S31508007250104049E70320FEF70BBC80B502F0E5FDB8
S315080072600FF2500101EB800002BD000010B502F0DC
S31508007270DCFD044602F0DDFDC0B208B9012C07D1D9
S31508007280072C11D8DFE804F004100608080A0C0ECB
S31508007290002010BD092010BD022010BD032010BD1E
S315080072A00B2010BD062010BD44F0800010BD002044
S315080072B070470000554E4B004649420042544C0068
S315080072C0455854005057520057444700205357001A
S315080072D0435253004653480042414400464C54002A
S315080072E02A490A68920992010A600A6810430860E6
S315080072F027484FF400410160002101606420FFF730
S31508007300F0BD2DE9F0478046224DD5F80090286853
S3150800731040F4004028601D4F386820F480503860DB
S315080073201D4C207868B11D48A178627800EB82026E
S3150800733012F82A2C891A00EB880010F82A0C46182D
S3150800734002E0202601202070B0B2FFF7C9FF0FF235
S31508007350500A02E0B0B2FFF7C3FF386B042805D025
S31508007360386B400754BF761E761CF3E7F86A38B1C7
S3150800737084F80180A6701FFA89F02860BDE8F087B6
S3150800738040F221115046FEF739F9E6E7D0100040E1
S31508007390181000401C100040DF7F0020004800083D
S315080073A0616E616C6F6775652D76636F2E6300007D
S315080073B04FF4FE52810189B20C20FCF796BF2DE9E5
S315080073C0F84F8A4CA568ADB200264FF00A08012787
S315080073D0B94620681FFA80FA00F04BFAB0202063FD
S315080073E0DFF80CB2DBF800000120FFF77AFDB9F1EF
S315080073F0000F11D0AAF10300874202DAF81C87B2FF
S3150800740013E057460AF5004020600621092000F0DF
S31508007410D9F94FF000090BE0DBF80000000707D5A3
S31508007420042FA6BFF81E87B2002707F50040206084
S315080074301A2EA8BF6FF0090804DA16F1190FB8BF9B
S315080074404FF00A08464436B27019A060DBF800000F
S315080074500007C9D5012FC7DAB9F1000FC4D1A56055
S31508007460C4F800A00820CBF800006248006880B283
S31508007470BDE8F28F10B560494FF0FF325A4B1C78C1
S3150800748064B1002819BF4A605C48486041F211108F
S315080074900860D9889888BDE8104090E7002819BF89
S315080074A04A600A604860086000F0E3F9062109208E
S315080074B0BDE8104000F0D7B938B50120FFF7DAFF6C
S315080074C004460020FFF7D6FF05460120FFF7D2FF46
S315080074D04042001B00EB450000B232BD2DE9F04FDB
S315080074E083B0474CA06AADF804002068ADF80200E6
S315080074F0444D2868ADF800003B4E307858B14FF639
S31508007500FF7200210820FCF7E9FE8046C022C02150
S315080075100820FCF7EAFE3C4F3C48007810B148F2D8
S3150800752060703860708840F4404040F04C00F86362
S315080075300220A0620120206040F24C40FFF7D1FCF7
S315080075400120E86028600020B0804020F080307874
S3150800755000B12020FFF72CFFFFF7AEFF834640203F
S31508007560B0807F20F080FFF723FFFFF7A5FF00F02C
S315080075704FF8FE2101FB00FAABEB090B307850B14E
S31508007580484601F06EFD00F043F880B20AEB891117
S31508007590B1FBF0F004E000F03CF880B2BAFBF0F082
S315080075A080B2401C4FEAC039BDF8000028600020B0
S315080075B0E86002202060BDF802002060BDF80400E3
S315080075C0A0620020F863307830B14FF6FF721FFAD8
S315080075D088F10820FCF789FE40F24C40FFF781FC51
S315080075E04FEA1940BDE8FE8FC8710020C010004060
S315080075F018A000400070004038100040EEEEFFFF73
S315080076006020004028100040D01000401171002072
S315080076108146584601F025BD3F22410089B201E066
S315080076203F2201460220FCF760BE2DE9F04F93B0D9
S31508007630564CE06CADF808002068ADF80600544DCD
S31508007640E86AADF804004FF6FF7200210120FCF746
S3150800765045FEADF802004FF6FF7200210B20FCF73D
S315080076603DFEADF800004FF4004020600020286180
S31508007670686148F2020000F08DF84CF68C30E06440
S3150800768048F2F000E8624FF4805211460120FCF7F8
S315080076902CFE4FF6FF7200210B20FCF726FE062172
S315080076A0062000F0E0F8804600F087F883464CF69E
S315080076B09C30E0640020FFF7AFFF0621084600F083
S315080076C081F80026B0B2FFF7A7FF0621062000F0D2
S315080076D079F800F092F803A921F81600761C202EF6
S315080076E0F0DB00F08AF81020FFF796FF00F065F847
S315080076F0A0EB0B00BDF82C10A1EB0801404301FBE1
S3150800770001094FF0100A112700F050F800F055F85B
S3150800771000F045F805DB81461FFA87FA7F1C202F03
S31508007720F2DB504610280ED10F2700F03FF800F084
S3150800773044F800F034F806DB81461FFA87FA781E0B
S3150800774007B2002FF1D5BDF80800E064BDF80600C1
S315080077502060BDF80400E8624FF6FF72BDF802101B
S315080077600120FCF7C2FD4FF6FF72BDF800100B2092
S31508007770FCF7BBFD01202861002000F00BF84FEA5A
S315080077804A00C0B213B0BDE8F08F0000C010004038
S3150800779018100040286040F24C40FFF7A2BBA0EB4F
S315080077A00B00404306FB06004845704703A830F81F
S315080077B01700A0EB0806B8B22EE70621072000F04E
S315080077C052B8000070B505460E4601F093FF3D4CD1
S315080077D0206C20F00800206401F09AFF00F0E8F918
S315080077E0310341EAC51141F00101374A1160082108
S315080077F02160BDE8704000F047BC2DE9F041334CEC
S31508007800334D304E25E001F075FF32480421016002
S31508007810306C40F0080030642F6828684008400043
S31508007820286001F06DFFD4F80080206820F0400041
S31508007830206001F061FFC4F800802F6001F060FF4E
S31508007840306C20F00800306423480421016001F000
S315080078505FFF30680007D6D5082030601F480068EB
S3150800786080B2BDE8F08180B5FFF7ACFFBDE8014006
S31508007870C3E7154801684908490001607047F8B52B
S315080078800746FFF7ECFA044639460320FFF7EBFFF5
S31508007890054639460120FFF7E6FF06463946002029
S315080078A0FFF7E1FF08490A68520852000A60401BC0
S315080078B00004711BB0FBF1F060434000000CF2BD00
S315080078C00000000018A0004004700040008000403E
S315080078D094ED00E000E100E080E200E00070004086
S315080078E04148018A40F6A772914202BF418A4FF485
S315080078F07F40014204D102298041C043C00F70472E
S31508007900002070472DE9F84F8246884600F050F966
S315080079100446364D2F68286840084000286001F064
S31508007920EFFEDFF8C0B001208BF80000FFF7D8FFA4
S3150800793020B9FF210FF2B800FDF760FE2A48D0F8FB
S31508007940289041464AF48070C84706462F6001F0E1
S31508007950D7FE204600F098FB00208BF800000FF2B7
S3150800796098040EB1305D04E041464AF40070C847F9
S31508007970005DBDE8F28F2DE9F84F804689464FEA4B
S31508007980420A00F015F90546184E3768306840086F
S315080079904000306001F0B4FEFFF7A2FF28B94FF4AB
S315080079A0A1710FF24C00FDF729FE0F48D0F824B05C
S315080079B00023524649464046D8470446376001F0F8
S315080079C09FFE284600F060FB0FF22C050CB1605DA7
S315080079D005E05346002249464046D847405DBDE883
S315080079E0F28F0000D27F00200000080894ED00E026
S315080079F0666C6173682E6300000202024B4B4647B1
S31508007A00814233D21018401E5118491E10E0121F29
S31508007A1011F8013900F8013911F8013900F801396E
S31508007A2011F8013900F8013911F8013900F801395E
S31508007A3092B2042AEBD292B2002A1EBF11F801397B
S31508007A4000F80139521EF6D17047121F11F8013B92
S31508007A5000F8013B11F8013B00F8013B11F8013B26
S31508007A6000F8013B11F8013B00F8013B92B2042AE9
S31508007A70EBD292B2002A1EBF11F8013B00F8013B77
S31508007A80521EF6D17047130003D00A46194602F073
S31508007A90E1B9704710B500E0521E92B232B110F843
S31508007AA0013B11F8014BA342F6D00FE0002010BDB0
S31508007AB010B500E0521E92B232B110F8013B11F82F
S31508007AC0014BA342F6D001E0002010BD181B40B2BE
S31508007AD010BD00002C480068C00702D442F6E060DA
S31508007AE0704745F6C050704780B5FFF7F3FF274942
S31508007AF0096801B9400802BD80B5FFF7EBFF4008E9
S31508007B0002BDFEF760BF2248012181604EF6BE2104
S31508007B10416000E01F48012101607047A52805D192
S31508007B201B484DF6AD614160022101607047184857
S31508007B30006810F0010018BF0120704780B516488C
S31508007B4010210160154800781549164A58B10328CE
S31508007B500CBF00200120106040F65100086000208C
S31508007B60FFF7DAF906E0022010604FF400600860BB
S31508007B70FEF7E8FE0C4807210160002101640B4866
S31508007B8010210160002002BD1C400040204000403A
S31508007B90006000400860004080E100E0CE7F0020E1
S31508007BA00C6000400800004014A0004000E100E01E
S31508007BB0EFF31180602181F31188704770B5134681
S31508007BC0101802E0A4192C705B1EDBB24BB101F051
S31508007BD00F060909451E28460A2E34BF30243724C5
S31508007BE0F0E7101870BD2DE9F04F87B0804689463A
S31508007BF014469B4601AD002701A88DF800001BE03E
S31508007C005BF804AB04224FEA1A412846FFF7D6FF71
S31508007C1004221FFA8AF1FFF7D1FF054605A8854217
S31508007C2009D39DF800002E1A00F096F8002831D1E5
S31508007C30F719FFB201AD641C9DF800002E1A2078D2
S31508007C40002807D0252802D005F8010BE6E714F826
S31508007C50010F002876D02528F6D0322818BF3428F8
S31508007C605FD0582857D063280CD0642818BF6C28D2
S31508007C7025D0702818BF732807D075281FD07828F4
S31508007C8049D0CBE75BF8040BDEE75BF804AB00F002
S31508007C9063F800285CD1F719FFB201AD002600E0B1
S31508007CA0761CF6B216F80A000028F9D13246514673
S31508007CB04846C04700284BD1F719FFB2AEE75BF834
S31508007CC0040B0021002803D52D21297001214042EB
S31508007CD0002300224FF0000C02E0801B0CF1010C7F
S31508007CE00FF20C3656F82260B042F6D243EA0C067A
S31508007CF0F6B2002E05D0C9B20CF130034B55491C1B
S31508007D000123521C092AE5DBC9B230304855481C04
S31508007D10C0B2451982E75BF8041B0222C9B228469D
S31508007D2079E714F8010F78281CBF5828641EF1D18A
S31508007D3014F8010C32287FF463AF5BF8041B0422A5
S31508007D4089B2ECE700F008F810B9F019C0B200E003
S31508007D50002007B0BDE8F08FF2B201A948464047B7
S31508007D602DE9FC4E0400894692469B4618BF022C14
S31508007D702BD0032C18BF042C27D026D20FF25C2058
S31508007D80205C012821D1DFF8405205EB8406F7680C
S31508007D90FFF70EFF0021B9803980798000F074F969
S31508007DA0F669FFF705FF0021B180318071806155C2
S31508007DB000F06AF901F028FF5B465246494620461C
S31508007DC002B0BDE8F04E01F0F3BD2120BDE8F68E05
S31508007DD010B5044601F0E2FEDFF8EC0100EB840082
S31508007DE0C069808810BD2DE9F04188460446DFF851
S31508007DF0D85105EB8401CE690FF2E011615C09B92F
S31508007E00012035E005EB4407615D61B1B9887288E8
S31508007E10914208D1FFF7CCFE665D0021615500F05E
S31508007E2033F9304624E001F0B9FEB088F8B1FFF71F
S31508007E30BFFE71888919897988F800107188491CEC
S31508007E400FF2A41232F8142000F01AF87180B188E3
S31508007E50491EB18000F018F9605D30B1B8884FF658
S31508007E60FF71884204BF3088B880002000E02620D1
S31508007E70BDE8F08102B5012200A900F021F802BD93
S31508007E8091FBF2F302FB1311704710B500240FF2B1
S31508007E904C13C35C012B08D113460A4601460FF260
S31508007EA02100FFF7A0FE00B90124204610BD0CB43E
S31508007EB080B502AAFFF7E9FF02BC5DF80CFB0000DB
S31508007EC02DE9F84F80468B46164647460FF20C10AA
S31508007ED0385C012833D13C4800EB8700C46800258C
S31508007EE00FF2FC090FF2EC0A15E0FFF761FEA18814
S31508007EF001B90125218809191BF8012B8A712188E6
S31508007F00491C39F81720FFF7BBFF2180A188491CB7
S31508007F10A18000F0B9F83046461EC0B250B1A0881C
S31508007F203AF817108842E0D315B1404601F088FDAB
S31508007F30222005E0404601F083FD002000E00120F4
S31508007F40BDE8F28F80B50FF29402825C012A06D151
S31508007F501D4A02EB8001C9688A88002AFCD101F013
S31508007F60A8FD002002BD0CB438B504460D4601F044
S31508007F7080FD04AB2A4621461448FFF734FE0FF26B
S31508007F805C01615C012908D10F4901EB8400C068D6
S31508007F90808810B1204601F053FD002032BC5DF800
S31508007FA00CFB10B5084901EB8000C469FFF700FE19
S31508007FB00021A1802180618000F066F8BDE81040AC
S31508007FC001F022BE00000000AC700020839A000871
S31508007FD0704700000000800000000000000100005B
S31508007FE000008000000000000000100000000000F3
S31508007FF000CA9A3B00E1F5058096980040420F00BA
S31508008000A086010010270000E803000064000000B5
S315080080100A000000174838B50446FFF7C9FD0546AB
S31508008020154800210160082154F8042B826054F891
S31508008030042BC260491EF7D10121016001F060FBE3
S31508008040284613E00C480021016001F059BB38B5F9
S315080080500A4C45096D010A48854238BF094CFFF7A5
S31508008060A7FD044945F014020A624C62BDE8324095
S3150800807000F00AB8FC6E002094ED00E009000B1031
S315080080809800002008000B1080F311887047000044
S3150800809070B5A14802F025FA0446FF2C15D09F4872
S315080080A00068205C851EE9B2204602F0C0F9064643
S315080080B0E9B2204602F0C5F82146304600F0E0F85D
S315080080C02046BDE8704001F06DBF70BD03460A4604
S315080080D090A10420FFE70CB480B502AA00F02BF8A3
S315080080E001BC5DF80CFB00B587B0FFF7BFF80021AF
S315080080F005910121049153210391002102910191D7
S3150800810087490091002302460FF224210120FFF738
S31508008110E2FF8448817903910188029141790191AE
S3150800812001790091C37882780FF210214220FFF777
S31508008130D2FF07B000BD2DE9F04F85B005460C46C5
S315080081409046002602F058FAC0B1012001F0C1FE9F
S315080081508246BAF1FF0F11D0002101F0B5FE29467B
S3150800816001A802F04FFA05467CB900F084F810B968
S31508008170504602F0C0FA504601F014FF05B0BDE8BB
S31508008180F08F8DF804200125641C20780028ECD097
S31508008190A0F13001C9B20A2905D20A2101FB06005D
S315080081A0A0F13006F0E700F066F80028E3D10025D4
S315080081B0227801A8422A0ED0442A1AD0462A25D067
S315080081C0572A0DD0622A3AD0662A2AD06C2A25D098
S315080081D0702A26D0D5E758F8040B8DF80400D2E7A4
S315080081E058F8041B8DF804100904090E417002257D
S315080081F0CAE758F8041B8DF804100A0A42700A0CDC
S315080082008270080E8DF807000425BDE758F8041B90
S31508008210504601F0D6FF0028B6D0ACE758F8046BF4
S31508008220B2E7012358F8041B662A08BF0223F2B2F4
S31508008230504601F0A6FF002808BF0026ECE737489D
S3150800824000681AF8009058F8041BCFB2FF2F9BD08D
S3150800825017F800B00BEB0901C9B2504601F0F1FF5F
S31508008260002888D1CDF800B000233A464946504642
S3150800827002F0F0F888E72A4601A9504601F09FBFA8
S31508008280F0B585B00C46122806D03A281AD04FF613
S31508008290FE71884235D03AE020480068255C224EB7
S315080082A008E0204601F00AFE394601F00DFC203DA3
S315080082B03068245CFF2C2AD0EDB2212D2CBF202754
S315080082C02F46EEE702F0EDFA0446FEF740FA0546B9
S315080082D0FCF7F9F90646FCF7F3F90746FEF72FFA15
S315080082E0024604940E48039010480068408802909D
S315080082F0019500963B460FF24C013B20FFF7EBFE3B
S3150800830005E0204605B0BDE8F040FBF750BF05B0D4
S31508008310F0BD00005746000030710020686E00204E
S31508008320D07C0020B8CC0108706E0020C87C0020E4
S315080083304242387042424242574242004242424218
S315080083405742000057424257573870420000000013
S31508008350DFF8880500210170FF210172017370475B
S31508008360F8B5044602F038FB0546DFF874050688BA
S31508008370DFF86875204602F03DFCB0F5006F1CD1A9
S31508008380204602F059FC00F0B9FAFF2813D0DFF8AE
S315080083905415096831F8102042F0200221F81020FF
S315080083A0214607F10C0002F087F8387890B1A81931
S315080083B0398A461A13E09320F2BDFF2107F1080017
S315080083C002F0A5F8052803D2214607F10800EAE7D6
S315080083D03920F2BD3D823146384602F0C0FCB2B2C1
S315080083E00321204602F081FB03220521204602F0E4
S315080083F087FB204601F0C8FD0020F2BDF8B504460B
S31508008400DFF8D804007AFF2813D0DFF8DC5429688F
S31508008410465C3746384602F0FFFB082201462046EE
S31508008420FFF738FB08B90120F2BD28683F5CB74260
S31508008430F0D10020F2BDF8B5044602F083FB050B27
S31508008440204602F00FFC0646204602F0F9FBB0F57E
S31508008450404F15D1E8073BD53146002000F081F999
S315080084600446FF2C34D0002102F084FD80B300F0CE
S31508008470A1F940F080020521204602F041FB27E0E1
S31508008480304601F0CAFF00F039FA0446FF2C01D144
S315080084900020F2BD01200021224602F071FFDFF81C
S315080084A04C24D2E9006706430F43C2E90067EB078D
S315080084B00ED5DFF830341B6833F814304FF4FE64F9
S315080084C0234205D0D2E9024520432943C2E90201E5
S315080084D00120F2BD38B5044602F08CFBB0F5006FFA
S315080084E00CBF01250025204602F096FB04462146CE
S315080084F0284600F036F9FF2810D18DB1204601F044
S315080085008CFF00F0FBF9FF280AD0DFF8D8130968BA
S3150800851031F810004FF4FA61084201D0012032BD4B
S31508008520002032BD2DE9FC4107460C46DFF8AC5366
S3150800853002F060FBB0F5006F0CBF05F10C0005F109
S3150800854008000078FF2848D0DFF89C130968405CCB
S315080085500646B7423ED1FFF72BFB8046052130463B
S3150800856002F0D5FA00F07F00471EFAB20521304620
S3150800857002F0C6FA002C18BF312C01D0F8B210BB95
S31508008580FFF716FB0746F0B202F034FBB0F5006FB2
S31508008590F1B206D105F10C0001F0B9FF00F00EF9B1
S315080085A003E005F1080001F0B2FF3846FFF76CFD5D
S315080085B04046FFF769FD2146304603F097FD3046F1
S315080085C001F0F0FC04E000F0F9F84046FFF75CFD26
S315080085D0012003E0765C8642BBD10020BDE8F68127
S315080085E038B502F0F9F9BD4C218A421A4FF6FF75E3
S315080085F0ADF80050208200A990B200F000F9BDF84D
S315080086000000A84202D10020207031BD0146204654
S3150800861002F0A5FB31BD00214FF6FF70EFE02DE912
S31508008620F84FDFF8C892D9E90001002908BF0028E9
S3150800863000F0908000260124B2460027B846FFF7CE
S31508008640B7FA8446D9E9000104EA00021AEA0103E6
S3150800865008BF002A18D00127E5436FEA0A0B28400D
S3150800866001EA0B01C9E90001D9E9022304EA02007B
S315080086701AEA030108BF002806D0B84602EA050030
S3150800868003EA0B01C9E902016046FFF7FDFC002F6A
S3150800869051D09448006830F8160081074BD59449A4
S315080086A0096831F81670B8F1000F05D000F4987112
S315080086B0102908BF012500D000258E490968002227
S315080086C07254B8F1000F25D0800623D58DF80070B6
S315080086D0380A8DF8010000A9012000F042F880460A
S315080086E0B8F1FF0F07D100F037F84FF6DF721140E7
S315080086F020F816101BE0002102F03CFCB8B1052159
S31508008700404602F004FA40F080020521404602F095
S31508008710F7F90CE085F001004146014207D000F068
S315080087201BF841F4006120F8161004F085F8294674
S31508008730384604F0C3FD761C4FEA4A0040EAD47A6C
S315080087406400402E06DAD9E90001002908BF00288E
S315080087507FF473AFBDE8F18F6248006830F81610F1
S3150800876070472DE9F04188465C49002819BF01F198
S315080087700C00022501F1080008250078FF2816D00C
S31508008780594E3168475C3C4600F014F800060AD496
S31508008790204602F041FA01462A464046FFF77AF992
S315080087A008B9204604E03068245CBC42ECD1FF20BE
S315080087B0BDE8F0810521204602F0A9B970B500216F
S315080087C0202005F05CFA4548007BFF2816D0464C69
S315080087D02168455C2E46304602F02EFA00F08EF8E7
S315080087E0FF2807D03F49096831F8102042F02002D7
S315080087F021F810202068365CAE42ECD170BD2DE918
S31508008800F84F80460D460FF2F00000680090DFF83A
S31508008810CCB00BF10804344F01E00BF10C04FFF760
S31508008820C7F9064606E0204601F05BFE514600A859
S3150800883001F042FE204601F09FFE48B920783968CB
S3150800884010F801A00321504602F046F98045EAD205
S315080088500BF10C00844208BFFFF7B0FF3046FFF764
S3150800886013FC2078FF2819D0396810F80190CA46F9
S315080088700321504602F030F9A0EB0806B2B20321F4
S31508008880504602F032F92888B6B2864288BF0646B4
S315080088902E8038681AF800A0CA45E9D10BF10C00F9
S315080088A08442BAD100A801F067FEA8B900A801F071
S315080088B018FE044602F050F900F0E6F8FFF77AFFD2
S315080088C0000603D44221204603F010FC204601F09E
S315080088D069FB00F0DAF8E5E7BDE8F18F20720020C1
S315080088E0E86E0020846E0020746E0020F877002061
S315080088F07C6E0020886E0020FF000000F8B5060098
S315080089000C4C276814D0FFF753F90B4D29782268C9
S3150800891022F8116037F8021BB142FBD1FFF7B4FB0E
S31508008920B81E2168401AC0052978000E884200D171
S31508008930FF20F2BD7C6E0020806E002010B56948CD
S315080089400068694C2060606048220021FFF79BF8A8
S31508008950206866490978017020680021017320683B
S31508008960417320680B21817320680321C173206835
S315080089704FF6FE7101824FF6FF71418200F08AFBC5
S315080089802168087600F086FB2168487600F082FBAD
S3150800899021688876206856490978C176206855493D
S315080089A0096881625449097880F82C10206853496F
S315080089B00968016310BD10B5FBF782FE4A4C616871
S315080089C0897B884203D00846FBF772FE50B9FBF74D
S315080089D07AFE0146606890F90F00814204D0FBF7E1
S315080089E076FE08B1012010BD6068008AFDF7AAFE70
S315080089F06068408AFDF7AEFE6068007B012818BFF4
S31508008A000020FDF789FE002010BD10B53C4C002063
S31508008A10207004F018F920B92046BDE8104002F08D
S31508008A2093B901F0B7FF08B105F073FC4FE080B5C4
S31508008A30002000F015F828B1002000F005F808B16C
S31508008A40002002BDFF2002BD27480068407B02289F
S31508008A501CBF1128432801D1012070470020704708
S31508008A6021480068017B04298041C00F7047002017
S31508008A70704770477047002070470120704770475D
S31508008A8000207047002070477047704700207047E5
S31508008A900020704780B50020FFF7D6FF30B1124896
S31508008AA00068007B032801D2002002BDFF2002BD1A
S31508008AB010B5040004D0D9210FF26800FCF79EFD1A
S31508008AC048200849096800FB041007494860BDE8C2
S31508008AD0104070E704484068008A704702484068BA
S31508008AE0408A7047B06E0020C87C0020C67F0020F0
S31508008AF0E56E0020B86E0020BC6E0020C06E002017
S31508008B00B87C00207047002070470020704702F0AC
S31508008B1068BA70477047FBF746BB05F073BF07F0A6
S31508008B2075B90000656D6265722D6D756C74692D79
S31508008B306E6574776F726B2D737475622E630000A1
S31508008B4070B504460D461646FDF7CCFD38B160787B
S31508008B50002E14BF40F0200000F0DF0060702946A8
S31508008B60204601F0A2FAFF2822D09C4C014604F1C7
S31508008B700C0001F0A1FC2088401C2080618880B28E
S31508008B8081420BD2A088401CA08004F10C0001F0A1
S31508008B90A8FC01F007FA2088401E208060882188FA
S31508008BA08842F2D38E480078BDE8704002F0CDB90D
S31508008BB070BD2DE9F04E86B0044600208DF80500FC
S31508008BC0FEF7F6FF854D2988491E2980FFF75CFACE
S31508008BD0204601F073F990F8009090F801A0002063
S31508008BE0009008237F480068205CA0F10802D2B2F2
S31508008BF0214602A801F073FA02AE7078FFF744FF27
S31508008C007948007898B1A86800280FD0F078FDF761
S31508008C1029FA4946FDF72DFA024696F9020000F1AF
S31508008C2066035BB24946204600F0BCF894E00AF0B9
S31508008C30070002282DD0FF208DF80400204601F0F9
S31508008C403DF900F1010B584601F0B9FF0546A9EBBD
S31508008C500500801E47B2002F06D5204601F0A2F96E
S31508008C60FFF713FF002081E001A9584607F05AFADA
S31508008C70002874D10AF0070001280BD105EB0B0177
S31508008C809DF8040003F057FD20B99DF8040001F093
S31508008C9089F964E09DF804005249096810F801A0B2
S31508008CA05249096844544F480068205C00F1200185
S31508008CB0C9B29DF8040001F007F99DF8040001F017
S31508008CC046FF00F00C0004281CBFEF19002578B2F7
S31508008CD080B200906B1C9BB2224651469DF8040058
S31508008CE001F0B8FB07EB0A01C9B29DF8040001F0D0
S31508008CF0A8FA70783E490978884204D3BD210FF254
S31508008D00F800FCF77BFC9DF8040001F01BFF8004CB
S31508008D10800C717840EA813189B29DF8040001F02F
S31508008D2013FFF078FDF79EF94946FDF7A2F90246CA
S31508008D30032100F01EF8B07800F16602D2B20421D1
S31508008D4000F017F89DF80820052100F012F89DF8A4
S31508008D500440204602F04BFA01208DF80500204613
S31508008D6001F020F9FFF791FE9DF8050006B0BDE871
S31508008D70F08E9DF8040001F0C3BE10B5174CA1880B
S31508008D8029B1C9B21D20FFF7CAFE0020A08004F150
S31508008D900C0001F0A6FBFF2803D0FFF70AFF002806
S31508008DA0F5D010BD30B5A1B014461D46002200927C
S31508008DB04B1CDBB2014601A801F091F9FFF75FFEF3
S31508008DC02A46214601A8054B9B689847FFF75DFE92
S31508008DD021B030BD074801F0CFBB0000107200205B
S31508008DE0D37F0020686E0020D1710020706E0020AD
S31508008DF0B46E00201C7200206D61632D7265636578
S31508008E006976652E6300000038B504460D460120D4
S31508008E1007F074FA5A48002D12BF00210178491C40
S31508008E200170584844705848FDF74EF90020BDE8CF
S31508008E30324007F063BA10B51446A8B3402820D0CC
S31508008E40882818BF892833D08D2828D08F2836D16E
S31508008E504E48007804280DD144B14D4802210170CE
S31508008E6040F60620BDE8104007F050BAFDF7E0FBD3
S31508008E70312020E0FDF7DCFB002C0CBF3120002060
S31508008E8019E03F4801784078814204D20021012048
S31508008E90BDE81040B8E7FDF7CBFB40200BE0012109
S31508008EA02020FFF73CFE05E0FDF7C2FB002002E0AC
S31508008EB0FDF7BEFB8D20BDE8104002F03EB9D0217B
S31508008EC00FF2E400BDE81040FCF798BB3048007884
S31508008ED0022800D0704780B52E480078042807D0AD
S31508008EE00C280ED12C480078022818BF7C2808D1F7
S31508008EF007F027FAFDF79CFB0020BDE8024002F0C8
S31508008F001CB901BD38B50024FEF752FE05462048B7
S31508008F10007810B9FDF724F804462846FFF7B4F898
S31508008F20002C1CBFBDE83140FBF78CB931BD80B5BC
S31508008F30FFF7E8FF14211948BDE8044001F016BF01
S31508008F4040F20D110FF26000FCF758BB38B5144C0F
S31508008F502068216C01EA0005ADB2A80706D5206C89
S31508008F6020F0020020640F4801210170680705D52A
S31508008F70206C20F00400206403F040FD256031BD1C
S31508008F800C72002040710020A87E0020DB710020B2
S31508008F909C7E002048720020497200207C7E0020BA
S31508008FA008A00040E27F00206D61632D656D3235B3
S31508008FB0302E630038B504461B4D214600F03DF8B7
S31508008FC0E860211D00F039F8A86004F1080100F0F6
S31508008FD034F8686004F10C0100F02FF8286031BD00
S31508008FE07047F8B50446114D80202860104E0620BB
S31508008FF030600720286030688007FCD5002704EB1E
S31508009000870100F01AF8A8627F1C042FF7D330688E
S315080090104007FCD500262A6B04EB860100F00AF807
S31508009020761C042EF7D3F1BD3830004000300040DE
S3150800903010A00040002007F099B9002007F0A4B955
S3150800904070B504460D46FEF7B3FD06462846FFF7FB
S31508009050B1FF2046FFF7C5FF3046BDE87040FFF771
S3150800906013B8002848BF40427047000081B209B9CA
S315080090704BF6EF610E4A1180000C08BF4FF6CE2062
S31508009080508070470288130448BF4A405100018047
S315080090901046704738B5064C62212046FFF7F2FFA6
S315080090A0054641F20B01A01CFFF7ECFF684032BDF4
S315080090B0EE6E0020EFF3118060288041C043C00F98
S315080090C070470000002181F3118870472DE9F04FA1
S315080090D091B08046DFF8A44560681090B8F1070F94
S315080090E008BF4FF0030804D0B8F1080F08BF4FF0C7
S315080090F00208DFF88C653068716840EA0120B168BB
S3150800910040EA014000907068400703D5E06940F0E6
S315080091100200E0613068400703D5E06940F00400CA
S31508009120E0614FF001090098F16909FA01F1084276
S3150800913003D0E06940F00800E061DFF83C55002004
S315080091406860DFF84075B8F1010F00F03482C0F0AE
S315080091505D82B8F1030F1BD005D3B8F1040F40F0B8
S315080091605582606014E0386CC00703D5E06940F0AA
S315080091704000E061386C400703D5E06940F0200004
S31508009180E061386C800703D5E06940F01000E061C3
S31508009190FEF70EFDFEF7CBFC8DF83C004FF0000BFA
S315080091A0DFF8E404C0F50040000B09FA00F0401EA1
S315080091B0DFF8D8148863000A07D1DFF8D4040078EA
S315080091C018B1606C40F020006064386C0E90786CC2
S315080091D00D90DFF8C0A4DAF84C000C90DAF85000CD
S315080091E00B90DAF854000A90DAF8580009900868E3
S315080091F008904868079048690690486A0590DFF81D
S3150800920098040068DFF894144968049102212160E3
S31508009210DFF88C140968DFF88C24126841EA022109
S31508009220DFF88424126841EA024103914FF0FF31C6
S315080092306162DFF878140A686968D20408D572682A
S31508009240D20705D5E269D20744BFCB4641F48071FF
S3150800925000F0EBF9920408D57268520605D5E26962
S31508009260D20744BFCB4641F4804100F0DEF95204F0
S315080092700AD500F0D4F907D0E269D20704D5CB465F
S31508009280B26909FA02F2114300F0CFF9120410D5B7
S31508009290009AF36909FA03F31A420AD0E269D20777
S315080092A002D4E269120704D5CB46F26909FA02F23A
S315080092B0114300F0BAF9D20305D5E269120644BF94
S315080092C0CB4641F00061696000217268D20748BF49
S315080092D04FF480517268520648BF41F4005100F0BD
S315080092E09EF918BF41F48041F36909FA03F31A425B
S315080092F018BF41F40041E269D20605D4E269920634
S3150800930002D4E269520601D541F01001E26912065B
S3150800931048BF41F4803108400290A520FEF7FEFBC5
S31508009320C4F83C90E069A16B11B1616A0142FAD0B8
S31508009330616A014200F0D7800020E063CB46686886
S3150800934040F08040686000F0D5F9072038600F20AB
S31508009350CAF80000FEF75EFE109860600E98386442
S315080093600D9878640C98CAF84C000B98CAF8500007
S315080093700A98CAF854000998CAF85800C3480899C0
S315080093800160079941600699416105994162C248A1
S3150800939002990160C14804994160C5484FF0FF3100
S315080093A00160BF48D0F800C0BE480168BE480268E0
S315080093B0606AE3690340F06901906868DDF80CE0CB
S315080093C04CEA012141EA024181EA0E01009A114064
S315080093D05A0802F0010241EA82219A0802F00102C3
S315080093E041EA8201DA0802F00102DDF804C002FA55
S315080093F00CF2114303F47C7241EA02510843686097
S31508009400FEF7D6FB00F084F9002020609DF83C00AA
S3150800941008B1FEF778FB68689F490968C90303D550
S31508009420010144BF20212162396C890703D5C10196
S3150800943044BF0221F960396C490703D5810144BF4D
S315080094400421F960396CC90703D5410148BFC7F83B
S315080094500C90DAF84C1011F0E00F05D0C10503D5D1
S3150800946092494FF480520A60DAF8501011F0E00F72
S3150800947005D0410403D58D494FF400520A60DAF845
S31508009480541011F0E00F1EBFB16909FA01F1084244
S3150800949003D086494FF480420A60DAF8581011F072
S315080094A0E00F1EBFF16909FA01F1084203D07F48AF
S315080094B04FF400410160BBF1000F73D17D4800688D
S315080094C000056FD5606880076CD5B8F1040F69D0C0
S315080094D071480068C00642D574480068C0063ED583
S315080094E085F800905EE0BBF1000F7FF428AF67486F
S315080094F0806940084000654988616848C06840F04E
S3150800950004006649C8606C4880F800904FF20F0165
S315080095106A4A138840F2072C634504BF53888B4276
S3150800952003D14CF23C335380CB465C4B1B6843F06B
S315080095308053DFF868C1CCF800300378002BFCD1E3
S31508009540BBF1000F1CBF51804FF0000B5948406813
S315080095500004A860574989680843A860F5E6FEF73D
