S02800007365637572652D6170702D626F6F746C6F616465722D7370692D6D3435706532302E733337CC
S31508000000000400206F00000885000008850000082D
S31508000010A70B090100000000010201530040000877
S31508000020040D00006D0E00082D130008AC0600082C
S31508000030E708000867090008C70900085B090008FF
S3150800004031090008A90A00083709000881010000DB
S31508000050FFFFFFFF09480068202100EA010028B1D8
S315080000600748016842685FEA010D10477047FFF7C5
S31508000070F1FF00F013F800F045F800002C000040EE
S315080000800040000806E000005FEA000D704744489B
S31508000090008870474FF4017000F09CB838B54FF2ED
S315080000A00F04404D00F0C2F828B140F20520288020
S315080000B06C80012032BD3C480068C00613D56888AC
S315080000C0A0421CD1288840F2022188421CBF40F277
S315080000D00621884213D040F2011188421CBF40F223
S315080000E0111188420BD0314C208A40F6A72188424C
S315080000F005D12068FFF7C8FF6068804700BF002069
S3150800010032BD000038B5044672B629480168490868
S315080001104900016000F0D0F8234800680009C107CB
S3150800012054BF2449244902E0CD2201F8012B234A71
S315080001309142F9D32249234A234B03E011F8015B84
S3150800014002F8015B9A42F9D32049214A002301E0CB
S3150800015001F8013B9142FBD340F20521114A53882D
S315080001604FF20F05AB420BD113888B4206D0C0075E
S3150800017006D5180A012818BF022801D1194601E038
S3150800018004B90021064801804CF23C30508000F04A
S315080001905FFA4FF40170BDE8324000F01BB800006A
S315080001A0B80C0020000000202C0000400040000889
S315080001B0FCED00E00000002098000020000400206C
S315080001C0D8180008000400200804002008040020AD
S315080001D0BD0C00200D4930220A600D490A600D4900
S315080001E00A600D4910220A60010A08BF00020B497D
S315080001F008804FF20F004880BFF35F8F0848002140
S315080002000160416007480849016070473020004096
S3150800021030C8004030C0004010E000400000002018
S315080002201C4000400CED00E00400FA050020704771
S3150800023080B500F056FA0121062000F05DFA062086
S3150800024000F08DFA0121072000F056FA072000F089
S3150800025079FA1748016821F01001016001BD000014
S31508000260052800D9704710B5DFE800F01721030FFD
S315080002701C17104C2088411E2180C0B9072000F0A9
S315080002807BFA42F21070208010BD072000F067FA52
S315080002900620BDE8104000F06FBA0620BDE8104001
S315080002A000F050BA0620BDE8104000F058BA10BD5C
S315080002B000BC0040BA0C00202AE038B5054600F01C
S315080002C003FAFA2190FBF1F44FF4F070B0FBF4F066
S315080002D02D1A2DB21E2DBCBF4FF40170FFF77AFF01
S315080002E06A480721016000214160816068494FF032
S315080002F000720A6005FB04F1C91C8908491E4160A1
S3150800030031BD6548016841F0010101600121416084
S315080003106248512101607047002070472DE9F84373
S31508000320804640F2DC594C465A48B0F900705748A6
S315080003305C4D5B4E012F1ADA0221B18029600068F4
S31508000340C00348BF00F08BF8A86900F00300032833
S315080003505DD0002F03D5A86940F00200A861404689
S31508000360FFF7DAFF04001AD1002F50D54DE04FF6FB
S31508000370FF77B188B9421CD102237F224A480188F7
S31508000380301D00F00FFAB088B84204BF0220B080D2
S31508000390A869800703D4A86940F00200A861012073
S315080003A07070B088286020B2FFF787FF2046BDE846
S315080003B0F283A9698907EED50068C00348BF00F033
S315080003C04EF8707808B14846F1E7A86810F00100C1
S315080003D0A968B28803D10F2A08D2521C06E08907F9
S315080003E004D5F17811B1032A28BF521EF07092B2D3
S315080003F0022A38BF0222B2802868B1888842CED144
S31508000400A86900F00300032801D0FFF77AFF00204F
S31508000410CDE710B504462548017869B9C07807289C
S3150800042018BF092813D0032818BF11280FD013287E
S315080004301CBF15280B280AD01D48016841F4807195
S31508000440016004E000F0E2F90620FFF765FF2046A8
S31508000450FFF764FF0028F5D110BD0220D9E70B4845
S31508000460002141608160016821F0020101600848AD
S315080004704FF0007101600A48417801B9704780B5AC
S31508000480002141700620FFF747FF01BD10E000E09C
S3150800049004ED00E0D61800081C400040008000402B
S315080004A00004002004400040D418000896070808F5
S315080004B03840004000787047002101608180C18083
S315080004C001817047F8B504460D461646002710E028
S315080004D02068803020600020E08080202081A0886D
S315080004E0401CA080E088411CE1800019807A78557C
S315080004F07F1CBFB2B7420CD2E08821898842F1D36B
S31508000500802204F10A01206800F02DFA0028DFD0C5
S31508000510F2BD0020F2BD0020704710B5044600F079
S31508000520E7F82046BDE8104000F0E6BA2DE9F043AA
S31508000530A5B000F0C7FA00F0DBF800F01DFB0121BA
S3150800054000A800F021FB404C04F1800500206860FB
S31508000550A86000F0EDF900280FBFE8608168E9603F
S315080005604088A4F8800000A800F0D2FB070046D116
S31508000570BDF80420BDF8060000A9401800F20A06D6
S315080005805FFA82F894F8800080070FD5E96869B1A8
S31508000590686808EB00024B1E22EA030710B1A86838
S315080005A0B84203D2384600F07FFAAF604246314679
S315080005B0686800F008FA07000FD1424621466868C5
S315080005C000F0D1F9002000E0401C404505DA015D45
S315080005D0825D9142F8D0832706E0686840446860E7
S315080005E0002FC0D01B2FBED00420FFF739FE0121F3
S315080005F0384600F015FB384625B0BDE8F083172FBE
S31508000600F0D10020F8E770B5DAB0044636A8FFF74F
S3150800061053FF012000904FF402630C4A36A901A843
S3150800062000F024FC0FF284050FF2740600F060F85F
S31508000630002C14BF3246002201A9284600F076FE97
S315080006405028F3D05AB070BD280C002008040020AA
S3150800065080B5FFF702FFFFF7EBFD00F044F918B18C
S315080006604FF40170FFF7B6FD00F042F8FFF70FFDF3
S3150800067040F2011188421CBF40F21111884207D08E
S3150800068040F2052188421CBF40F20321884201D16D
S31508000690012000E0002000F077FE002002BD0000E7
S315080006A04518000881180008B5040008C5040008A4
S315080006B01705000819480068C00702D442F6E0602A
S315080006C0704745F6C050704780B5FFF7F3FF1449E9
S315080006D0096801B9400802BD80B5FFF7EBFF40087D
S315080006E002BD1048012181604EF6BE21416000E03E
S315080006F00D4801210160704710B582080FF22C03DE
S3150800070053F82220136800F0030080000F24844069
S31508000710A34301FA00F01843106010BD1C400040C6
S3150800072020400040006000400860004000B00040E3
S3150800073004B0004000B2004004B2004000B40040DB
S3150800074004B40040C108032908D2C1104902124A5C
S31508000750012300F0070003FA00F050507047C10863
S31508000760032908D2C11049020C4A012300F00700E8
S3150800077003FA00F050507047C10803290BD2C11084
S31508000780074A02EB41210A68012300F0070003FA31
S3150800079000F050400860704714B0004010B00040A8
S315080007A00CB0004030B583B0044610467F2808BF19
S315080007B00020B1F5004F1AD108237F2240F6120116
S315080007C000A8FFF7EFFF08220FF2380100A800F093
S315080007D03FFE30B908237F2240F2A27100A8FFF736
S315080007E0E1FF082200A9204600F012FE37BD1A468E
S315080007F0034D294300FB0311204600F009FE37BDCF
S3150800080000000808FFFFFFFFFFFFFFFF70B5064661
S31508000810274C2568FFF760FFFA2190FBF1F070433B
S315080008202F303021B0FBF1F0032809D3616D41F078
S31508000830010161652168491B0903090B8142F9D346
S3150800084070BD38B50C4620B1012818D003282BD026
S315080008502CE0184D8CB1184884421CBF4FF4017027
S31508000860FFF7B8FCFFF738FF4FF47A714843B0FB3F
S31508000870F4F0401EB0F5005F0ED2286014E05CB1BB
S31508000880FFF72AFF4FF4FA61620801FB0020B0FB6C
S31508000890F4F0B0F5003F01D3202032BD074900F03F
S315080008A001024A6040080860002032BD212032BD9E
S315080008B038200040100004E020A1070068C8004066
S315080008C07449086048680007FCD50868704771498C
S315080008D0FF2008604A681207FCD54A68920748BF95
S315080008E00868C0B2704710B56B4C41F649102060D5
S315080008F06A480021C16001614160102141600221FE
S31508000900016042F21070FFF781FF606940F008004D
S3150800091060619F20FFF7D4FFFFF7D9FF216941F0F7
S3150800092008012161202801D1002010BD862010BDB4
S315080009300FF2781070470020704710B5584C606861
S3150800094040F0080060600520FFF7BAFFFFF7BFFF19
S31508000950216841F00801216010BD80B5FFF7EDFF61
S31508000960C007FBD401BDF8B506460C4615464D48EA
S3150800097086423CBFA919814201D38520F2BDFFF703
S31508000980DCFFC007FBD400F07EF80320FFF798FFD2
S31508000990300200F076F8300400F073F8F0B2FFF792
S315080009A08FFF05E0FFF7A4FEFFF791FF04F8010BA0
S315080009B02846451E80B20028F4D1386840F0080061
S315080009C038600020F2BD2DE9F84F044688461646E1
S315080009D0344884423ABF31198142852012D24FF4F5
S315080009E0807A200607D0200A000200F5807081422E
S315080009F005D3051B04E040F20110864204D23546B1
S31508000A001EB90020BDE8F28F5546AB46C146FFF732
S31508000A1094FFC007FBD400F036F80620FFF750FF16
S31508000A20386840F008003860786840F00800786058
S31508000A300A20FFF745FF200200F023F8200400F003
S31508000A4020F8E0B203E0FFF753FE19F8010BFFF7B1
S31508000A5037FF5846A0F1010B80B20028F3D1386859
S31508000A6040F008003860FFF768FFC007FBD4761B24
S31508000A70A8B20444804440F20110B6B28642C3D2FA
S31508000A80BDE7000E1CE7064F786840F0080078605E
S31508000A90704700003CC0004000B0004054C0004011
S31508000AA010B00040010004008820704702010000D1
S31508000AB0000000000001000000000400CC18000837
S31508000AC00100000080B54FF4E1310120FFF7B9FEBF
S31508000AD02648022181600121016009210920FFF7CA
S31508000AE00BFE04210A20BDE80440FFF705BE204896
S31508000AF000684006FBD570471E49CA685207FCD5F0
S31508000B000860704710B5044603E014F8010BFFF7B8
S31508000B10F3FF20780028F8D110BD10B50446200947
S31508000B200A282CBF37303030C0B2FFF7E5FF04F093
S31508000B300F000A282CBF37303030C0B2BDE810404D
S31508000B40DAE70B48006810F0020018BF012070476A
S31508000B5010B50446FFF7F5FF20B106480068207077
S31508000B60002010BD012010BD0000000054C8004040
S31508000B7048C800403CC8004080B500A8FFF7E8FF19
S31508000B800028FAD001BD000001700122427082706F
S31508000B9001290CBF8021402181800021C18001816B
S31508000BA01D4801600E218162016821F01001016073
S31508000BB00021416341627047F8B504460D46164662
S31508000BC016484FF0FF310160134FFE62002078622D
S31508000BD0386840F001003860FFF78AFD012C19D10A
S31508000BE06DB9FFF7AEFF78B9786AB042F4D3002E34
S31508000BF0F2D038684008400038601620F2BD284612
S31508000C00FFF7A6FF0028EFD1386840084000386093
S31508000C100020F2BD0120F2BD00F0004000A800400F
S31508000C2038B504460D4600F009F800F007F82A46DC
S31508000C3021461820BDE83840FFF76FBC2A462146F2
S31508000C401820FFF76ABC30B583B00446002020811F
S31508000C504AF6B43200A92078FFF7AEFF08B11C2087
S31508000C603EBD9DF80000032818BF182801D118209A
S31508000C703EBD042801D117203EBD012801D0212000
S31508000C803EBD002500E06D1CEDB2A188091D8D4210
S31508000C900BDA40F2DD22281900F10A012078FFF765
S31508000CA08BFF0028EFD026203EBD0025002006E059
S31508000CB00146EDB22819007B00F0DCFB6D1CA1880B
S31508000CC0EAB28A42F4D3A27AE37A9B18FF2B01D0C0
S31508000CD022203EBD0B191D7BB5EB102F01D023201A
S31508000CE03EBD5B7BC0B2834201D024203EBDA078C6
S31508000CF0824207D0401EC0B2824201D127203EBDA3
S31508000D0025203EBD881C20810220E08000203EBDB3
S31508000D1038B504466078012804D023D3032855D073
S31508000D2018D31FE02078012811D13B254320FFF76F
S31508000D30E3FE40F2DD2200212078FFF73DFF30B1C7
S31508000D402846451EC0B20028F0D11B2032BD02201D
S31508000D50607010E0FFF710FF00F03AF8A078401C2A
S31508000D60A07008E0182032BD2278A078411EC9B2CA
S31508000D700620FFF7D2FB2046FFF765FF050018BFE0
S31508000D80FFF7FAFE272DEFD0A8060BD52278A17813
S31508000D901520FFF7C2FB002DEDD10320FFF760FAFF
S31508000DA0002032BD680603D4182D18BF1C2D07D1A4
S31508000DB021782846FFF734FF04206070284632BDA4
S31508000DC0172DE8D100F004F803206070172032BD13
S31508000DD02278A1780620FFF7A0BB0000F8B50446E4
S31508000DE00D4616461F4607E03046A047294600F03E
S31508000DF053FB05467F1E761CBFB2002FF4D128464A
S31508000E00F2BD38B50C46154605E0014614F8010B47
S31508000E1000F042FB6D1EADB2002DF6D132BDF8B51D
S31508000E2007460E4614461D462A46214630683B6844
S31508000E309847070005D12A462146F068FFF7E1FFE3
S31508000E40F060D6F8A8002818C6F8A80096F8A700F3
S31508000E5050B1AC362A462146304600F0F1FB2A4608
S31508000E602146304600F06CFB3846F2BD10B5029CB0
S31508000E7084720381426001604FF0FF31C160002136
S31508000E800174A0F8A410802180F8A610002180F82B
S31508000E90A710C0F8A8102822AC30BDE8104000F012
S31508000EA0D0BA2DE9F84F04468B461E469BF81B70B0
S31508000EB0802F28BF8027D0689B49884250D1002EB2
S31508000EC04CD0B06800904FF0FF384FF000090BEB9C
S31508000ED0490A9AF848500FE0FF2D16D0FFF708FC8C
S31508000EE04FF40063E80240F0006241460098FFF7BD
S31508000EF075FF8046681CC5B29AF84900A842EBDA25
S31508000F0009F10109B9F1060FE1DBDBF844006FEAE4
S31508000F100801884224D1A06800BA7A08594673683D
S31508000F209847C8B9E06805BAA06802BA3B464FF0C8
S31508000F30FF31B068FFF752FFC04385420CD140F637
S31508000F40A720ABF81000A06800BA01220BF1100127
S31508000F5010307368984708B1422002E0172000E075
S31508000F604320BDE8F28F2DE9F44F82B081460D4645
S31508000F70D5F804B02889ADF8000005F1140606F185
S31508000F80100704235A4600F0CFF9002825D1BBF8EC
S31508000F90000040BA1FFA80F8BBF8020040BA84B2D3
S31508000FA0E00748BF462076D4B4F5026FC8BF4E2086
S31508000FB071DC002C6ED0DFF874A15FEA080009D056
S31508000FC04FF60441B8EB010064D0FF3865D0FE380F
S31508000FD063D0A7E0287C08B151205CE08D2C28BF9F
S31508000FE04F2058D22346321D00F09DF9002852D1D1
S31508000FF0FA7E802A28BF802202F10C00844201BFB3
S31508001000B08840BA00F47F40B0F5007F3ED1F08842
S3150800101040BA4EF25031884202BF388A40F6A721BC
S31508001020884233D1788A00F47F40B0F5807F01BFCB
S31508001030B06800BADAF81C10884227D1BAF8180046
S3150800104040F2032188420BD1788AB0F5847F1DD3FC
S31508001050F86D41051AD13649081AB0F5F02F15D89A
S315080010604FF6FF70388206F110014FF0FF30FFF798
S31508001070C8FEF16809BAC943884204BF387E042805
S3150800108004D1787E0D2818BF062801D0452002E035
S31508001090012028740020BDE8FE8F287C08B941206D
S315080010A0F9E7042300F03EF90028F4D1DBF8000044
S315080010B006BA201F84B2DAF81C00864238BF4820D8
S315080010C0E9D3A019796D884228BF4920E3D24FF6A3
S315080010D0035080450CD1029850B131460220029A3D
S315080010E01268904720B14A20D5E7E01B84B2BE19A2
S315080010F0002CCFD0BDF800008442B4BF274607466F
S315080011003B4600F00FF90028C5D102980028ECD01C
S315080011107A0859463046029B5B6898470028E4D00F
S315080011204B20B8E74420B6E7E320BBDE0000000802
S3150800113000E007082DE9F84304468846154605F1F8
S31508001140AC062F89102C38BF4E202CD304233246E8
S3150800115000F02BF838BB0C23321D00F026F810BB24
S31508001160A4F11001306800BA30608CB221463046CE
S3150800117000F0AEF906E04A466968304600F0E0F944
S31508001180A4EB0904A4B254B1A146BC4288BFB9462F
S315080011904B466A6800F009F80028ECD003E03046B0
S315080011A000F0F1F90020BDE8F2832946404636E60C
S315080011B02DE9FE4F81460C469046666804F1140AEE
S315080011C00AF1100B04F1A405A878832805D14FF677
S315080011D00710AF888221A9700AE00423324600F07E
S315080011E0A3F8002866D1308840BA718849BA8FB208
S315080011F0F90748BF46205DD4A97880B24FF2097234
S31508001200801A58D04FF4FF72801A3AD0FF382FD080
S31508001210FF3802D0FF386BD081E080296AD1062FCB
S3150800122023D3062301AA21464846FFF7F8FDE8B965
S31508001230BDF8040040BA00F47F40B0F5007F01BF56
S31508001240BDF8080040BA4EF2503188420DD1BDF8BB
S31508001250060040BA012818BF522007D1BDF806007B
S3150800126040BAA4F8A400002000E04520812154E0FB
S3150800127081293FD1224649463846FFF75BFF82213E
S315080012804BE0822936D1042F2DD30120E8700020A7
S315080012906860424621464846FFF765FE18BB0021AE
S315080012A0E97069688F421ED3B94239D28322AA707F
S315080012B0791A696034E082291CD104F1AC084046E9
S315080012C000F061F92089B842B8BF4F2028DB3B46B9
S315080012D03246214600F028F810BBFAB2314640469D
S315080012E000F077F908B954201AE00020842114E0A8
S315080012F0842901D0512013E0042F18BF4C200FD1A8
S3150800130004233246214600F00FF848B943462246E0
S3150800131059465046FFF7C5FD8521A97000E04420CF
S31508001320BDE8FE8F5A462946484678E570B5054613
S315080013300C4616462089C10701D4802801DA4F20B9
S3150800134070BD00F0B9F808B9532070BD3246214681
S315080013502846FFF72DFF002818BF172803D08F212E
S3150800136084F8A61070BD94F8A600852806D12068D2
S3150800137069688847172805D1002070BDA07A00281B
S31508001380E4D0502070BD000010B504460020FEF7DA
S3150800139067FF24BB0020FFF736F950B90120FFF795
S315080013A032F930B90520FEF75BFF40F20120FEF75F
S315080013B011FF0420FEF754FF0120FEF751FF40F20B
S315080013C00320BDE81040FEF705BF0FF23400FFF713
S315080013D099FBFFF78CFB40F20220FEF7FBFEFFF7B6
S315080013E0A5F80400F1D00FF22000FFF78BFB20468A
S315080013F0FFF793FB01A0FFF785FBF0E70D0A000056
S315080014000D0A4F6B0D0A00000D0A455252200000C6
S31508001410814212D21018401E5118491E92B2002A53
S315080014201EBF11F8013900F80139521EF6D170476E
S3150800143011F8013B00F8013B521E92B2002AF7D17F
S315080014407047130003D00A46194600F025B97047BD
S3150800145010B500E0521E92B232B110F8013B11F8F5
S31508001460014BA342F6D001E0002010BD181B40B284
S3150800147010BD00000A0242EA11214840C0F30311D8
S31508001480484080EA00304101C9B20206D20E41EA5C
S315080014900221484080B270470A0A4840C0B2082173
S315080014A04308C00746BF034858401846491EF7D1A7
S315080014B0504070472083B8ED00206049415CFF2901
S315080014C001D001207047401C1028F6DB0020704729
S315080014D012B583B00446206800BA00903A200399F2
S315080014E001B17A2020740C22211D04F11100FFF7A6
S315080014F08FFF03220DF1010104F11D00FFF788FF9C
S3150800150000F03CF80398D0B1B0F57F4F05D200BA89
S31508001510039002220DF10E010EE00FF278100088FA
S31508001520ADF80400039800BA0390022201A92046E8
S3150800153000F006F8042203A9204600F001F81FBDB2
S31508001540F8B504460D461646002714E094F825001B
S315080015500019017C7A5D5140017494F82500401CFD
S3150800156084F82500C0B2102804D300F007F800203C
S3150800157084F825007F1CB742E8D3F1BD2F4904F152
S31508001580100000F003B91FB5044600A8102100F0AA
S3150800159007F994F82500C0F11000C11000EB11718D
S315080015A00911A0EB011200A92046FFF7C9FF1FBDCC
S315080015B01FB50C4600AA011D002000F027F80020E0
S315080015C0015D00AA825C51400155401C1028F7DBDA
S315080015D01FBD38B504460D46102A07D12068216A72
S315080015E094F8242002EB0111884201D0002032BD74
S315080015F029462046FFF7DCFF102204F11001284691
S31508001600FFF726FF401E8041C00F32BD11B581B0DD
S31508001610144600BA0190022020700C22601CFFF7C5
S31508001620F7FE03220DF1050104F10D00FFF7F0FEA8
S315080016300249204600F0AAF813BD0000F808080879
S31508001640F0B585B004460D461646002100271DE074
S3150800165031B900AA211D206A401CFFF7D7FF0121D6
S3150800166004F120007A5D03790DF1000C13F80C30B3
S315080016705A407A550279521CD2B2102A04D3002253
S31508001680216A491C2162002102717F1CB742DFD3FF
S3150800169005B0F0BDFFFE000062F30F2262F31F42A1
S315080016A0401810F0030308D0C91A1FD3DB0748BF38
S315080016B000F8012D28BF20F8022D130030B4144677
S315080016C01546103928BF20E93C00FAD8490728BF33
S315080016D020E90C0048BF40F8042D890028BF20F8EF
S315080016E0022D48BF00F8012D30BC7047C91818BF35
S315080016F000F8012DCB0728BF00F8012D7047000020
S3150800170038B504461B4D214600F03DF8E860211D1A
S3150800171000F039F8A86004F1080100F034F86860B0
S3150800172004F10C0100F02FF8286031BDF8B5044625
S31508001730114D80202860114E062030600720286051
S3150800174030688007FCD5002704EB870100F01BF8FA
S31508001750A8627F1C042FF7D330684007FCD5002603
S315080017602A6B04EB860100F00BF8761C042EF7D3DF
S31508001770F1BD0000383000400030004010A00040A5
S31508001780002000F010B8002000F01BB810B5044681
S315080017900846FFF7B5FF2046BDE81040C6E700003B
S315080017A0002200F023B810B50023002814BF1C46F9
S315080017B0C3F10304E4B26254120A5B1C042BF4D38B
S315080017C010BD30B54A788B78CC78097818B12046A0
S315080017D01D460C4602E0084615461A4655EA0020FC
S315080017E054EA022141EA004030BD000000B500BFBE
S315080017F0130096469446103928BFA0E80C50FAD82C
S315080018005FEA417C28BF0CC048BF40F8042BC907D3
S3150800181028BF20F8022B48BF00F8012B00BD0000A6
S315080018202748018A40F6A772914202BF418A4FF4BF
S315080018307F40014204D102298041C043C00F70474E
S3150800184000207047F8B504460D461C4E012030703E
S31508001850FFF7E6FF18B94FF40170FEF7BBFC18480E
S31508001860876A294644F48070B847002131700FF220
S31508001870540618B9294644F40070B847805DF2BD8D
S315080018802DE9F041044688465600FFF7C9FF18B906
S315080018904FF40170FEF79EFC0948476A002332465A
S315080018A041462046B8470FF21C0520B933460022A8
S315080018B041462046B847405DBDE8F081BC0C002093
S315080018C000000808000202024B4B46474D343550CB
S315080018D045323000EE08C05D00000001FFFF000041
S7050800006F83
